{
  "_format": "hh-sol-artifact-1",
  "contractName": "obscurityDAO_V2",
  "sourceName": "contracts/obscurityDAO_V2.sol",
  "abi": [
    {
      "anonymous": false,
      "inputs": [
        {
          "indexed": false,
          "internalType": "address",
          "name": "previousAdmin",
          "type": "address"
        },
        {
          "indexed": false,
          "internalType": "address",
          "name": "newAdmin",
          "type": "address"
        }
      ],
      "name": "AdminChanged",
      "type": "event"
    },
    {
      "anonymous": false,
      "inputs": [
        {
          "indexed": true,
          "internalType": "address",
          "name": "owner",
          "type": "address"
        },
        {
          "indexed": true,
          "internalType": "address",
          "name": "spender",
          "type": "address"
        },
        {
          "indexed": false,
          "internalType": "uint256",
          "name": "value",
          "type": "uint256"
        }
      ],
      "name": "Approval",
      "type": "event"
    },
    {
      "anonymous": false,
      "inputs": [
        {
          "indexed": true,
          "internalType": "address",
          "name": "beacon",
          "type": "address"
        }
      ],
      "name": "BeaconUpgraded",
      "type": "event"
    },
    {
      "anonymous": false,
      "inputs": [
        {
          "indexed": false,
          "internalType": "address",
          "name": "account",
          "type": "address"
        }
      ],
      "name": "Paused",
      "type": "event"
    },
    {
      "anonymous": false,
      "inputs": [
        {
          "indexed": true,
          "internalType": "address",
          "name": "_from",
          "type": "address"
        },
        {
          "indexed": false,
          "internalType": "uint256",
          "name": "_id",
          "type": "uint256"
        },
        {
          "indexed": false,
          "internalType": "string",
          "name": "_value",
          "type": "string"
        }
      ],
      "name": "ProposalCreated",
      "type": "event"
    },
    {
      "anonymous": false,
      "inputs": [
        {
          "indexed": true,
          "internalType": "bytes32",
          "name": "role",
          "type": "bytes32"
        },
        {
          "indexed": true,
          "internalType": "bytes32",
          "name": "previousAdminRole",
          "type": "bytes32"
        },
        {
          "indexed": true,
          "internalType": "bytes32",
          "name": "newAdminRole",
          "type": "bytes32"
        }
      ],
      "name": "RoleAdminChanged",
      "type": "event"
    },
    {
      "anonymous": false,
      "inputs": [
        {
          "indexed": true,
          "internalType": "bytes32",
          "name": "role",
          "type": "bytes32"
        },
        {
          "indexed": true,
          "internalType": "address",
          "name": "account",
          "type": "address"
        },
        {
          "indexed": true,
          "internalType": "address",
          "name": "sender",
          "type": "address"
        }
      ],
      "name": "RoleGranted",
      "type": "event"
    },
    {
      "anonymous": false,
      "inputs": [
        {
          "indexed": true,
          "internalType": "bytes32",
          "name": "role",
          "type": "bytes32"
        },
        {
          "indexed": true,
          "internalType": "address",
          "name": "account",
          "type": "address"
        },
        {
          "indexed": true,
          "internalType": "address",
          "name": "sender",
          "type": "address"
        }
      ],
      "name": "RoleRevoked",
      "type": "event"
    },
    {
      "anonymous": false,
      "inputs": [
        {
          "indexed": true,
          "internalType": "address",
          "name": "_from",
          "type": "address"
        },
        {
          "indexed": false,
          "internalType": "uint256",
          "name": "_id",
          "type": "uint256"
        },
        {
          "indexed": false,
          "internalType": "string",
          "name": "_value",
          "type": "string"
        }
      ],
      "name": "SwapAddressProposalCreated",
      "type": "event"
    },
    {
      "anonymous": false,
      "inputs": [
        {
          "indexed": true,
          "internalType": "address",
          "name": "from",
          "type": "address"
        },
        {
          "indexed": true,
          "internalType": "address",
          "name": "to",
          "type": "address"
        },
        {
          "indexed": false,
          "internalType": "uint256",
          "name": "value",
          "type": "uint256"
        }
      ],
      "name": "Transfer",
      "type": "event"
    },
    {
      "anonymous": false,
      "inputs": [
        {
          "indexed": false,
          "internalType": "address",
          "name": "account",
          "type": "address"
        }
      ],
      "name": "Unpaused",
      "type": "event"
    },
    {
      "anonymous": false,
      "inputs": [
        {
          "indexed": true,
          "internalType": "address",
          "name": "implementation",
          "type": "address"
        }
      ],
      "name": "Upgraded",
      "type": "event"
    },
    {
      "inputs": [],
      "name": "DEFAULT_ADMIN_ROLE",
      "outputs": [
        {
          "internalType": "bytes32",
          "name": "",
          "type": "bytes32"
        }
      ],
      "stateMutability": "view",
      "type": "function"
    },
    {
      "inputs": [
        {
          "internalType": "address",
          "name": "owner",
          "type": "address"
        },
        {
          "internalType": "address",
          "name": "spender",
          "type": "address"
        }
      ],
      "name": "allowance",
      "outputs": [
        {
          "internalType": "uint256",
          "name": "",
          "type": "uint256"
        }
      ],
      "stateMutability": "view",
      "type": "function"
    },
    {
      "inputs": [
        {
          "internalType": "address",
          "name": "spender",
          "type": "address"
        },
        {
          "internalType": "uint256",
          "name": "amount",
          "type": "uint256"
        }
      ],
      "name": "approve",
      "outputs": [
        {
          "internalType": "bool",
          "name": "",
          "type": "bool"
        }
      ],
      "stateMutability": "nonpayable",
      "type": "function"
    },
    {
      "inputs": [
        {
          "internalType": "address",
          "name": "account",
          "type": "address"
        }
      ],
      "name": "balanceOf",
      "outputs": [
        {
          "internalType": "uint256",
          "name": "",
          "type": "uint256"
        }
      ],
      "stateMutability": "view",
      "type": "function"
    },
    {
      "inputs": [
        {
          "internalType": "uint256",
          "name": "proposalID",
          "type": "uint256"
        }
      ],
      "name": "completeAddrTransferProposal",
      "outputs": [],
      "stateMutability": "nonpayable",
      "type": "function"
    },
    {
      "inputs": [
        {
          "internalType": "uint256",
          "name": "proposalID",
          "type": "uint256"
        }
      ],
      "name": "completeFundsTransferProposal",
      "outputs": [],
      "stateMutability": "nonpayable",
      "type": "function"
    },
    {
      "inputs": [
        {
          "internalType": "uint256",
          "name": "proposalID",
          "type": "uint256"
        },
        {
          "internalType": "address payable",
          "name": "oldAddr",
          "type": "address"
        },
        {
          "internalType": "address payable",
          "name": "newAddr",
          "type": "address"
        },
        {
          "internalType": "bytes32",
          "name": "desc",
          "type": "bytes32"
        }
      ],
      "name": "createAddrTransferProposal",
      "outputs": [],
      "stateMutability": "nonpayable",
      "type": "function"
    },
    {
      "inputs": [
        {
          "internalType": "uint256",
          "name": "proposalID",
          "type": "uint256"
        },
        {
          "internalType": "bytes32",
          "name": "symbol",
          "type": "bytes32"
        },
        {
          "internalType": "address",
          "name": "pFrom",
          "type": "address"
        },
        {
          "internalType": "address[]",
          "name": "tgts",
          "type": "address[]"
        },
        {
          "internalType": "uint256[]",
          "name": "vals",
          "type": "uint256[]"
        },
        {
          "internalType": "bytes[]",
          "name": "data",
          "type": "bytes[]"
        },
        {
          "internalType": "bytes32",
          "name": "desc",
          "type": "bytes32"
        }
      ],
      "name": "createFundsTransferProposal",
      "outputs": [],
      "stateMutability": "nonpayable",
      "type": "function"
    },
    {
      "inputs": [],
      "name": "decimals",
      "outputs": [
        {
          "internalType": "uint8",
          "name": "",
          "type": "uint8"
        }
      ],
      "stateMutability": "view",
      "type": "function"
    },
    {
      "inputs": [
        {
          "internalType": "address",
          "name": "spender",
          "type": "address"
        },
        {
          "internalType": "uint256",
          "name": "subtractedValue",
          "type": "uint256"
        }
      ],
      "name": "decreaseAllowance",
      "outputs": [
        {
          "internalType": "bool",
          "name": "",
          "type": "bool"
        }
      ],
      "stateMutability": "nonpayable",
      "type": "function"
    },
    {
      "inputs": [
        {
          "internalType": "uint256",
          "name": "proposalID",
          "type": "uint256"
        },
        {
          "internalType": "uint256",
          "name": "vote",
          "type": "uint256"
        },
        {
          "internalType": "address",
          "name": "to",
          "type": "address"
        },
        {
          "internalType": "uint256",
          "name": "amount",
          "type": "uint256"
        },
        {
          "internalType": "string",
          "name": "message",
          "type": "string"
        },
        {
          "internalType": "uint256",
          "name": "nonce",
          "type": "uint256"
        },
        {
          "internalType": "bytes",
          "name": "signature",
          "type": "bytes"
        }
      ],
      "name": "founderAddrVote",
      "outputs": [],
      "stateMutability": "nonpayable",
      "type": "function"
    },
    {
      "inputs": [
        {
          "internalType": "uint256",
          "name": "proposalID",
          "type": "uint256"
        },
        {
          "internalType": "uint256",
          "name": "vote",
          "type": "uint256"
        },
        {
          "internalType": "address",
          "name": "to",
          "type": "address"
        },
        {
          "internalType": "uint256",
          "name": "amount",
          "type": "uint256"
        },
        {
          "internalType": "string",
          "name": "message",
          "type": "string"
        },
        {
          "internalType": "uint256",
          "name": "nonce",
          "type": "uint256"
        },
        {
          "internalType": "bytes",
          "name": "signature",
          "type": "bytes"
        }
      ],
      "name": "founderFundVote",
      "outputs": [],
      "stateMutability": "nonpayable",
      "type": "function"
    },
    {
      "inputs": [
        {
          "internalType": "uint256",
          "name": "proposalID",
          "type": "uint256"
        }
      ],
      "name": "gPDesc",
      "outputs": [
        {
          "internalType": "bytes32",
          "name": "",
          "type": "bytes32"
        }
      ],
      "stateMutability": "view",
      "type": "function"
    },
    {
      "inputs": [
        {
          "internalType": "uint256",
          "name": "proposalID",
          "type": "uint256"
        }
      ],
      "name": "gPState",
      "outputs": [
        {
          "internalType": "uint256",
          "name": "",
          "type": "uint256"
        }
      ],
      "stateMutability": "view",
      "type": "function"
    },
    {
      "inputs": [
        {
          "internalType": "uint256",
          "name": "proposalID",
          "type": "uint256"
        }
      ],
      "name": "gPSwapState",
      "outputs": [
        {
          "internalType": "uint256",
          "name": "",
          "type": "uint256"
        }
      ],
      "stateMutability": "view",
      "type": "function"
    },
    {
      "inputs": [
        {
          "internalType": "uint256",
          "name": "proposalID",
          "type": "uint256"
        }
      ],
      "name": "getAddrPState",
      "outputs": [
        {
          "internalType": "uint256",
          "name": "",
          "type": "uint256"
        }
      ],
      "stateMutability": "view",
      "type": "function"
    },
    {
      "inputs": [
        {
          "internalType": "address",
          "name": "_to",
          "type": "address"
        },
        {
          "internalType": "uint256",
          "name": "_amount",
          "type": "uint256"
        },
        {
          "internalType": "string",
          "name": "_message",
          "type": "string"
        },
        {
          "internalType": "uint256",
          "name": "_nonce",
          "type": "uint256"
        }
      ],
      "name": "getMessageHash",
      "outputs": [
        {
          "internalType": "bytes32",
          "name": "",
          "type": "bytes32"
        }
      ],
      "stateMutability": "pure",
      "type": "function"
    },
    {
      "inputs": [
        {
          "internalType": "uint256",
          "name": "proposalID",
          "type": "uint256"
        }
      ],
      "name": "getPDesc",
      "outputs": [
        {
          "internalType": "bytes32",
          "name": "",
          "type": "bytes32"
        }
      ],
      "stateMutability": "view",
      "type": "function"
    },
    {
      "inputs": [
        {
          "internalType": "uint256",
          "name": "proposalID",
          "type": "uint256"
        }
      ],
      "name": "getPState",
      "outputs": [
        {
          "internalType": "uint256",
          "name": "",
          "type": "uint256"
        }
      ],
      "stateMutability": "view",
      "type": "function"
    },
    {
      "inputs": [
        {
          "internalType": "bytes32",
          "name": "role",
          "type": "bytes32"
        }
      ],
      "name": "getRoleAdmin",
      "outputs": [
        {
          "internalType": "bytes32",
          "name": "",
          "type": "bytes32"
        }
      ],
      "stateMutability": "view",
      "type": "function"
    },
    {
      "inputs": [
        {
          "internalType": "bytes32",
          "name": "role",
          "type": "bytes32"
        },
        {
          "internalType": "address",
          "name": "account",
          "type": "address"
        }
      ],
      "name": "grantRole",
      "outputs": [],
      "stateMutability": "nonpayable",
      "type": "function"
    },
    {
      "inputs": [
        {
          "internalType": "bytes32",
          "name": "role",
          "type": "bytes32"
        },
        {
          "internalType": "address",
          "name": "account",
          "type": "address"
        }
      ],
      "name": "hasRole",
      "outputs": [
        {
          "internalType": "bool",
          "name": "",
          "type": "bool"
        }
      ],
      "stateMutability": "view",
      "type": "function"
    },
    {
      "inputs": [
        {
          "internalType": "address",
          "name": "spender",
          "type": "address"
        },
        {
          "internalType": "uint256",
          "name": "addedValue",
          "type": "uint256"
        }
      ],
      "name": "increaseAllowance",
      "outputs": [
        {
          "internalType": "bool",
          "name": "",
          "type": "bool"
        }
      ],
      "stateMutability": "nonpayable",
      "type": "function"
    },
    {
      "inputs": [],
      "name": "initialize",
      "outputs": [],
      "stateMutability": "nonpayable",
      "type": "function"
    },
    {
      "inputs": [
        {
          "internalType": "address",
          "name": "to",
          "type": "address"
        },
        {
          "internalType": "uint256",
          "name": "amount",
          "type": "uint256"
        }
      ],
      "name": "mint",
      "outputs": [],
      "stateMutability": "nonpayable",
      "type": "function"
    },
    {
      "inputs": [],
      "name": "name",
      "outputs": [
        {
          "internalType": "string",
          "name": "",
          "type": "string"
        }
      ],
      "stateMutability": "view",
      "type": "function"
    },
    {
      "inputs": [],
      "name": "pause",
      "outputs": [],
      "stateMutability": "nonpayable",
      "type": "function"
    },
    {
      "inputs": [],
      "name": "paused",
      "outputs": [
        {
          "internalType": "bool",
          "name": "",
          "type": "bool"
        }
      ],
      "stateMutability": "view",
      "type": "function"
    },
    {
      "inputs": [
        {
          "internalType": "bytes32",
          "name": "msgHash",
          "type": "bytes32"
        },
        {
          "internalType": "bytes",
          "name": "_signature",
          "type": "bytes"
        }
      ],
      "name": "recoverSigner",
      "outputs": [
        {
          "internalType": "address",
          "name": "",
          "type": "address"
        }
      ],
      "stateMutability": "pure",
      "type": "function"
    },
    {
      "inputs": [
        {
          "internalType": "bytes32",
          "name": "role",
          "type": "bytes32"
        },
        {
          "internalType": "address",
          "name": "account",
          "type": "address"
        }
      ],
      "name": "renounceRole",
      "outputs": [],
      "stateMutability": "nonpayable",
      "type": "function"
    },
    {
      "inputs": [
        {
          "internalType": "bytes32",
          "name": "role",
          "type": "bytes32"
        },
        {
          "internalType": "address",
          "name": "account",
          "type": "address"
        }
      ],
      "name": "revokeRole",
      "outputs": [],
      "stateMutability": "nonpayable",
      "type": "function"
    },
    {
      "inputs": [
        {
          "internalType": "address",
          "name": "newAddr",
          "type": "address"
        }
      ],
      "name": "setCRAddress",
      "outputs": [],
      "stateMutability": "nonpayable",
      "type": "function"
    },
    {
      "inputs": [
        {
          "internalType": "bytes4",
          "name": "interfaceId",
          "type": "bytes4"
        }
      ],
      "name": "supportsInterface",
      "outputs": [
        {
          "internalType": "bool",
          "name": "",
          "type": "bool"
        }
      ],
      "stateMutability": "view",
      "type": "function"
    },
    {
      "inputs": [],
      "name": "symbol",
      "outputs": [
        {
          "internalType": "string",
          "name": "",
          "type": "string"
        }
      ],
      "stateMutability": "view",
      "type": "function"
    },
    {
      "inputs": [],
      "name": "totalSupply",
      "outputs": [
        {
          "internalType": "uint256",
          "name": "",
          "type": "uint256"
        }
      ],
      "stateMutability": "view",
      "type": "function"
    },
    {
      "inputs": [
        {
          "internalType": "address",
          "name": "to",
          "type": "address"
        },
        {
          "internalType": "uint256",
          "name": "amount",
          "type": "uint256"
        }
      ],
      "name": "transfer",
      "outputs": [
        {
          "internalType": "bool",
          "name": "",
          "type": "bool"
        }
      ],
      "stateMutability": "nonpayable",
      "type": "function"
    },
    {
      "inputs": [
        {
          "internalType": "address",
          "name": "from",
          "type": "address"
        },
        {
          "internalType": "address",
          "name": "to",
          "type": "address"
        },
        {
          "internalType": "uint256",
          "name": "amount",
          "type": "uint256"
        }
      ],
      "name": "transferForCrowdSale",
      "outputs": [
        {
          "internalType": "bool",
          "name": "",
          "type": "bool"
        }
      ],
      "stateMutability": "nonpayable",
      "type": "function"
    },
    {
      "inputs": [
        {
          "internalType": "address",
          "name": "from",
          "type": "address"
        },
        {
          "internalType": "address",
          "name": "to",
          "type": "address"
        },
        {
          "internalType": "uint256",
          "name": "amount",
          "type": "uint256"
        }
      ],
      "name": "transferForMSigWallet",
      "outputs": [
        {
          "internalType": "bool",
          "name": "",
          "type": "bool"
        }
      ],
      "stateMutability": "nonpayable",
      "type": "function"
    },
    {
      "inputs": [
        {
          "internalType": "address",
          "name": "from",
          "type": "address"
        },
        {
          "internalType": "address",
          "name": "to",
          "type": "address"
        },
        {
          "internalType": "uint256",
          "name": "amount",
          "type": "uint256"
        }
      ],
      "name": "transferFrom",
      "outputs": [
        {
          "internalType": "bool",
          "name": "",
          "type": "bool"
        }
      ],
      "stateMutability": "nonpayable",
      "type": "function"
    },
    {
      "inputs": [],
      "name": "unpause",
      "outputs": [],
      "stateMutability": "nonpayable",
      "type": "function"
    },
    {
      "inputs": [
        {
          "internalType": "address",
          "name": "newImplementation",
          "type": "address"
        }
      ],
      "name": "upgradeTo",
      "outputs": [],
      "stateMutability": "nonpayable",
      "type": "function"
    },
    {
      "inputs": [
        {
          "internalType": "address",
          "name": "newImplementation",
          "type": "address"
        },
        {
          "internalType": "bytes",
          "name": "data",
          "type": "bytes"
        }
      ],
      "name": "upgradeToAndCall",
      "outputs": [],
      "stateMutability": "payable",
      "type": "function"
    },
    {
      "inputs": [
        {
          "internalType": "address",
          "name": "_signer",
          "type": "address"
        },
        {
          "internalType": "address",
          "name": "_to",
          "type": "address"
        },
        {
          "internalType": "uint256",
          "name": "_amount",
          "type": "uint256"
        },
        {
          "internalType": "string",
          "name": "_message",
          "type": "string"
        },
        {
          "internalType": "uint256",
          "name": "_nonce",
          "type": "uint256"
        },
        {
          "internalType": "bytes",
          "name": "signature",
          "type": "bytes"
        }
      ],
      "name": "verify",
      "outputs": [
        {
          "internalType": "bool",
          "name": "",
          "type": "bool"
        }
      ],
      "stateMutability": "nonpayable",
      "type": "function"
    }
  ],
  "bytecode": "0x60a06040523060805234801561001457600080fd5b5060805161543361004560003960008181610f3601528181610f7601528181611236015261127601526154336000f3fe6080604052600436106101ec5760003560e01c80630164beb2146101f157806301ffc9a7146102245780630555390c1461025457806306fdde0314610276578063095ea7b31461029857806318160ddd146102b857806323b872dd146102cd578063248a9ca3146102ed5780632f2ff15d1461030d578063313ce5671461032d57806333c8fe231461034957806336568abe146103695780633659cfe61461038957806339509351146103a95780633d1f9a14146103c95780633f4ba83a146103e957806340c10f19146103fe5780634f1ef2861461041e5780635c975abb1461043157806370a08231146104495780637f22113b146104695780638129fc1c146104895780638456cb591461049e5780638b6aeeac146104b357806391d14854146104d357806395d89b41146104f357806397aba7f914610508578063a217fddf14610535578063a35f8a401461054a578063a457c2d71461056a578063a497db511461058a578063a9059cbb146105aa578063abe5026a146105ca578063ad002b18146105ea578063b5378fb51461060a578063ba14dbc41461062a578063c023dd911461064a578063c24e69c21461066a578063d547741f1461068a578063dd62ed3e146106aa578063ea231728146106f0578063f2aa287e14610710578063f87672dc14610730575b600080fd5b3480156101fd57600080fd5b5061021161020c36600461490e565b610750565b6040519081526020015b60405180910390f35b34801561023057600080fd5b5061024461023f366004614927565b6108ae565b604051901515815260200161021b565b34801561026057600080fd5b5061027461026f366004614966565b6108e5565b005b34801561028257600080fd5b5061028b61093f565b60405161021b9190614a06565b3480156102a457600080fd5b506102446102b3366004614a19565b6109d1565b3480156102c457600080fd5b50603554610211565b3480156102d957600080fd5b506102446102e8366004614a45565b6109e7565b3480156102f957600080fd5b5061021161030836600461490e565b610c21565b34801561031957600080fd5b50610274610328366004614a86565b610c37565b34801561033957600080fd5b506040516012815260200161021b565b34801561035557600080fd5b5061021161036436600461490e565b610c59565b34801561037557600080fd5b50610274610384366004614a86565b610ead565b34801561039557600080fd5b506102746103a4366004614ab6565b610f2b565b3480156103b557600080fd5b506102446103c4366004614a19565b610ff4565b3480156103d557600080fd5b506102746103e436600461490e565b611030565b3480156103f557600080fd5b506102746111ab565b34801561040a57600080fd5b50610274610419366004614a19565b6111de565b61027461042c366004614b88565b61122b565b34801561043d57600080fd5b5060655460ff16610244565b34801561045557600080fd5b50610211610464366004614ab6565b6112e1565b34801561047557600080fd5b50610274610484366004614ce4565b6112fc565b34801561049557600080fd5b50610274611353565b3480156104aa57600080fd5b50610274611451565b3480156104bf57600080fd5b506102746104ce366004614ab6565b611482565b3480156104df57600080fd5b506102446104ee366004614a86565b6114d6565b3480156104ff57600080fd5b5061028b611502565b34801561051457600080fd5b50610528610523366004614dfb565b611511565b60405161021b9190614e2b565b34801561054157600080fd5b50610211600081565b34801561055657600080fd5b50610211610565366004614e3f565b611581565b34801561057657600080fd5b50610244610585366004614a19565b6115ba565b34801561059657600080fd5b506102746105a5366004614e9f565b611653565b3480156105b657600080fd5b506102446105c5366004614a19565b611744565b3480156105d657600080fd5b506102446105e5366004614f3b565b6118ff565b3480156105f657600080fd5b50610244610605366004614a45565b6119d1565b34801561061657600080fd5b5061021161062536600461490e565b611a47565b34801561063657600080fd5b5061021161064536600461490e565b611c9d565b34801561065657600080fd5b5061027461066536600461490e565b611ca8565b34801561067657600080fd5b50610244610685366004614a45565b611cbf565b34801561069657600080fd5b506102746106a5366004614a86565b611dab565b3480156106b657600080fd5b506102116106c5366004614fd5565b6001600160a01b03918216600090815260346020908152604080832093909416825291909152205490565b3480156106fc57600080fd5b5061021161070b36600461490e565b611dc8565b34801561071c57600080fd5b5061027461072b366004614e9f565b611dd3565b34801561073c57600080fd5b5061021161074b36600461490e565b611ed3565b60008181526101666020908152604080832081516101008101835281548152600182015493810193909352600281015491830191909152600381015483929190606083019060ff1660048111156107a9576107a9615003565b60048111156107ba576107ba615003565b8152600382015461010090046001600160a01b03908116602083015260048301549081166040830152600160a01b900460ff1615156060820152600590910154608090910152905060005b8160600151600481111561081b5761081b615003565b141561082a5750600192915050565b60018160600151600481111561084257610842615003565b14156108515750600492915050565b60028160600151600481111561086957610869615003565b14156108785750600292915050565b60038160600151600481111561089057610890615003565b141561089f5750600392915050565b50600092915050565b50919050565b60006001600160e01b03198216637965db0b60e01b14806108df57506301ffc9a760e01b6001600160e01b03198316145b92915050565b60026101735414156109125760405162461bcd60e51b815260040161090990615019565b60405180910390fd5b600261017355610161546109268133611ede565b61093285858585611f42565b5050600161017355505050565b60606036805461094e90615050565b80601f016020809104026020016040519081016040528092919081815260200182805461097a90615050565b80156109c75780601f1061099c576101008083540402835291602001916109c7565b820191906000526020600020905b8154815290600101906020018083116109aa57829003601f168201915b5050505050905090565b60006109de338484612152565b50600192915050565b60006002610173541415610a0d5760405162461bcd60e51b815260040161090990615019565b600261017355620186a0821015610a4b5760405162461bcd60e51b8152602060048201526002602482015261271760f11b6044820152606401610909565b61015f546001600160a01b0385811691161415610a7a5760405162461bcd60e51b815260040161090990615085565b61016c546001600160a01b0385811691161415610aa95760405162461bcd60e51b8152600401610909906150b4565b61016e546001600160a01b0385811691161415610ad85760405162461bcd60e51b8152600401610909906150c6565b610172546001600160a01b0385811691161415610b075760405162461bcd60e51b8152600401610909906150e1565b610170546001600160a01b0385811691161415610b365760405162461bcd60e51b8152600401610909906150fc565b81610b40856112e1565b1015610b5e5760405162461bcd60e51b815260040161090990615117565b61016854620186a08304908190600782028503908590610b87906001600160a01b031684612276565b5061016a54610b9f906001600160a01b031685612276565b5061016c54610bb7906001600160a01b031685612276565b5061016e54610bcf906001600160a01b031685612276565b5061017054610be7906001600160a01b031685612276565b5061017254610c02906001600160a01b031660028602612276565b50610c0d8783612276565b9450505050505b6001610173559392505050565b600090815261012d602052604090206001015490565b610c4082610c21565b610c4a8133611ede565b610c548383612283565b505050565b60008181526101a86020908152604080832081516101408101835281548152600182015493810193909352600281015491830191909152600381015483929190606083019060ff166004811115610cb257610cb2615003565b6004811115610cc357610cc3615003565b8152602001600482015481526020016005820160009054906101000a90046001600160a01b03166001600160a01b03166001600160a01b0316815260200160068201805480602002602001604051908101604052809291908181526020018280548015610d5957602002820191906000526020600020905b81546001600160a01b03168152600190910190602001808311610d3b575b5050505050815260200160078201805480602002602001604051908101604052809291908181526020018280548015610db157602002820191906000526020600020905b815481526020019060010190808311610d9d575b5050505050815260200160088201805480602002602001604051908101604052809291908181526020016000905b82821015610e8b578382906000526020600020018054610dfe90615050565b80601f0160208091040260200160405190810160405280929190818152602001828054610e2a90615050565b8015610e775780601f10610e4c57610100808354040283529160200191610e77565b820191906000526020600020905b815481529060010190602001808311610e5a57829003601f168201915b505050505081526020019060010190610ddf565b505050908252506009919091015460ff16151560209091015290506000610805565b6001600160a01b0381163314610f1d5760405162461bcd60e51b815260206004820152602f60248201527f416363657373436f6e74726f6c3a2063616e206f6e6c792072656e6f756e636560448201526e103937b632b9903337b91039b2b63360891b6064820152608401610909565b610f27828261230a565b5050565b306001600160a01b037f0000000000000000000000000000000000000000000000000000000000000000161415610f745760405162461bcd60e51b815260040161090990615132565b7f00000000000000000000000000000000000000000000000000000000000000006001600160a01b0316610fa6612372565b6001600160a01b031614610fcc5760405162461bcd60e51b81526004016109099061516c565b610fd58161238e565b60408051600080825260208201909252610ff1918391906123fb565b50565b3360008181526034602090815260408083206001600160a01b038716845290915281205490916109de91859061102b9086906151bc565b612152565b6101615461103e8133611ede565b61104782612542565b60011415610f275760008281526101a8602090815260408083206005810154600690910180548351818602810186019094528084526001600160a01b0390921694939091908301828280156110c557602002820191906000526020600020905b81546001600160a01b031681526001909101906020018083116110a7575b5050505050905060006101a8600086815260200190815260200160002060070180548060200260200160405190810160405280929190818152602001828054801561112f57602002820191906000526020600020905b81548152602001906001019080831161111b575b5050505050905060005b60008681526101a860205260409020600601548110156111a35761119084848381518110611169576111696151d4565b6020026020010151848481518110611183576111836151d4565b6020026020010151612805565b508061119b816151ea565b915050611139565b505050505050565b6111b861016154326114d6565b6111d45760405162461bcd60e51b8152600401610909906150b4565b6111dc612922565b565b60026101735414156112025760405162461bcd60e51b815260040161090990615019565b600261017355610162546112168133611ede565b61122083836129af565b505060016101735550565b306001600160a01b037f00000000000000000000000000000000000000000000000000000000000000001614156112745760405162461bcd60e51b815260040161090990615132565b7f00000000000000000000000000000000000000000000000000000000000000006001600160a01b03166112a6612372565b6001600160a01b0316146112cc5760405162461bcd60e51b81526004016109099061516c565b6112d58261238e565b610f27828260016123fb565b6001600160a01b031660009081526033602052604090205490565b60026101735414156113205760405162461bcd60e51b815260040161090990615019565b600261017355610161546113348133611ede565b61134388888888888888612a88565b5050600161017355505050505050565b600054610100900460ff1661136e5760005460ff1615611372565b303b155b6113d55760405162461bcd60e51b815260206004820152602e60248201527f496e697469616c697a61626c653a20636f6e747261637420697320616c72656160448201526d191e481a5b9a5d1a585b1a5e995960921b6064820152608401610909565b600054610100900460ff161580156113f7576000805461ffff19166101011790555b6101a75460ff161561142f5760405162461bcd60e51b81526020600482015260016024820152604960f81b6044820152606401610909565b6101a7805460ff191660011790558015610ff1576000805461ff001916905550565b61145e61016154326114d6565b61147a5760405162461bcd60e51b8152600401610909906150b4565b6111dc612c2e565b61148f61016154326114d6565b6114ab5760405162461bcd60e51b8152600401610909906150b4565b6101a580546001600160a01b03909216620100000262010000600160b01b0319909216919091179055565b600091825261012d602090815260408084206001600160a01b0393909316845291905290205460ff1690565b60606037805461094e90615050565b60008061156a846040517b0ca2ba3432b932bab69029b4b3b732b21026b2b9b9b0b3b29d05199960211b6020820152603c8101829052600090605c01604051602081830303815290604052805190602001209050919050565b905060006115788285612c86565b95945050505050565b60008484848460405160200161159a9493929190615205565b604051602081830303815290604052805190602001209050949350505050565b3360009081526034602090815260408083206001600160a01b03861684529091528120548281101561163c5760405162461bcd60e51b815260206004820152602560248201527f45524332303a2064656372656173656420616c6c6f77616e63652062656c6f77604482015264207a65726f60d81b6064820152608401610909565b6116493385858403612152565b5060019392505050565b60026101735414156116775760405162461bcd60e51b815260040161090990615019565b6002610173556101615461168b90326114d6565b6116a75760405162461bcd60e51b8152600401610909906150b4565b610168546001600160a01b03163214156116ee57610168546116d6906001600160a01b031686868686866118ff565b15156001146116e457600080fd5b6116ee8688612caa565b61016a546001600160a01b03163214156117355761016a5461171d906001600160a01b031686868686866118ff565b151560011461172b57600080fd5b6117358688612dfb565b50506001610173555050505050565b6000600261017354141561176a5760405162461bcd60e51b815260040161090990615019565b600261017355620186a08210156117935760405162461bcd60e51b81526004016109099061523d565b61015f546001600160a01b03163314156117bf5760405162461bcd60e51b815260040161090990615085565b61016c546001600160a01b03163214156117eb5760405162461bcd60e51b8152600401610909906150b4565b61016e546001600160a01b03163214156118175760405162461bcd60e51b8152600401610909906150c6565b81611821326112e1565b101561183f5760405162461bcd60e51b815260040161090990615117565b61016854620186a08304908190600782028503908590611868906001600160a01b031684612276565b5061016a54611880906001600160a01b031685612276565b5061016c54611898906001600160a01b031685612276565b5061016e546118b0906001600160a01b031685612276565b50610170546118c8906001600160a01b031685612276565b50610172546118e3906001600160a01b031660028602612276565b506118ee8783612276565b600161017355979650505050505050565b60008061190e87878787611581565b905060005b3260009081526101a66020526040902054811015611978573260009081526101a660205260409020805483919083908110611950576119506151d4565b9060005260206000200154141561196657600080fd5b80611970816151ea565b915050611913565b506000886001600160a01b031661198f8386611511565b6001600160a01b031614905080156119c5573260009081526101a660209081526040822080546001810182559083529120018290555b98975050505050505050565b600060026101735414156119f75760405162461bcd60e51b815260040161090990615019565b6002610173556101a5546201000090046001600160a01b03163314611a2e5760405162461bcd60e51b815260040161090990615085565b611a39848484612f56565b600161017355949350505050565b60008181526101a86020908152604080832081516101408101835281548152600182015493810193909352600281015491830191909152600381015483929190606083019060ff166004811115611aa057611aa0615003565b6004811115611ab157611ab1615003565b8152602001600482015481526020016005820160009054906101000a90046001600160a01b03166001600160a01b03166001600160a01b0316815260200160068201805480602002602001604051908101604052809291908181526020018280548015611b4757602002820191906000526020600020905b81546001600160a01b03168152600190910190602001808311611b29575b5050505050815260200160078201805480602002602001604051908101604052809291908181526020018280548015611b9f57602002820191906000526020600020905b815481526020019060010190808311611b8b575b5050505050815260200160088201805480602002602001604051908101604052809291908181526020016000905b82821015611c79578382906000526020600020018054611bec90615050565b80601f0160208091040260200160405190810160405280929190818152602001828054611c1890615050565b8015611c655780601f10611c3a57610100808354040283529160200191611c65565b820191906000526020600020905b815481529060010190602001808311611c4857829003601f168201915b505050505081526020019060010190611bcd565b505050908252506009919091015460ff161515602090910152604001519392505050565b60006108df82611a47565b61016154611cb68133611ede565b610f2782613002565b60006002610173541415611ce55760405162461bcd60e51b815260040161090990615019565b600261017355610168546001600160a01b0316321480611d10575061016a546001600160a01b031632145b15611d7f5761016c546001600160a01b0316331480611d3a575061016e546001600160a01b031633145b15611d5157611d4a848484612f56565b9050610c14565b60405162461bcd60e51b8152602060048201526003602482015262432f5960e81b6044820152606401610909565b60405162461bcd60e51b81526020600482015260016024820152602360f91b6044820152606401610909565b611db482610c21565b611dbe8133611ede565b610c54838361230a565b60006108df82610c59565b6002610173541415611df75760405162461bcd60e51b815260040161090990615019565b60026101735561016154611e0b8133611ede565b610168546001600160a01b0316321415611e655761016854611e3a906001600160a01b031687878787876118ff565b1515600114611e5b5760405162461bcd60e51b815260040161090990615258565b611e658789613383565b61016a546001600160a01b03163214156113435761016a54611e94906001600160a01b031687878787876118ff565b1515600114611ec95760405162461bcd60e51b81526020600482015260016024820152601560fa1b6044820152606401610909565b6113438789613746565b60006108df82610750565b611ee882826114d6565b610f2757611f00816001600160a01b03166014613a3a565b611f0b836020613a3a565b604051602001611f1c929190615273565b60408051601f198184030181529082905262461bcd60e51b825261090991600401614a06565b610168546001600160a01b0384811691161480611f6d575061016a546001600160a01b038481169116145b80611f86575061016e546001600160a01b038481169116145b80611f9f575061016c546001600160a01b038481169116145b80611fb85750610170546001600160a01b038481169116145b80611fd15750610172546001600160a01b038481169116145b80611fea575061015f546001600160a01b038481169116145b611ff357600080fd5b60008481526101666020526040902060040154600160a01b900460ff166101ec576040805161010081018252600080825260208083018281528385018681526004606086018181526001600160a01b03808c1660808901528a1660a0880152600160c088018190524260e08901528c8752610166909552969094208551815591518284015551600282015593516003850180549495949193909260ff19909216919084908111156120a6576120a6615003565b02179055506080820151600382018054610100600160a81b0319166101006001600160a01b039384160217905560a083015160048301805460c0860151929093166001600160a81b031990931692909217600160a01b9115159190910217905560e09091015160059091015560405133907f6ceccc91da1789e8e61ce3484744a0de0898e22dc9e6f8864985d5a48b64dd2d906121449087906152e2565b60405180910390a250505050565b6001600160a01b0383166121b45760405162461bcd60e51b8152602060048201526024808201527f45524332303a20617070726f76652066726f6d20746865207a65726f206164646044820152637265737360e01b6064820152608401610909565b6001600160a01b0382166122155760405162461bcd60e51b815260206004820152602260248201527f45524332303a20617070726f766520746f20746865207a65726f206164647265604482015261737360f01b6064820152608401610909565b6001600160a01b0383811660008181526034602090815260408083209487168084529482529182902085905590518481527f8c5be1e5ebec7d5bd14f71427d1e84f3dd0314c0f7b2291e5b200ac8c7c3b925910160405180910390a3505050565b60006109de338484613bd5565b61228d82826114d6565b610f2757600082815261012d602090815260408083206001600160a01b03851684529091529020805460ff191660011790556122c63390565b6001600160a01b0316816001600160a01b0316837f2f8788117e7eff1d82e926ec794901d17c78024a50270940304540a733656f0d60405160405180910390a45050565b61231482826114d6565b15610f2757600082815261012d602090815260408083206001600160a01b0385168085529252808320805460ff1916905551339285917ff6391f5c32d9c69d2a47ea670b442974b53935d1edc7fd64eb21e047a839171b9190a45050565b600080516020615397833981519152546001600160a01b031690565b60026101735414156123b25760405162461bcd60e51b815260040161090990615019565b600261017355610164546123c68133611ede565b61015f546001600160a01b031632146123f15760405162461bcd60e51b815260040161090990615258565b5050600161017355565b6000612405612372565b905061241084613d9e565b60008351118061241d5750815b1561242e5761242c8484613e31565b505b7f4910fdfa16fed3260ed0e7147f7cc6da11a60208b5b9406d12a635614ffd9143805460ff1661253b57805460ff191660011781556040516124a990869061247a908590602401614e2b565b60408051601f198184030181529190526020810180516001600160e01b0316631b2ce7f360e11b179052613e31565b50805460ff191681556124ba612372565b6001600160a01b0316826001600160a01b0316146125325760405162461bcd60e51b815260206004820152602f60248201527f45524331393637557067726164653a207570677261646520627265616b73206660448201526e75727468657220757067726164657360881b6064820152608401610909565b61253b85613f13565b5050505050565b600061254d82613f53565b60008281526101a860209081526040808320815161014081018352815481526001820154938101939093526002810154918301919091526003810154606083019060ff1660048111156125a2576125a2615003565b60048111156125b3576125b3615003565b8152602001600482015481526020016005820160009054906101000a90046001600160a01b03166001600160a01b03166001600160a01b031681526020016006820180548060200260200160405190810160405280929190818152602001828054801561264957602002820191906000526020600020905b81546001600160a01b0316815260019091019060200180831161262b575b50505050508152602001600782018054806020026020016040519081016040528092919081815260200182805480156126a157602002820191906000526020600020905b81548152602001906001019080831161268d575b5050505050815260200160088201805480602002602001604051908101604052809291908181526020016000905b8282101561277b5783829060005260206000200180546126ee90615050565b80601f016020809104026020016040519081016040528092919081815260200182805461271a90615050565b80156127675780601f1061273c57610100808354040283529160200191612767565b820191906000526020600020905b81548152906001019060200180831161274a57829003601f168201915b5050505050815260200190600101906126cf565b505050908252506009919091015460ff16151560209091015290506002816060015160048111156127ae576127ae615003565b146127df5760405162461bcd60e51b81526020600482015260016024820152602160f81b6044820152606401610909565b505060009081526101a8602052604090206003908101805460ff19169091179055600190565b6000600261017354141561282b5760405162461bcd60e51b815260040161090990615019565b60026101735561016c546001600160a01b03858116911614156128605760405162461bcd60e51b8152600401610909906150b4565b61016e546001600160a01b038581169116141561288f5760405162461bcd60e51b8152600401610909906150c6565b610172546001600160a01b03858116911614156128be5760405162461bcd60e51b8152600401610909906150e1565b610170546001600160a01b03858116911614156128ed5760405162461bcd60e51b8152600401610909906150fc565b610168546001600160a01b0316321480612912575061016a546001600160a01b031632145b15611d7f57611d4a848484612f56565b60655460ff1661296b5760405162461bcd60e51b815260206004820152601460248201527314185d5cd8589b194e881b9bdd081c185d5cd95960621b6044820152606401610909565b6065805460ff191690557f5db9ee0a495bf2e6ff9c91a7834c1ba4fdd244a5e8aa4e537bd38aeae4b073aa335b6040516129a59190614e2b565b60405180910390a1565b6001600160a01b038216612a055760405162461bcd60e51b815260206004820152601f60248201527f45524332303a206d696e7420746f20746865207a65726f2061646472657373006044820152606401610909565b612a1160008383614213565b8060356000828254612a2391906151bc565b90915550506001600160a01b03821660009081526033602052604081208054839290612a509084906151bc565b90915550506040518181526001600160a01b038316906000906000805160206153de8339815191529060200160405180910390a35050565b60008781526101a8602052604090206009015460ff166101ec57604080516101408101825260008082526020808301828152838501868152600460608601818152608087018e90526001600160a01b038d1660a088015260c087018c905260e087018b905261010087018a9052600161012088018190528f87526101a8909552969094208551815591518284015551600282015593516003850180549495949193909260ff199290921691908490811115612b4557612b45615003565b02179055506080820151600482015560a08201516005820180546001600160a01b0319166001600160a01b0390921691909117905560c08201518051612b95916006840191602090910190614736565b5060e08201518051612bb191600784019160209091019061479b565b506101008201518051612bce9160088401916020909101906147d6565b5061012091909101516009909101805460ff191691151591909117905560405133907f9db6e12bf11e1f7aeb4a3bbaf7334db3a3ed38a7dc42e8f16530c97c54ec712490612c1d908a906152e2565b60405180910390a250505050505050565b60655460ff1615612c515760405162461bcd60e51b8152600401610909906152fa565b6065805460ff191660011790557f62e78cea01bee320cd4e420270b5ea74000d11b0c9f74754ebdbfc544b05a2586129983390565b6000806000612c958585614236565b91509150612ca2816142a6565b509392505050565b600081815261016660209081526040808320815161010081018352815481526001820154938101939093526002810154918301919091526003810154606083019060ff166004811115612cff57612cff615003565b6004811115612d1057612d10615003565b8152600382015461010090046001600160a01b03908116602083015260048301549081166040830152600160a01b900460ff16151560608201526005909101546080909101529050600181606001516004811115612d7057612d70615003565b1415612d7b57600080fd5b600481606001516004811115612d9357612d93615003565b1415612db457600082815261016660205260409020600301805460ff191690555b82600114612ddf57600082815261016660205260408120848155600301805460ff1916600117905580fd5b8260011415610c54575060009081526101666020526040902055565b600081815261016660209081526040808320815161010081018352815481526001820154938101939093526002810154918301919091526003810154606083019060ff166004811115612e5057612e50615003565b6004811115612e6157612e61615003565b8152600382015461010090046001600160a01b03908116602083015260048301549081166040830152600160a01b900460ff16151560608201526005909101546080909101529050600181606001516004811115612ec157612ec1615003565b1415612ecc57600080fd5b600481606001516004811115612ee457612ee4615003565b1415612f0557600082815261016660205260409020600301805460ff191690555b82600114612f375760008281526101666020526040812060018082018690556003909101805460ff1916909117905580fd5b8260011415610c54575060009081526101666020526040902060010155565b6000612f63848484613bd5565b6001600160a01b038416600090815260346020908152604080832033845290915290205482811015612fe85760405162461bcd60e51b815260206004820152602860248201527f45524332303a207472616e7366657220616d6f756e74206578636565647320616044820152676c6c6f77616e636560c01b6064820152608401610909565b612ff58533858403612152565b60019150505b9392505050565b61300b8161445c565b600081815261016660209081526040808320815161010081018352815481526001820154938101939093526002810154918301919091526003810154606083019060ff16600481111561306057613060615003565b600481111561307157613071615003565b8152600382015461010090046001600160a01b03908116602083015260048301549081166040830152600160a01b900460ff161515606082015260059091015460809091015290506002816060015160048111156130d1576130d1615003565b146131025760405162461bcd60e51b81526020600482015260016024820152600360fc1b6044820152606401610909565b6080810151610168546001600160a01b039081169116141561316c5760a081015161016880546001600160a01b0319166001600160a01b03909216919091179055610161546080820151613156919061230a565b613167610161548260a00151612283565b61335c565b608081015161016a546001600160a01b03908116911614156131c05760a081015161016a80546001600160a01b0319166001600160a01b03909216919091179055610161546080820151613156919061230a565b608081015161016c546001600160a01b03908116911614156132065760a081015161016c80546001600160a01b0319166001600160a01b0390921691909117905561335c565b608081015161016e546001600160a01b039081169116141561324c5760a081015161016e80546001600160a01b0319166001600160a01b0390921691909117905561335c565b6080810151610172546001600160a01b03908116911614156132925760a081015161017280546001600160a01b0319166001600160a01b0390921691909117905561335c565b6080810151610170546001600160a01b03908116911614156132d85760a081015161017080546001600160a01b0319166001600160a01b0390921691909117905561335c565b608081015161015f546001600160a01b039081169116141561335c57613305610163548260a00151612283565b613316610164548260a001516145e1565b6133276000801b8260a001516145e1565b61016354608082015161333a919061230a565b61334b61016454826080015161230a565b61335c6000801b826080015161230a565b6000828152610166602052604090206003908101805460ff19166001835b02179055505050565b60008181526101a860209081526040808320815161014081018352815481526001820154938101939093526002810154918301919091526003810154606083019060ff1660048111156133d8576133d8615003565b60048111156133e9576133e9615003565b8152602001600482015481526020016005820160009054906101000a90046001600160a01b03166001600160a01b03166001600160a01b031681526020016006820180548060200260200160405190810160405280929190818152602001828054801561347f57602002820191906000526020600020905b81546001600160a01b03168152600190910190602001808311613461575b50505050508152602001600782018054806020026020016040519081016040528092919081815260200182805480156134d757602002820191906000526020600020905b8154815260200190600101908083116134c3575b5050505050815260200160088201805480602002602001604051908101604052809291908181526020016000905b828210156135b157838290600052602060002001805461352490615050565b80601f016020809104026020016040519081016040528092919081815260200182805461355090615050565b801561359d5780601f106135725761010080835404028352916020019161359d565b820191906000526020600020905b81548152906001019060200180831161358057829003601f168201915b505050505081526020019060010190613505565b505050908252506009919091015460ff16151560209091015290506001816060015160048111156135e4576135e4615003565b14156136025760405162461bcd60e51b8152600401610909906150b4565b60048160600151600481111561361a5761361a615003565b141561362857600060608201525b8260011461363b57828152600160608201525b8260011415613648578281525b60008281526101a8602090815260409182902083518155908301516001808301919091559183015160028201556060830151600382018054859460ff199091169083600481111561369b5761369b615003565b02179055506080820151600482015560a08201516005820180546001600160a01b0319166001600160a01b0390921691909117905560c082015180516136eb916006840191602090910190614736565b5060e0820151805161370791600784019160209091019061479b565b5061010082015180516137249160088401916020909101906147d6565b5061012091909101516009909101805460ff1916911515919091179055505050565b60008181526101a860209081526040808320815161014081018352815481526001820154938101939093526002810154918301919091526003810154606083019060ff16600481111561379b5761379b615003565b60048111156137ac576137ac615003565b8152602001600482015481526020016005820160009054906101000a90046001600160a01b03166001600160a01b03166001600160a01b031681526020016006820180548060200260200160405190810160405280929190818152602001828054801561384257602002820191906000526020600020905b81546001600160a01b03168152600190910190602001808311613824575b505050505081526020016007820180548060200260200160405190810160405280929190818152602001828054801561389a57602002820191906000526020600020905b815481526020019060010190808311613886575b5050505050815260200160088201805480602002602001604051908101604052809291908181526020016000905b828210156139745783829060005260206000200180546138e790615050565b80601f016020809104026020016040519081016040528092919081815260200182805461391390615050565b80156139605780601f1061393557610100808354040283529160200191613960565b820191906000526020600020905b81548152906001019060200180831161394357829003601f168201915b5050505050815260200190600101906138c8565b505050908252506009919091015460ff16151560209091015290506001816060015160048111156139a7576139a7615003565b14156139b257600080fd5b6004816060015160048111156139ca576139ca615003565b14156139eb5760008281526101a860205260409020600301805460ff191690555b82600114613a1b5760008281526101a86020526040902060018082018590556003909101805460ff191690911790555b8260011415610c54575060009081526101a86020526040902060010155565b60606000613a49836002615324565b613a549060026151bc565b6001600160401b03811115613a6b57613a6b614ad3565b6040519080825280601f01601f191660200182016040528015613a95576020820181803683370190505b509050600360fc1b81600081518110613ab057613ab06151d4565b60200101906001600160f81b031916908160001a905350600f60fb1b81600181518110613adf57613adf6151d4565b60200101906001600160f81b031916908160001a9053506000613b03846002615324565b613b0e9060016151bc565b90505b6001811115613b86576f181899199a1a9b1b9c1cb0b131b232b360811b85600f1660108110613b4257613b426151d4565b1a60f81b828281518110613b5857613b586151d4565b60200101906001600160f81b031916908160001a90535060049490941c93613b7f81615343565b9050613b11565b508315612ffb5760405162461bcd60e51b815260206004820181905260248201527f537472696e67733a20686578206c656e67746820696e73756666696369656e746044820152606401610909565b6001600160a01b038316613c395760405162461bcd60e51b815260206004820152602560248201527f45524332303a207472616e736665722066726f6d20746865207a65726f206164604482015264647265737360d81b6064820152608401610909565b6001600160a01b038216613c9b5760405162461bcd60e51b815260206004820152602360248201527f45524332303a207472616e7366657220746f20746865207a65726f206164647260448201526265737360e81b6064820152608401610909565b613ca6838383614213565b6001600160a01b03831660009081526033602052604090205481811015613d1e5760405162461bcd60e51b815260206004820152602660248201527f45524332303a207472616e7366657220616d6f756e7420657863656564732062604482015265616c616e636560d01b6064820152608401610909565b6001600160a01b03808516600090815260336020526040808220858503905591851681529081208054849290613d559084906151bc565b92505081905550826001600160a01b0316846001600160a01b03166000805160206153de83398151915284604051613d8f91815260200190565b60405180910390a35b50505050565b803b613e025760405162461bcd60e51b815260206004820152602d60248201527f455243313936373a206e657720696d706c656d656e746174696f6e206973206e60448201526c1bdd08184818dbdb9d1c9858dd609a1b6064820152608401610909565b60008051602061539783398151915280546001600160a01b0319166001600160a01b0392909216919091179055565b6060823b613e905760405162461bcd60e51b815260206004820152602660248201527f416464726573733a2064656c65676174652063616c6c20746f206e6f6e2d636f6044820152651b9d1c9858dd60d21b6064820152608401610909565b600080846001600160a01b031684604051613eab919061535a565b600060405180830381855af49150503d8060008114613ee6576040519150601f19603f3d011682016040523d82523d6000602084013e613eeb565b606091505b509150915061157882826040518060600160405280602781526020016153b7602791396145eb565b613f1c81613d9e565b6040516001600160a01b038216907fbc7cd75a20ee27fd9adebab32041f755214dbc6bffa90cc0225b39da2e5c2d3b90600090a250565b60008181526101a860209081526040808320815161014081018352815481526001820154938101939093526002810154918301919091526003810154606083019060ff166004811115613fa857613fa8615003565b6004811115613fb957613fb9615003565b8152602001600482015481526020016005820160009054906101000a90046001600160a01b03166001600160a01b03166001600160a01b031681526020016006820180548060200260200160405190810160405280929190818152602001828054801561404f57602002820191906000526020600020905b81546001600160a01b03168152600190910190602001808311614031575b50505050508152602001600782018054806020026020016040519081016040528092919081815260200182805480156140a757602002820191906000526020600020905b815481526020019060010190808311614093575b5050505050815260200160088201805480602002602001604051908101604052809291908181526020016000905b828210156141815783829060005260206000200180546140f490615050565b80601f016020809104026020016040519081016040528092919081815260200182805461412090615050565b801561416d5780601f106141425761010080835404028352916020019161416d565b820191906000526020600020905b81548152906001019060200180831161415057829003601f168201915b5050505050815260200190600101906140d5565b505050908252506009919091015460ff16151560209091015290506001816060015160048111156141b4576141b4615003565b14156141bf57600080fd5b602081015181516141d091906151bc565b6002146141ef5760405162461bcd60e51b81526004016109099061523d565b60008281526101a86020526040902060030180546002919060ff191660018361337a565b60655460ff1615610c545760405162461bcd60e51b8152600401610909906152fa565b60008082516041141561426d5760208301516040840151606085015160001a61426187828585614624565b9450945050505061429f565b825160401415614297576020830151604084015161428c868383614707565b93509350505061429f565b506000905060025b9250929050565b60008160048111156142ba576142ba615003565b14156142c35750565b60018160048111156142d7576142d7615003565b14156143205760405162461bcd60e51b815260206004820152601860248201527745434453413a20696e76616c6964207369676e617475726560401b6044820152606401610909565b600281600481111561433457614334615003565b14156143825760405162461bcd60e51b815260206004820152601f60248201527f45434453413a20696e76616c6964207369676e6174757265206c656e677468006044820152606401610909565b600381600481111561439657614396615003565b14156143ef5760405162461bcd60e51b815260206004820152602260248201527f45434453413a20696e76616c6964207369676e6174757265202773272076616c604482015261756560f01b6064820152608401610909565b600481600481111561440357614403615003565b1415610ff15760405162461bcd60e51b815260206004820152602260248201527f45434453413a20696e76616c6964207369676e6174757265202776272076616c604482015261756560f01b6064820152608401610909565b600081815261016660209081526040808320815161010081018352815481526001820154938101939093526002810154918301919091526003810154606083019060ff1660048111156144b1576144b1615003565b60048111156144c2576144c2615003565b8152600382015461010090046001600160a01b03908116602083015260048301549081166040830152600160a01b900460ff1615156060820152600590910154608090910152905060018160600151600481111561452257614522615003565b14156145545760405162461bcd60e51b81526020600482015260016024820152603160f81b6044820152606401610909565b60e08101516145669062278d006151bc565b4210156145bd576020810151815161457e91906151bc565b60021461459d5760405162461bcd60e51b81526004016109099061523d565b50600090815261016660205260409020600301805460ff19166002179055565b60008281526101666020526040902060030180546002919060ff191660018361337a565b610f278282612283565b606083156145fa575081612ffb565b82511561460a5782518084602001fd5b8160405162461bcd60e51b81526004016109099190614a06565b6000806fa2a8918ca85bafe22016d0b997e4df60600160ff1b0383111561465157506000905060036146fe565b8460ff16601b1415801561466957508460ff16601c14155b1561467a57506000905060046146fe565b6040805160008082526020820180845289905260ff881692820192909252606081018690526080810185905260019060a0016020604051602081039080840390855afa1580156146ce573d6000803e3d6000fd5b5050604051601f1901519150506001600160a01b0381166146f7576000600192509250506146fe565b9150600090505b94509492505050565b6000806001600160ff1b03831660ff84901c601b0161472887828885614624565b935093505050935093915050565b82805482825590600052602060002090810192821561478b579160200282015b8281111561478b57825182546001600160a01b0319166001600160a01b03909116178255602090920191600190910190614756565b5061479792915061482f565b5090565b82805482825590600052602060002090810192821561478b579160200282015b8281111561478b5782518255916020019190600101906147bb565b828054828255906000526020600020908101928215614823579160200282015b828111156148235782518051614813918491602090910190614844565b50916020019190600101906147f6565b506147979291506148b7565b5b808211156147975760008155600101614830565b82805461485090615050565b90600052602060002090601f016020900481019282614872576000855561478b565b82601f1061488b57805160ff191683800117855561478b565b8280016001018555821561478b579182018281111561478b5782518255916020019190600101906147bb565b808211156147975760006148cb82826148d4565b506001016148b7565b5080546148e090615050565b6000825580601f106148f0575050565b601f016020900490600052602060002090810190610ff1919061482f565b60006020828403121561492057600080fd5b5035919050565b60006020828403121561493957600080fd5b81356001600160e01b031981168114612ffb57600080fd5b6001600160a01b0381168114610ff157600080fd5b6000806000806080858703121561497c57600080fd5b84359350602085013561498e81614951565b9250604085013561499e81614951565b9396929550929360600135925050565b60005b838110156149c95781810151838201526020016149b1565b83811115613d985750506000910152565b600081518084526149f28160208601602086016149ae565b601f01601f19169290920160200192915050565b602081526000612ffb60208301846149da565b60008060408385031215614a2c57600080fd5b8235614a3781614951565b946020939093013593505050565b600080600060608486031215614a5a57600080fd5b8335614a6581614951565b92506020840135614a7581614951565b929592945050506040919091013590565b60008060408385031215614a9957600080fd5b823591506020830135614aab81614951565b809150509250929050565b600060208284031215614ac857600080fd5b8135612ffb81614951565b634e487b7160e01b600052604160045260246000fd5b604051601f8201601f191681016001600160401b0381118282101715614b1157614b11614ad3565b604052919050565b600082601f830112614b2a57600080fd5b81356001600160401b03811115614b4357614b43614ad3565b614b56601f8201601f1916602001614ae9565b818152846020838601011115614b6b57600080fd5b816020850160208301376000918101602001919091529392505050565b60008060408385031215614b9b57600080fd5b8235614ba681614951565b915060208301356001600160401b03811115614bc157600080fd5b614bcd85828601614b19565b9150509250929050565b60006001600160401b03821115614bf057614bf0614ad3565b5060051b60200190565b600082601f830112614c0b57600080fd5b81356020614c20614c1b83614bd7565b614ae9565b82815260059290921b84018101918181019086841115614c3f57600080fd5b8286015b84811015614c5a5780358352918301918301614c43565b509695505050505050565b600082601f830112614c7657600080fd5b81356020614c86614c1b83614bd7565b82815260059290921b84018101918181019086841115614ca557600080fd5b8286015b84811015614c5a5780356001600160401b03811115614cc85760008081fd5b614cd68986838b0101614b19565b845250918301918301614ca9565b600080600080600080600060e0888a031215614cff57600080fd5b8735965060208089013596506040890135614d1981614951565b955060608901356001600160401b0380821115614d3557600080fd5b818b0191508b601f830112614d4957600080fd5b8135614d57614c1b82614bd7565b81815260059190911b8301840190848101908e831115614d7657600080fd5b938501935b82851015614d9d578435614d8e81614951565b82529385019390850190614d7b565b9850505060808b0135925080831115614db557600080fd5b614dc18c848d01614bfa565b955060a08b0135925080831115614dd757600080fd5b5050614de58a828b01614c65565b92505060c0880135905092959891949750929550565b60008060408385031215614e0e57600080fd5b8235915060208301356001600160401b03811115614bc157600080fd5b6001600160a01b0391909116815260200190565b60008060008060808587031215614e5557600080fd5b8435614e6081614951565b93506020850135925060408501356001600160401b03811115614e8257600080fd5b614e8e87828801614b19565b949793965093946060013593505050565b600080600080600080600060e0888a031215614eba57600080fd5b87359650602088013595506040880135614ed381614951565b94506060880135935060808801356001600160401b0380821115614ef657600080fd5b614f028b838c01614b19565b945060a08a0135935060c08a0135915080821115614f1f57600080fd5b50614f2c8a828b01614b19565b91505092959891949750929550565b60008060008060008060c08789031215614f5457600080fd5b8635614f5f81614951565b95506020870135614f6f81614951565b94506040870135935060608701356001600160401b0380821115614f9257600080fd5b614f9e8a838b01614b19565b94506080890135935060a0890135915080821115614fbb57600080fd5b50614fc889828a01614b19565b9150509295509295509295565b60008060408385031215614fe857600080fd5b8235614ff381614951565b91506020830135614aab81614951565b634e487b7160e01b600052602160045260246000fd5b6020808252601f908201527f5265656e7472616e637947756172643a207265656e7472616e742063616c6c00604082015260600190565b600181811c9082168061506457607f821691505b602082108114156108a857634e487b7160e01b600052602260045260246000fd5b6020808252600190820152604160f81b604082015260600190565b60018152604360f81b602082015260400190565b6020815260006108df602083016150a0565b6020808252600190820152605960f81b604082015260600190565b6020808252600190820152605360f81b604082015260600190565b6020808252600190820152604d60f81b604082015260600190565b6020808252600190820152602d60f91b604082015260600190565b6020808252602c9082015260008051602061537783398151915260408201526b19195b1959d85d1958d85b1b60a21b606082015260800190565b6020808252602c9082015260008051602061537783398151915260408201526b6163746976652070726f787960a01b606082015260800190565b634e487b7160e01b600052601160045260246000fd5b600082198211156151cf576151cf6151a6565b500190565b634e487b7160e01b600052603260045260246000fd5b60006000198214156151fe576151fe6151a6565b5060010190565b60018060a01b038516815283602082015260806040820152600061522c60808301856149da565b905082606083015295945050505050565b6020808252600190820152602760f91b604082015260600190565b6020808252600190820152604f60f81b604082015260600190565b76020b1b1b2b9b9a1b7b73a3937b61d1030b1b1b7bab73a1604d1b8152600083516152a58160178501602088016149ae565b7001034b99036b4b9b9b4b733903937b6329607d1b60179184019182015283516152d68160288401602088016149ae565b01602801949350505050565b818152604060208201526000612ffb604083016150a0565b60208082526010908201526f14185d5cd8589b194e881c185d5cd95960821b604082015260600190565b600081600019048311821515161561533e5761533e6151a6565b500290565b600081615352576153526151a6565b506000190190565b6000825161536c8184602087016149ae565b919091019291505056fe46756e6374696f6e206d7573742062652063616c6c6564207468726f75676820360894a13ba1a3210667c828492db98dca3e2076cc3735a920a3ca505d382bbc416464726573733a206c6f772d6c6576656c2064656c65676174652063616c6c206661696c6564ddf252ad1be2c89b69c2b068fc378daa952ba7f163c4a11628f55a4df523b3efa26469706673582212200fae386ccdeb5b8f0ee48c2fe452cf304400dbf2f65642d59f3e91cb11d127ad64736f6c634300080b0033",
  "linkReferences": {},
  "deployedLinkReferences": {}
}