{
  "_format": "hh-sol-artifact-1",
  "contractName": "crowdsalePhaseZero",
  "sourceName": "contracts/Crowdsale.sol",
  "abi": [
    {
      "anonymous": false,
      "inputs": [
        {
          "indexed": true,
          "internalType": "address",
          "name": "owner",
          "type": "address"
        },
        {
          "indexed": true,
          "internalType": "address",
          "name": "spender",
          "type": "address"
        },
        {
          "indexed": false,
          "internalType": "uint256",
          "name": "value",
          "type": "uint256"
        }
      ],
      "name": "Approval",
      "type": "event"
    },
    {
      "anonymous": false,
      "inputs": [
        {
          "indexed": true,
          "internalType": "address",
          "name": "sender",
          "type": "address"
        },
        {
          "indexed": false,
          "internalType": "uint256",
          "name": "amount",
          "type": "uint256"
        },
        {
          "indexed": false,
          "internalType": "uint256",
          "name": "balance",
          "type": "uint256"
        }
      ],
      "name": "DepositFunds",
      "type": "event"
    },
    {
      "anonymous": false,
      "inputs": [
        {
          "indexed": true,
          "internalType": "address",
          "name": "_from",
          "type": "address"
        },
        {
          "indexed": false,
          "internalType": "uint256",
          "name": "_id",
          "type": "uint256"
        },
        {
          "indexed": false,
          "internalType": "string",
          "name": "_value",
          "type": "string"
        }
      ],
      "name": "ETHAmountProposalCreated",
      "type": "event"
    },
    {
      "anonymous": false,
      "inputs": [
        {
          "indexed": true,
          "internalType": "bytes32",
          "name": "role",
          "type": "bytes32"
        },
        {
          "indexed": true,
          "internalType": "bytes32",
          "name": "previousAdminRole",
          "type": "bytes32"
        },
        {
          "indexed": true,
          "internalType": "bytes32",
          "name": "newAdminRole",
          "type": "bytes32"
        }
      ],
      "name": "RoleAdminChanged",
      "type": "event"
    },
    {
      "anonymous": false,
      "inputs": [
        {
          "indexed": true,
          "internalType": "bytes32",
          "name": "role",
          "type": "bytes32"
        },
        {
          "indexed": true,
          "internalType": "address",
          "name": "account",
          "type": "address"
        },
        {
          "indexed": true,
          "internalType": "address",
          "name": "sender",
          "type": "address"
        }
      ],
      "name": "RoleGranted",
      "type": "event"
    },
    {
      "anonymous": false,
      "inputs": [
        {
          "indexed": true,
          "internalType": "bytes32",
          "name": "role",
          "type": "bytes32"
        },
        {
          "indexed": true,
          "internalType": "address",
          "name": "account",
          "type": "address"
        },
        {
          "indexed": true,
          "internalType": "address",
          "name": "sender",
          "type": "address"
        }
      ],
      "name": "RoleRevoked",
      "type": "event"
    },
    {
      "anonymous": false,
      "inputs": [
        {
          "indexed": true,
          "internalType": "address",
          "name": "_from",
          "type": "address"
        },
        {
          "indexed": false,
          "internalType": "uint256",
          "name": "_id",
          "type": "uint256"
        },
        {
          "indexed": false,
          "internalType": "string",
          "name": "_value",
          "type": "string"
        }
      ],
      "name": "SwapAddressProposalCreated",
      "type": "event"
    },
    {
      "anonymous": false,
      "inputs": [
        {
          "indexed": true,
          "internalType": "address",
          "name": "purchaser",
          "type": "address"
        },
        {
          "indexed": true,
          "internalType": "address",
          "name": "beneficiary",
          "type": "address"
        },
        {
          "indexed": false,
          "internalType": "uint256",
          "name": "value",
          "type": "uint256"
        },
        {
          "indexed": false,
          "internalType": "uint256",
          "name": "amount",
          "type": "uint256"
        }
      ],
      "name": "TokensPurchased",
      "type": "event"
    },
    {
      "anonymous": false,
      "inputs": [
        {
          "indexed": true,
          "internalType": "address",
          "name": "from",
          "type": "address"
        },
        {
          "indexed": true,
          "internalType": "address",
          "name": "to",
          "type": "address"
        },
        {
          "indexed": false,
          "internalType": "uint256",
          "name": "value",
          "type": "uint256"
        }
      ],
      "name": "Transfer",
      "type": "event"
    },
    {
      "stateMutability": "payable",
      "type": "fallback"
    },
    {
      "inputs": [],
      "name": "DEFAULT_ADMIN_ROLE",
      "outputs": [
        {
          "internalType": "bytes32",
          "name": "",
          "type": "bytes32"
        }
      ],
      "stateMutability": "view",
      "type": "function"
    },
    {
      "inputs": [
        {
          "internalType": "address",
          "name": "owner",
          "type": "address"
        },
        {
          "internalType": "address",
          "name": "spender",
          "type": "address"
        }
      ],
      "name": "allowance",
      "outputs": [
        {
          "internalType": "uint256",
          "name": "",
          "type": "uint256"
        }
      ],
      "stateMutability": "view",
      "type": "function"
    },
    {
      "inputs": [
        {
          "internalType": "address",
          "name": "spender",
          "type": "address"
        },
        {
          "internalType": "uint256",
          "name": "amount",
          "type": "uint256"
        }
      ],
      "name": "approve",
      "outputs": [
        {
          "internalType": "bool",
          "name": "",
          "type": "bool"
        }
      ],
      "stateMutability": "nonpayable",
      "type": "function"
    },
    {
      "inputs": [
        {
          "internalType": "address",
          "name": "account",
          "type": "address"
        }
      ],
      "name": "balanceOf",
      "outputs": [
        {
          "internalType": "uint256",
          "name": "",
          "type": "uint256"
        }
      ],
      "stateMutability": "view",
      "type": "function"
    },
    {
      "inputs": [
        {
          "internalType": "address",
          "name": "beneficiary",
          "type": "address"
        }
      ],
      "name": "buyTokens",
      "outputs": [],
      "stateMutability": "payable",
      "type": "function"
    },
    {
      "inputs": [
        {
          "internalType": "uint256",
          "name": "proposalID",
          "type": "uint256"
        }
      ],
      "name": "completeAddrTransferProposal",
      "outputs": [],
      "stateMutability": "nonpayable",
      "type": "function"
    },
    {
      "inputs": [
        {
          "internalType": "uint256",
          "name": "proposalID",
          "type": "uint256"
        }
      ],
      "name": "completeETHAmountChangeProposal",
      "outputs": [],
      "stateMutability": "nonpayable",
      "type": "function"
    },
    {
      "inputs": [
        {
          "internalType": "address payable",
          "name": "oldAddr",
          "type": "address"
        },
        {
          "internalType": "address payable",
          "name": "newAddr",
          "type": "address"
        },
        {
          "internalType": "bytes32",
          "name": "desc",
          "type": "bytes32"
        }
      ],
      "name": "createAddrTransferProposal",
      "outputs": [],
      "stateMutability": "nonpayable",
      "type": "function"
    },
    {
      "inputs": [
        {
          "internalType": "uint256",
          "name": "newAmount",
          "type": "uint256"
        },
        {
          "internalType": "bytes32",
          "name": "desc",
          "type": "bytes32"
        }
      ],
      "name": "createETHAmountChangeProposal",
      "outputs": [],
      "stateMutability": "nonpayable",
      "type": "function"
    },
    {
      "inputs": [
        {
          "internalType": "uint256",
          "name": "proposalID",
          "type": "uint256"
        },
        {
          "internalType": "uint256",
          "name": "vote",
          "type": "uint256"
        },
        {
          "internalType": "address",
          "name": "to",
          "type": "address"
        },
        {
          "internalType": "uint256",
          "name": "amount",
          "type": "uint256"
        },
        {
          "internalType": "string",
          "name": "message",
          "type": "string"
        },
        {
          "internalType": "uint256",
          "name": "nonce",
          "type": "uint256"
        },
        {
          "internalType": "bytes",
          "name": "signature",
          "type": "bytes"
        }
      ],
      "name": "founderAddrVote",
      "outputs": [],
      "stateMutability": "nonpayable",
      "type": "function"
    },
    {
      "inputs": [
        {
          "internalType": "uint256",
          "name": "proposalID",
          "type": "uint256"
        },
        {
          "internalType": "uint256",
          "name": "vote",
          "type": "uint256"
        },
        {
          "internalType": "address",
          "name": "to",
          "type": "address"
        },
        {
          "internalType": "uint256",
          "name": "amount",
          "type": "uint256"
        },
        {
          "internalType": "string",
          "name": "message",
          "type": "string"
        },
        {
          "internalType": "uint256",
          "name": "nonce",
          "type": "uint256"
        },
        {
          "internalType": "bytes",
          "name": "signature",
          "type": "bytes"
        }
      ],
      "name": "founderETHAmountChangeVote",
      "outputs": [],
      "stateMutability": "nonpayable",
      "type": "function"
    },
    {
      "inputs": [
        {
          "internalType": "uint256",
          "name": "proposalID",
          "type": "uint256"
        }
      ],
      "name": "gPDesc",
      "outputs": [
        {
          "internalType": "bytes32",
          "name": "",
          "type": "bytes32"
        }
      ],
      "stateMutability": "view",
      "type": "function"
    },
    {
      "inputs": [
        {
          "internalType": "uint256",
          "name": "proposalID",
          "type": "uint256"
        }
      ],
      "name": "gPState",
      "outputs": [
        {
          "internalType": "uint256",
          "name": "",
          "type": "uint256"
        }
      ],
      "stateMutability": "view",
      "type": "function"
    },
    {
      "inputs": [
        {
          "internalType": "uint256",
          "name": "proposalID",
          "type": "uint256"
        }
      ],
      "name": "gPSwapDesc",
      "outputs": [
        {
          "internalType": "bytes32",
          "name": "",
          "type": "bytes32"
        }
      ],
      "stateMutability": "view",
      "type": "function"
    },
    {
      "inputs": [
        {
          "internalType": "uint256",
          "name": "proposalID",
          "type": "uint256"
        }
      ],
      "name": "gPSwapState",
      "outputs": [
        {
          "internalType": "uint256",
          "name": "",
          "type": "uint256"
        }
      ],
      "stateMutability": "view",
      "type": "function"
    },
    {
      "inputs": [
        {
          "internalType": "uint256",
          "name": "proposalID",
          "type": "uint256"
        }
      ],
      "name": "getAddrPDesc",
      "outputs": [
        {
          "internalType": "bytes32",
          "name": "",
          "type": "bytes32"
        }
      ],
      "stateMutability": "view",
      "type": "function"
    },
    {
      "inputs": [
        {
          "internalType": "uint256",
          "name": "proposalID",
          "type": "uint256"
        }
      ],
      "name": "getAddrPState",
      "outputs": [
        {
          "internalType": "uint256",
          "name": "",
          "type": "uint256"
        }
      ],
      "stateMutability": "view",
      "type": "function"
    },
    {
      "inputs": [
        {
          "internalType": "address",
          "name": "_to",
          "type": "address"
        },
        {
          "internalType": "uint256",
          "name": "_amount",
          "type": "uint256"
        },
        {
          "internalType": "string",
          "name": "_message",
          "type": "string"
        },
        {
          "internalType": "uint256",
          "name": "_nonce",
          "type": "uint256"
        }
      ],
      "name": "getMessageHash",
      "outputs": [
        {
          "internalType": "bytes32",
          "name": "",
          "type": "bytes32"
        }
      ],
      "stateMutability": "pure",
      "type": "function"
    },
    {
      "inputs": [
        {
          "internalType": "uint256",
          "name": "proposalID",
          "type": "uint256"
        }
      ],
      "name": "getPDesc",
      "outputs": [
        {
          "internalType": "bytes32",
          "name": "",
          "type": "bytes32"
        }
      ],
      "stateMutability": "view",
      "type": "function"
    },
    {
      "inputs": [
        {
          "internalType": "uint256",
          "name": "proposalID",
          "type": "uint256"
        }
      ],
      "name": "getPState",
      "outputs": [
        {
          "internalType": "uint256",
          "name": "",
          "type": "uint256"
        }
      ],
      "stateMutability": "view",
      "type": "function"
    },
    {
      "inputs": [],
      "name": "getPhaseFourETHRate",
      "outputs": [
        {
          "internalType": "uint256",
          "name": "",
          "type": "uint256"
        }
      ],
      "stateMutability": "view",
      "type": "function"
    },
    {
      "inputs": [],
      "name": "getPhaseThreeETHRate",
      "outputs": [
        {
          "internalType": "uint256",
          "name": "",
          "type": "uint256"
        }
      ],
      "stateMutability": "view",
      "type": "function"
    },
    {
      "inputs": [],
      "name": "getPhaseTwoETHRate",
      "outputs": [
        {
          "internalType": "uint256",
          "name": "",
          "type": "uint256"
        }
      ],
      "stateMutability": "view",
      "type": "function"
    },
    {
      "inputs": [],
      "name": "getPhaseZeroAddress",
      "outputs": [
        {
          "internalType": "address",
          "name": "",
          "type": "address"
        }
      ],
      "stateMutability": "view",
      "type": "function"
    },
    {
      "inputs": [
        {
          "internalType": "bytes32",
          "name": "role",
          "type": "bytes32"
        }
      ],
      "name": "getRoleAdmin",
      "outputs": [
        {
          "internalType": "bytes32",
          "name": "",
          "type": "bytes32"
        }
      ],
      "stateMutability": "view",
      "type": "function"
    },
    {
      "inputs": [],
      "name": "getSaleETHAmount",
      "outputs": [
        {
          "internalType": "uint256",
          "name": "",
          "type": "uint256"
        }
      ],
      "stateMutability": "view",
      "type": "function"
    },
    {
      "inputs": [],
      "name": "getSalePhase",
      "outputs": [
        {
          "internalType": "uint256",
          "name": "",
          "type": "uint256"
        }
      ],
      "stateMutability": "view",
      "type": "function"
    },
    {
      "inputs": [],
      "name": "getSaleRate",
      "outputs": [
        {
          "internalType": "uint256",
          "name": "",
          "type": "uint256"
        }
      ],
      "stateMutability": "view",
      "type": "function"
    },
    {
      "inputs": [],
      "name": "getTokenAddress",
      "outputs": [
        {
          "internalType": "contract IERC20Upgradeable",
          "name": "",
          "type": "address"
        }
      ],
      "stateMutability": "view",
      "type": "function"
    },
    {
      "inputs": [
        {
          "internalType": "bytes32",
          "name": "role",
          "type": "bytes32"
        },
        {
          "internalType": "address",
          "name": "account",
          "type": "address"
        }
      ],
      "name": "grantRole",
      "outputs": [],
      "stateMutability": "nonpayable",
      "type": "function"
    },
    {
      "inputs": [
        {
          "internalType": "bytes32",
          "name": "role",
          "type": "bytes32"
        },
        {
          "internalType": "address",
          "name": "account",
          "type": "address"
        }
      ],
      "name": "hasRole",
      "outputs": [
        {
          "internalType": "bool",
          "name": "",
          "type": "bool"
        }
      ],
      "stateMutability": "view",
      "type": "function"
    },
    {
      "inputs": [],
      "name": "initialize",
      "outputs": [],
      "stateMutability": "nonpayable",
      "type": "function"
    },
    {
      "inputs": [],
      "name": "initiatePhaseFour",
      "outputs": [],
      "stateMutability": "nonpayable",
      "type": "function"
    },
    {
      "inputs": [],
      "name": "initiatePhaseThree",
      "outputs": [],
      "stateMutability": "nonpayable",
      "type": "function"
    },
    {
      "inputs": [],
      "name": "initiatePhaseTwo",
      "outputs": [],
      "stateMutability": "nonpayable",
      "type": "function"
    },
    {
      "inputs": [],
      "name": "pauseSale",
      "outputs": [],
      "stateMutability": "nonpayable",
      "type": "function"
    },
    {
      "inputs": [],
      "name": "rate",
      "outputs": [
        {
          "internalType": "uint256",
          "name": "",
          "type": "uint256"
        }
      ],
      "stateMutability": "view",
      "type": "function"
    },
    {
      "inputs": [
        {
          "internalType": "bytes32",
          "name": "msgHash",
          "type": "bytes32"
        },
        {
          "internalType": "bytes",
          "name": "_signature",
          "type": "bytes"
        }
      ],
      "name": "recoverSigner",
      "outputs": [
        {
          "internalType": "address",
          "name": "",
          "type": "address"
        }
      ],
      "stateMutability": "pure",
      "type": "function"
    },
    {
      "inputs": [
        {
          "internalType": "bytes32",
          "name": "role",
          "type": "bytes32"
        },
        {
          "internalType": "address",
          "name": "account",
          "type": "address"
        }
      ],
      "name": "renounceRole",
      "outputs": [],
      "stateMutability": "nonpayable",
      "type": "function"
    },
    {
      "inputs": [
        {
          "internalType": "bytes32",
          "name": "role",
          "type": "bytes32"
        },
        {
          "internalType": "address",
          "name": "account",
          "type": "address"
        }
      ],
      "name": "revokeRole",
      "outputs": [],
      "stateMutability": "nonpayable",
      "type": "function"
    },
    {
      "inputs": [
        {
          "internalType": "uint256",
          "name": "ethAmount",
          "type": "uint256"
        }
      ],
      "name": "setPhaseFourRate",
      "outputs": [],
      "stateMutability": "nonpayable",
      "type": "function"
    },
    {
      "inputs": [
        {
          "internalType": "uint256",
          "name": "ethAmount",
          "type": "uint256"
        }
      ],
      "name": "setPhaseThreeRate",
      "outputs": [],
      "stateMutability": "nonpayable",
      "type": "function"
    },
    {
      "inputs": [
        {
          "internalType": "uint256",
          "name": "ethAmount",
          "type": "uint256"
        }
      ],
      "name": "setPhaseTwoRate",
      "outputs": [],
      "stateMutability": "nonpayable",
      "type": "function"
    },
    {
      "inputs": [
        {
          "internalType": "bytes4",
          "name": "interfaceId",
          "type": "bytes4"
        }
      ],
      "name": "supportsInterface",
      "outputs": [
        {
          "internalType": "bool",
          "name": "",
          "type": "bool"
        }
      ],
      "stateMutability": "view",
      "type": "function"
    },
    {
      "inputs": [],
      "name": "token",
      "outputs": [
        {
          "internalType": "contract IERC20Upgradeable",
          "name": "",
          "type": "address"
        }
      ],
      "stateMutability": "view",
      "type": "function"
    },
    {
      "inputs": [],
      "name": "totalSupply",
      "outputs": [
        {
          "internalType": "uint256",
          "name": "",
          "type": "uint256"
        }
      ],
      "stateMutability": "view",
      "type": "function"
    },
    {
      "inputs": [
        {
          "internalType": "address",
          "name": "recipient",
          "type": "address"
        },
        {
          "internalType": "uint256",
          "name": "amount",
          "type": "uint256"
        }
      ],
      "name": "transfer",
      "outputs": [
        {
          "internalType": "bool",
          "name": "",
          "type": "bool"
        }
      ],
      "stateMutability": "nonpayable",
      "type": "function"
    },
    {
      "inputs": [
        {
          "internalType": "address",
          "name": "sender",
          "type": "address"
        },
        {
          "internalType": "address",
          "name": "recipient",
          "type": "address"
        },
        {
          "internalType": "uint256",
          "name": "amount",
          "type": "uint256"
        }
      ],
      "name": "transferForCrowdSale",
      "outputs": [],
      "stateMutability": "nonpayable",
      "type": "function"
    },
    {
      "inputs": [
        {
          "internalType": "address",
          "name": "sender",
          "type": "address"
        },
        {
          "internalType": "address",
          "name": "recipient",
          "type": "address"
        },
        {
          "internalType": "uint256",
          "name": "amount",
          "type": "uint256"
        }
      ],
      "name": "transferFrom",
      "outputs": [
        {
          "internalType": "bool",
          "name": "",
          "type": "bool"
        }
      ],
      "stateMutability": "nonpayable",
      "type": "function"
    },
    {
      "inputs": [],
      "name": "unpauseSale",
      "outputs": [],
      "stateMutability": "nonpayable",
      "type": "function"
    },
    {
      "inputs": [
        {
          "internalType": "address",
          "name": "_signer",
          "type": "address"
        },
        {
          "internalType": "address",
          "name": "_to",
          "type": "address"
        },
        {
          "internalType": "uint256",
          "name": "_amount",
          "type": "uint256"
        },
        {
          "internalType": "string",
          "name": "_message",
          "type": "string"
        },
        {
          "internalType": "uint256",
          "name": "_nonce",
          "type": "uint256"
        },
        {
          "internalType": "bytes",
          "name": "signature",
          "type": "bytes"
        }
      ],
      "name": "verify",
      "outputs": [
        {
          "internalType": "bool",
          "name": "",
          "type": "bool"
        }
      ],
      "stateMutability": "nonpayable",
      "type": "function"
    },
    {
      "inputs": [],
      "name": "weiRaised",
      "outputs": [
        {
          "internalType": "uint256",
          "name": "",
          "type": "uint256"
        }
      ],
      "stateMutability": "view",
      "type": "function"
    },
    {
      "stateMutability": "payable",
      "type": "receive"
    }
  ],
  "bytecode": "0x608060405234801561001057600080fd5b50613bad806100206000396000f3fe6080604052600436106102535760003560e01c80630164beb2146102b857806301ffc9a7146102eb578063095ea7b31461031b57806310fe9ae81461033b57806318160ddd1461036257806321be3c401461037757806323b872dd14610397578063248a9ca3146103b7578063261dd200146103d75780632b72d084146103ec5780632c4e722e146104015780632e8e89bf146104015780632f2ff15d14610416578063337ebf8c1461043657806333c8fe231461044b57806336568abe1461046b5780633f5ed5551461048b5780634042b66f146104a05780634e3befd3146104b557806355367ba9146104ca5780637055f58b146104df57806370a08231146104f45780638129fc1c1461051457806388ddb5c314610529578063903410941461054957806391d148541461056957806397aba7f9146105895780639e777507146105a9578063a217fddf146105be578063a35f8a40146105d3578063a497db51146105f3578063a9059cbb14610613578063abe5026a14610633578063ad002b1814610653578063b5378fb514610673578063ba14dbc414610693578063bb33d729146106b3578063c023dd91146106c8578063c0efd80d146106e8578063ce6a135714610708578063d547741f1461071b578063d5bfcbc71461073b578063d610a4c41461075b578063d6b685a91461077b578063d8741ebe1461079b578063dd62ed3e146107bb578063e9bd0250146107db578063ea231728146107f0578063ea912cb914610810578063ec8ac4d814610830578063f87672dc1461083e578063fc0c546a1461033b576102aa565b366102aa5760d754604080513481526001600160a01b0390921631602083015232917f6a9afefbfb6fe7776ab4701d56156fb8eeede56b5e9267ee84cf83cadd6591c4910160405180910390a26102a861085e565b005b6102a8336108fc565b6108fc565b3480156102c457600080fd5b506102d86102d336600461334a565b6109ae565b6040519081526020015b60405180910390f35b3480156102f757600080fd5b5061030b610306366004613363565b610b07565b60405190151581526020016102e2565b34801561032757600080fd5b5061030b6103363660046133a2565b610b3e565b34801561034757600080fd5b5060d6546001600160a01b03165b6040516102e291906133ce565b34801561036e57600080fd5b506102d8610bbb565b34801561038357600080fd5b506102a86103923660046133e2565b610c2e565b3480156103a357600080fd5b5061030b6103b2366004613404565b610c6c565b3480156103c357600080fd5b506102d86103d236600461334a565b610cec565b3480156103e357600080fd5b5060e2546102d8565b3480156103f857600080fd5b506102a8610d01565b34801561040d57600080fd5b5060d9546102d8565b34801561042257600080fd5b506102a8610431366004613445565b610d7d565b34801561044257600080fd5b506102a8610d9f565b34801561045757600080fd5b506102d861046636600461334a565b610e39565b34801561047757600080fd5b506102a8610486366004613445565b610ec7565b34801561049757600080fd5b5060da546102d8565b3480156104ac57600080fd5b5060df546102d8565b3480156104c157600080fd5b5060db546102d8565b3480156104d657600080fd5b506102a8610f45565b3480156104eb57600080fd5b5060e1546102d8565b34801561050057600080fd5b506102d861050f366004613475565b610f74565b34801561052057600080fd5b506102a8610fe6565b34801561053557600080fd5b506102d861054436600461334a565b6111a7565b34801561055557600080fd5b506102a8610564366004613404565b6111b2565b34801561057557600080fd5b5061030b610584366004613445565b6111fc565b34801561059557600080fd5b506103556105a4366004613534565b611227565b3480156105b557600080fd5b5060e0546102d8565b3480156105ca57600080fd5b506102d8600081565b3480156105df57600080fd5b506102d86105ee36600461357a565b611297565b3480156105ff57600080fd5b506102a861060e3660046135da565b6112d0565b34801561061f57600080fd5b5061030b61062e3660046133a2565b61139b565b34801561063f57600080fd5b5061030b61064e366004613676565b6113ce565b34801561065f57600080fd5b506102a861066e366004613404565b61149c565b34801561067f57600080fd5b506102d861068e36600461334a565b611507565b34801561069f57600080fd5b506102d86106ae36600461334a565b611595565b3480156106bf57600080fd5b506102a86115a0565b3480156106d457600080fd5b506102a86106e336600461334a565b6115cf565b3480156106f457600080fd5b506102a861070336600461334a565b6115e5565b34801561071457600080fd5b5030610355565b34801561072757600080fd5b506102a8610736366004613445565b611621565b34801561074757600080fd5b506102a86107563660046135da565b61163e565b34801561076757600080fd5b506102a861077636600461334a565b611748565b34801561078757600080fd5b506102a861079636600461334a565b61177d565b3480156107a757600080fd5b506102a86107b636600461334a565b6117b9565b3480156107c757600080fd5b506102d86107d6366004613710565b6117f5565b3480156107e757600080fd5b506102a8611873565b3480156107fc57600080fd5b506102d861080b36600461334a565b6118e5565b34801561081c57600080fd5b506102d861082b36600461334a565b6118f0565b6102a86102b3366004613475565b34801561084a57600080fd5b506102d861085936600461334a565b6119ad565b60d7546040516000916001600160a01b03169034908381818185875af1925050503d80600081146108ab576040519150601f19603f3d011682016040523d82523d6000602084013e6108b0565b606091505b50509050806108f95760405162461bcd60e51b815260206004820152601060248201526f2a3930b739b332b9103330b4b632b21760811b60448201526064015b60405180910390fd5b50565b600260a4540361091e5760405162461bcd60e51b81526004016108f09061373e565b600260a4553461092e82826119b8565b600061093982611a0b565b90508160df54610949919061378b565b60df556109568382611a36565b60408051838152602081018390526001600160a01b0385169133917f6faf93231a456e552dbc9961f58d9713ee4f2e69d15f1975b050ef0911053a7b910160405180910390a36109a461085e565b5050600160a45550565b6000818152609d6020908152604080832081516101008101835281548152600182015493810193909352600281015491830191909152600381015483929190606083019060ff166004811115610a0657610a066137a3565b6004811115610a1757610a176137a3565b8152600382015461010090046001600160a01b03908116602083015260048301549081166040830152600160a01b900460ff1615156060820152600590910154608090910152905060005b81606001516004811115610a7857610a786137a3565b03610a865750600192915050565b600181606001516004811115610a9e57610a9e6137a3565b03610aac5750600492915050565b600281606001516004811115610ac457610ac46137a3565b03610ad25750600292915050565b600381606001516004811115610aea57610aea6137a3565b03610af85750600392915050565b50600092915050565b50919050565b60006001600160e01b03198216637965db0b60e01b1480610b3857506301ffc9a760e01b6001600160e01b03198316145b92915050565b60d65460405163095ea7b360e01b81526000916001600160a01b03169063095ea7b390610b7190869086906004016137b9565b6020604051808303816000875af1158015610b90573d6000803e3d6000fd5b505050506040513d601f19601f82011682018060405250810190610bb491906137d2565b9392505050565b60d654604080516318160ddd60e01b815290516000926001600160a01b0316916318160ddd9160048083019260209291908290030181865afa158015610c05573d6000803e3d6000fd5b505050506040513d601f19601f82011682018060405250810190610c2991906137f4565b905090565b600260a45403610c505760405162461bcd60e51b81526004016108f09061373e565b600260a455609854610c628133611a40565b6109a48383611aa4565b60d6546040516323b872dd60e01b81526000916001600160a01b0316906323b872dd90610ca19087908790879060040161380d565b6020604051808303816000875af1158015610cc0573d6000803e3d6000fd5b505050506040513d601f19601f82011682018060405250810190610ce491906137d2565b509392505050565b60009081526065602052604090206001015490565b610d0d609854336111fc565b610d295760405162461bcd60e51b81526004016108f090613845565b60de54600103610d3857600080fd5b60db54600314610d4757600080fd5b600160de55610d54610f45565b610d5e603260d955565b610d6960e25460da55565b610d73600460db55565b610d7b6115a0565b565b610d8682610cec565b610d908133611a40565b610d9a8383611be2565b505050565b610dab609854336111fc565b610dc75760405162461bcd60e51b81526004016108f090613845565b60dc54600103610dfe5760405162461bcd60e51b8152602060048201526002602482015261209760f11b60448201526064016108f0565b60db54600114610e0d57600080fd5b600160dc55610e1a610f45565b610e24600960d955565b610e2f60e05460da55565b610d73600260db55565b6000818152609c60209081526040808320815160c08101835281548152600182015493810193909352600281015491830191909152600381015483929190606083019060ff166004811115610e9057610e906137a3565b6004811115610ea157610ea16137a3565b81526004820154602082015260059091015460ff16151560409091015290506000610a62565b6001600160a01b0381163314610f375760405162461bcd60e51b815260206004820152602f60248201527f416363657373436f6e74726f6c3a2063616e206f6e6c792072656e6f756e636560448201526e103937b632b9903337b91039b2b63360891b60648201526084016108f0565b610f418282611c68565b5050565b610f51609854336111fc565b610f6d5760405162461bcd60e51b81526004016108f090613845565b600160e355565b60d6546040516370a0823160e01b81526000916001600160a01b0316906370a0823190610fa59085906004016133ce565b602060405180830381865afa158015610fc2573d6000803e3d6000fd5b505050506040513d601f19601f82011682018060405250810190610b3891906137f4565b600054610100900460ff166110015760005460ff1615611005565b303b155b6110685760405162461bcd60e51b815260206004820152602e60248201527f496e697469616c697a61626c653a20636f6e747261637420697320616c72656160448201526d191e481a5b9a5d1a585b1a5e995960921b60648201526084016108f0565b600054610100900460ff1615801561108a576000805461ffff19166101011790555b60e4541561109757600080fd5b600160e4556110a4611ccf565b6110ac611d7a565b6110b4611da9565b60c860da556110c3600160db55565b600560d95560d880546001600160a01b031990811673920bf81087c296d57b4f7f5fcfd96ca71582f06690811790925560d78054821690921790915560d68054909116731d036bbb3535a112186103a51a93b452307ebd30179055611129600032611dd8565b611135609a5432611dd8565b61114160995432611be2565b6111616098547360a7a4ce65e314642991c46bed7c1845588f6cd0611dd8565b611181609854736188b15bae64416d779560d302546e5de15e5d1e611dd8565b61025860e055610fa060e155614e2060e25580156108f9576000805461ff001916905550565b6000610b38826118f0565b600260a454036111d45760405162461bcd60e51b81526004016108f09061373e565b600260a4556098546111e68133611a40565b6111f1848484611de2565b5050600160a4555050565b60009182526065602090815260408084206001600160a01b0393909316845291905290205460ff1690565b600080611280846040517b0ca2ba3432b932bab69029b4b3b732b21026b2b9b9b0b3b29d05199960211b6020820152603c8101829052600090605c01604051602081830303815290604052805190602001209050919050565b9050600061128e8285611fd4565b95945050505050565b6000848484846040516020016112b094939291906138b3565b604051602081830303815290604052805190602001209050949350505050565b600260a454036112f25760405162461bcd60e51b81526004016108f09061373e565b600260a4556098546113048133611a40565b609f546001600160a01b0316320361134857609f54611330906001600160a01b031687878787876113ce565b151560011461133e57600080fd5b6113488789611ff0565b60a1546001600160a01b0316320361138c5760a154611374906001600160a01b031687878787876113ce565b151560011461138257600080fd5b61138c878961213a565b5050600160a455505050505050565b60d65460405163a9059cbb60e01b81526000916001600160a01b03169063a9059cbb90610b7190869086906004016137b9565b6000806113dd87878787611297565b905060005b32600090815260e560205260409020548110156114445732600090815260e56020526040902080548391908390811061141d5761141d6138eb565b90600052602060002001540361143257600080fd5b8061143c81613901565b9150506113e2565b506000886001600160a01b031661145b8386611227565b6001600160a01b031614905080156114905732600090815260e560209081526040822080546001810182559083529120018290555b98975050505050505050565b60d6546040516315a0056360e31b81526001600160a01b039091169063ad002b18906114d09086908690869060040161380d565b600060405180830381600087803b1580156114ea57600080fd5b505af11580156114fe573d6000803e3d6000fd5b50505050505050565b6000818152609c60209081526040808320815160c08101835281548152600182015493810193909352600281015491830191909152600381015483929190606083019060ff16600481111561155e5761155e6137a3565b600481111561156f5761156f6137a3565b81526004820154602082015260059091015460ff16151560409182015201519392505050565b6000610b3882611507565b6115ac609854336111fc565b6115c85760405162461bcd60e51b81526004016108f090613845565b600060e355565b6098546115dc8133611a40565b610f418261228e565b6115f1609854336111fc565b61160d5760405162461bcd60e51b81526004016108f090613845565b60db5460021461161c57600080fd5b60e155565b61162a82610cec565b6116348133611a40565b610d9a8383611c68565b600260a454036116605760405162461bcd60e51b81526004016108f09061373e565b600260a4556098546116728133611a40565b609f546001600160a01b031632036116dd57609f5461169e906001600160a01b031687878787876113ce565b15156001146116d35760405162461bcd60e51b81526020600482015260016024820152604f60f81b60448201526064016108f0565b6116dd87896124e8565b60a1546001600160a01b0316320361138c5760a154611709906001600160a01b031687878787876113ce565b151560011461173e5760405162461bcd60e51b81526020600482015260016024820152601560fa1b60448201526064016108f0565b61138c8789612664565b6098546117558133611a40565b61175e8261278c565b600103610f4157506000908152609c602052604090206004015460da55565b611789609854336111fc565b6117a55760405162461bcd60e51b81526004016108f090613845565b60db546001146117b457600080fd5b60e055565b6117c5609854336111fc565b6117e15760405162461bcd60e51b81526004016108f090613845565b60db546003146117f057600080fd5b60e255565b60d654604051636eb1769f60e11b81526001600160a01b0384811660048301528381166024830152600092169063dd62ed3e90604401602060405180830381865afa158015611848573d6000803e3d6000fd5b505050506040513d601f19601f8201168201806040525081019061186c91906137f4565b5092915050565b61187f609854336111fc565b61189b5760405162461bcd60e51b81526004016108f090613845565b60dd546001036118aa57600080fd5b600160dd5560db546002146118be57600080fd5b6118c6610f45565b6118d0602460d955565b6118db60e15460da55565b610d73600360db55565b6000610b3882610e39565b6000818152609d6020908152604080832081516101008101835281548152600182015493810193909352600281015491830191909152600381015483929190606083019060ff166004811115611948576119486137a3565b6004811115611959576119596137a3565b8152600382015461010090046001600160a01b0390811660208301526004830154908116604080840191909152600160a01b90910460ff161515606083015260059092015460809091015201519392505050565b6000610b38826109ae565b6001600160a01b0382166119de5760405162461bcd60e51b81526004016108f09061391a565b806000036119fe5760405162461bcd60e51b81526004016108f090613935565b60e35415610f4157600080fd5b600060da5460d954633b9aca00611a229190613950565b611a2c919061396f565b610b389083613950565b610f418282612888565b611a4a82826111fc565b610f4157611a62816001600160a01b031660146128f6565b611a6d8360206128f6565b604051602001611a7e929190613991565b60408051601f198184030181529082905262461bcd60e51b82526108f091600401613a00565b609c600060a2546001611ab7919061378b565b815260208101919091526040016000206005015460ff1615611ad857600080fd5b6040805160c08101825260008082526020820152908101829052606081016004815260200183815260200160011515815250609c600060a260008154611b1d90613901565b919050819055815260200190815260200160002060008201518160000155602082015181600101556040820151816002015560608201518160030160006101000a81548160ff02191690836004811115611b7957611b796137a3565b02179055506080820151600482015560a0909101516005909101805460ff191691151591909117905560a25460405133917fc8bbe60ba34926582e06dd64c46dd0b73ffc5b96231ac64223f8dcfcdf90096291611bd69190613a13565b60405180910390a25050565b611bec82826111fc565b610f415760008281526065602090815260408083206001600160a01b03851684529091529020805460ff19166001179055611c243390565b6001600160a01b0316816001600160a01b0316837f2f8788117e7eff1d82e926ec794901d17c78024a50270940304540a733656f0d60405160405180910390a45050565b611c7282826111fc565b15610f415760008281526065602090815260408083206001600160a01b0385168085529252808320805460ff1916905551339285917ff6391f5c32d9c69d2a47ea670b442974b53935d1edc7fd64eb21e047a839171b9190a45050565b600054610100900460ff16611cf65760405162461bcd60e51b81526004016108f090613a2b565b611cfe612a91565b611d3660405180604001604052806002815260200161464f60f01b8152507360a7a4ce65e314642991c46bed7c1845588f6cd0612b53565b611d6e60405180604001604052806002815260200161119560f21b815250736188b15bae64416d779560d302546e5de15e5d1e612c08565b600060a281905560a355565b600054610100900460ff16611da15760405162461bcd60e51b81526004016108f090613a2b565b610d7b612c8f565b600054610100900460ff16611dd05760405162461bcd60e51b81526004016108f090613a2b565b610d7b612cb6565b610f418282611be2565b609f546001600160a01b0384811691161480611e0b575060a1546001600160a01b038481169116145b80611e2357506097546001600160a01b038481169116145b611e2c57600080fd5b609d600060a3546001611e3f919061378b565b8152602081019190915260400160002060040154600160a01b900460ff1615611e6757600080fd5b6040805161010081018252600080825260208201529081018290526060810160048152602001846001600160a01b03168152602001836001600160a01b0316815260200160011515815260200142815250609d600060a360008154611ecb90613901565b919050819055815260200190815260200160002060008201518160000155602082015181600101556040820151816002015560608201518160030160006101000a81548160ff02191690836004811115611f2757611f276137a3565b02179055506080820151600382018054610100600160a81b0319166101006001600160a01b039384160217905560a083015160048301805460c0860151929093166001600160a81b031990931692909217600160a01b9115159190910217905560e09091015160059091015560a35460405133917f6ceccc91da1789e8e61ce3484744a0de0898e22dc9e6f8864985d5a48b64dd2d91611fc79190613a13565b60405180910390a2505050565b6000806000611fe38585612ce4565b91509150610ce481612d52565b6000818152609d60209081526040808320815161010081018352815481526001820154938101939093526002810154918301919091526003810154606083019060ff166004811115612044576120446137a3565b6004811115612055576120556137a3565b8152600382015461010090046001600160a01b03908116602083015260048301549081166040830152600160a01b900460ff161515606082015260059091015460809091015290506001816060015160048111156120b5576120b56137a3565b036120bf57600080fd5b6004816060015160048111156120d7576120d76137a3565b036120f6576000828152609d60205260409020600301805460ff191690555b82600114612120576000828152609d60205260408120848155600301805460ff1916600117905580fd5b82600103610d9a57506000908152609d6020526040902055565b6000818152609d60209081526040808320815161010081018352815481526001820154938101939093526002810154918301919091526003810154606083019060ff16600481111561218e5761218e6137a3565b600481111561219f5761219f6137a3565b8152600382015461010090046001600160a01b03908116602083015260048301549081166040830152600160a01b900460ff161515606082015260059091015460809091015290506001816060015160048111156121ff576121ff6137a3565b0361220957600080fd5b600481606001516004811115612221576122216137a3565b03612240576000828152609d60205260409020600301805460ff191690555b82600114612271576000828152609d6020526040812060018082018690556003909101805460ff1916909117905580fd5b82600103610d9a57506000908152609d6020526040902060010155565b61229781612f03565b6000818152609d60209081526040808320815161010081018352815481526001820154938101939093526002810154918301919091526003810154606083019060ff1660048111156122eb576122eb6137a3565b60048111156122fc576122fc6137a3565b8152600382015461010090046001600160a01b03908116602083015260048301549081166040830152600160a01b900460ff1615156060820152600590910154608090910152905060028160600151600481111561235c5761235c6137a3565b146123795760405162461bcd60e51b81526004016108f09061391a565b6080810151609f546001600160a01b039182169116036123de5760a0810151609f80546001600160a01b0319166001600160a01b0390921691909117905560985460808201516123c99190611c68565b6123d96098548260a00151611be2565b6124c2565b608081015160a1546001600160a01b0391821691160361242e5760a081015160a180546001600160a01b0319166001600160a01b0390921691909117905560985460808201516123c99190611c68565b60808101516097546001600160a01b039182169116036124c2576124586099548260a00151611be2565b612468609a548260a00151611be2565b6124796000801b8260a00151611be2565b609754609954612491916001600160a01b0316611c68565b609a546097546124aa91906001600160a01b0316611c68565b6097546124c2906000906001600160a01b0316611c68565b6000828152609d602052604090206003908101805460ff19166001835b02179055505050565b6000818152609c60209081526040808320815160c081018352815481526001820154938101939093526002810154918301919091526003810154606083019060ff16600481111561253b5761253b6137a3565b600481111561254c5761254c6137a3565b81526004820154602082015260059091015460ff1615156040909101529050600181606001516004811115612583576125836137a3565b036125a05760405162461bcd60e51b81526004016108f090613845565b6004816060015160048111156125b8576125b86137a3565b036125c557600060608201525b826001146125d857828152600160608201525b826001036125e4578281525b6000828152609c602090815260409182902083518155908301516001808301919091559183015160028201556060830151600382018054859460ff1990911690836004811115612636576126366137a3565b02179055506080820151600482015560a0909101516005909101805460ff1916911515919091179055505050565b6000818152609c60209081526040808320815160c081018352815481526001820154938101939093526002810154918301919091526003810154606083019060ff1660048111156126b7576126b76137a3565b60048111156126c8576126c86137a3565b81526004820154602082015260059091015460ff16151560409091015290506001816060015160048111156126ff576126ff6137a3565b0361270957600080fd5b600481606001516004811115612721576127216137a3565b03612740576000828152609c60205260409020600301805460ff191690555b8260011461276f576000828152609c6020526040902060018082018590556003909101805460ff191690911790555b82600103610d9a57506000908152609c6020526040902060010155565b600061279782613070565b6000828152609c60209081526040808320815160c081018352815481526001820154938101939093526002810154918301919091526003810154606083019060ff1660048111156127ea576127ea6137a3565b60048111156127fb576127fb6137a3565b81526004820154602082015260059091015460ff1615156040909101529050600281606001516004811115612832576128326137a3565b146128635760405162461bcd60e51b81526020600482015260016024820152602160f81b60448201526064016108f0565b50506000908152609c602052604090206003908101805460ff19169091179055600190565b60d6546097546040516315a0056360e31b81526001600160a01b039283169263ad002b18926128c0929116908690869060040161380d565b600060405180830381600087803b1580156128da57600080fd5b505af11580156128ee573d6000803e3d6000fd5b505050505050565b60606000612905836002613950565b61291090600261378b565b6001600160401b0381111561292757612927613492565b6040519080825280601f01601f191660200182016040528015612951576020820181803683370190505b509050600360fc1b8160008151811061296c5761296c6138eb565b60200101906001600160f81b031916908160001a905350600f60fb1b8160018151811061299b5761299b6138eb565b60200101906001600160f81b031916908160001a90535060006129bf846002613950565b6129ca90600161378b565b90505b6001811115612a42576f181899199a1a9b1b9c1cb0b131b232b360811b85600f16601081106129fe576129fe6138eb565b1a60f81b828281518110612a1457612a146138eb565b60200101906001600160f81b031916908160001a90535060049490941c93612a3b81613a76565b90506129cd565b508315610bb45760405162461bcd60e51b815260206004820181905260248201527f537472696e67733a20686578206c656e67746820696e73756666696369656e7460448201526064016108f0565b600054610100900460ff16612ab85760405162461bcd60e51b81526004016108f090613a2b565b612ac0613168565b609780546001600160a01b03191672d807590d776ba30db945c775aeed85abfa70201790557f113bac760dd15bcd3c0bf58729b918d82272f5e85555a9483adfb8bf971ea5606098557f2c491a21539f3b76877d9247711454585c2597d9e9965e8f2fbaa808ab73a66a6099557fcfbe48b0b844784ff677a2e9ca6a1e075b5da95a8ba979fb754fd608d476b82b609b55565b60408051808201825260018152604f60f81b602090910152517fc669aa98d5975cc43653c879a18d9bc4aa8bf51e69f61aeb1d7769216f98009a90612b9a90609e90613ac1565b604051809103902014610f4157604080518082019091528281526001600160a01b0382166020808301919091528351609e91612bda9183918701906132b1565b5060209190910151600190910180546001600160a01b0319166001600160a01b039092169190911790555050565b60408051808201825260018152601560fa1b602090910152517f846b7b6deb1cfa110d0ea7ec6162a7123b761785528db70cceed5143183b11fc90612c4f9060a090613ac1565b604051809103902014610f4157604080518082019091528281526001600160a01b038216602080830191909152835160a091612bda9183918701906132b1565b600054610100900460ff16610d7b5760405162461bcd60e51b81526004016108f090613a2b565b600054610100900460ff16612cdd5760405162461bcd60e51b81526004016108f090613a2b565b600160a455565b6000808251604103612d1a5760208301516040840151606085015160001a612d0e8782858561319f565b94509450505050612d4b565b8251604003612d435760208301516040840151612d38868383613282565b935093505050612d4b565b506000905060025b9250929050565b6000816004811115612d6657612d666137a3565b03612d6e5750565b6001816004811115612d8257612d826137a3565b03612dca5760405162461bcd60e51b815260206004820152601860248201527745434453413a20696e76616c6964207369676e617475726560401b60448201526064016108f0565b6002816004811115612dde57612dde6137a3565b03612e2b5760405162461bcd60e51b815260206004820152601f60248201527f45434453413a20696e76616c6964207369676e6174757265206c656e6774680060448201526064016108f0565b6003816004811115612e3f57612e3f6137a3565b03612e975760405162461bcd60e51b815260206004820152602260248201527f45434453413a20696e76616c6964207369676e6174757265202773272076616c604482015261756560f01b60648201526084016108f0565b6004816004811115612eab57612eab6137a3565b036108f95760405162461bcd60e51b815260206004820152602260248201527f45434453413a20696e76616c6964207369676e6174757265202776272076616c604482015261756560f01b60648201526084016108f0565b6000818152609d60209081526040808320815161010081018352815481526001820154938101939093526002810154918301919091526003810154606083019060ff166004811115612f5757612f576137a3565b6004811115612f6857612f686137a3565b8152600382015461010090046001600160a01b03908116602083015260048301549081166040830152600160a01b900460ff16151560608201526005909101546080909101529050600181606001516004811115612fc857612fc86137a3565b03612fe55760405162461bcd60e51b81526004016108f090613935565b60e0810151612ff79062278d0061378b565b42101561304d576020810151815161300f919061378b565b60021461302e5760405162461bcd60e51b81526004016108f090613b5c565b506000908152609d60205260409020600301805460ff19166002179055565b6000828152609d6020526040902060030180546002919060ff19166001836124df565b6000818152609c60209081526040808320815160c081018352815481526001820154938101939093526002810154918301919091526003810154606083019060ff1660048111156130c3576130c36137a3565b60048111156130d4576130d46137a3565b81526004820154602082015260059091015460ff161515604090910152905060018160600151600481111561310b5761310b6137a3565b0361311557600080fd5b60208101518151613126919061378b565b6002146131455760405162461bcd60e51b81526004016108f090613b5c565b6000828152609c6020526040902060030180546002919060ff19166001836124df565b600054610100900460ff1661318f5760405162461bcd60e51b81526004016108f090613a2b565b613197612c8f565b611da1612c8f565b6000806fa2a8918ca85bafe22016d0b997e4df60600160ff1b038311156131cc5750600090506003613279565b8460ff16601b141580156131e457508460ff16601c14155b156131f55750600090506004613279565b6040805160008082526020820180845289905260ff881692820192909252606081018690526080810185905260019060a0016020604051602081039080840390855afa158015613249573d6000803e3d6000fd5b5050604051601f1901519150506001600160a01b03811661327257600060019250925050613279565b9150600090505b94509492505050565b6000806001600160ff1b03831660ff84901c601b016132a38782888561319f565b935093505050935093915050565b8280546132bd90613a8d565b90600052602060002090601f0160209004810192826132df5760008555613325565b82601f106132f857805160ff1916838001178555613325565b82800160010185558215613325579182015b8281111561332557825182559160200191906001019061330a565b50613331929150613335565b5090565b5b808211156133315760008155600101613336565b60006020828403121561335c57600080fd5b5035919050565b60006020828403121561337557600080fd5b81356001600160e01b031981168114610bb457600080fd5b6001600160a01b03811681146108f957600080fd5b600080604083850312156133b557600080fd5b82356133c08161338d565b946020939093013593505050565b6001600160a01b0391909116815260200190565b600080604083850312156133f557600080fd5b50508035926020909101359150565b60008060006060848603121561341957600080fd5b83356134248161338d565b925060208401356134348161338d565b929592945050506040919091013590565b6000806040838503121561345857600080fd5b82359150602083013561346a8161338d565b809150509250929050565b60006020828403121561348757600080fd5b8135610bb48161338d565b634e487b7160e01b600052604160045260246000fd5b600082601f8301126134b957600080fd5b81356001600160401b03808211156134d3576134d3613492565b604051601f8301601f19908116603f011681019082821181831017156134fb576134fb613492565b8160405283815286602085880101111561351457600080fd5b836020870160208301376000602085830101528094505050505092915050565b6000806040838503121561354757600080fd5b8235915060208301356001600160401b0381111561356457600080fd5b613570858286016134a8565b9150509250929050565b6000806000806080858703121561359057600080fd5b843561359b8161338d565b93506020850135925060408501356001600160401b038111156135bd57600080fd5b6135c9878288016134a8565b949793965093946060013593505050565b600080600080600080600060e0888a0312156135f557600080fd5b8735965060208801359550604088013561360e8161338d565b94506060880135935060808801356001600160401b038082111561363157600080fd5b61363d8b838c016134a8565b945060a08a0135935060c08a013591508082111561365a57600080fd5b506136678a828b016134a8565b91505092959891949750929550565b60008060008060008060c0878903121561368f57600080fd5b863561369a8161338d565b955060208701356136aa8161338d565b94506040870135935060608701356001600160401b03808211156136cd57600080fd5b6136d98a838b016134a8565b94506080890135935060a08901359150808211156136f657600080fd5b5061370389828a016134a8565b9150509295509295509295565b6000806040838503121561372357600080fd5b823561372e8161338d565b9150602083013561346a8161338d565b6020808252601f908201527f5265656e7472616e637947756172643a207265656e7472616e742063616c6c00604082015260600190565b634e487b7160e01b600052601160045260246000fd5b6000821982111561379e5761379e613775565b500190565b634e487b7160e01b600052602160045260246000fd5b6001600160a01b03929092168252602082015260400190565b6000602082840312156137e457600080fd5b81518015158114610bb457600080fd5b60006020828403121561380657600080fd5b5051919050565b6001600160a01b039384168152919092166020820152604081019190915260600190565b60018152604360f81b602082015260400190565b602081526000610b3860208301613831565b60005b8381101561387257818101518382015260200161385a565b83811115613881576000848401525b50505050565b6000815180845261389f816020860160208601613857565b601f01601f19169290920160200192915050565b60018060a01b03851681528360208201526080604082015260006138da6080830185613887565b905082606083015295945050505050565b634e487b7160e01b600052603260045260246000fd5b60006001820161391357613913613775565b5060010190565b6020808252600190820152600360fc1b604082015260600190565b6020808252600190820152603160f81b604082015260600190565b600081600019048311821515161561396a5761396a613775565b500290565b60008261398c57634e487b7160e01b600052601260045260246000fd5b500490565b76020b1b1b2b9b9a1b7b73a3937b61d1030b1b1b7bab73a1604d1b8152600083516139c3816017850160208801613857565b7001034b99036b4b9b9b4b733903937b6329607d1b60179184019182015283516139f4816028840160208801613857565b01602801949350505050565b602081526000610bb46020830184613887565b818152604060208201526000610bb460408301613831565b6020808252602b908201527f496e697469616c697a61626c653a20636f6e7472616374206973206e6f74206960408201526a6e697469616c697a696e6760a81b606082015260800190565b600081613a8557613a85613775565b506000190190565b600181811c90821680613aa157607f821691505b602082108103610b0157634e487b7160e01b600052602260045260246000fd5b600080835481600182811c915080831680613add57607f831692505b60208084108203613afc57634e487b7160e01b86526022600452602486fd5b818015613b105760018114613b2157613b4e565b60ff19861689528489019650613b4e565b60008a81526020902060005b86811015613b465781548b820152908501908301613b2d565b505084890196505b509498975050505050505050565b6020808252600190820152602760f91b60408201526060019056fea2646970667358221220cfda2b3ee47f1be6ca13c6832744fc5b070ac12b42758db39eb1009c437c3ee864736f6c634300080d0033",
  "linkReferences": {},
  "deployedLinkReferences": {}
}