{
  "_format": "hh-sol-artifact-1",
  "contractName": "obscurityDAO",
  "sourceName": "contracts/obscurityDAO.sol",
  "abi": [
    {
      "anonymous": false,
      "inputs": [
        {
          "indexed": false,
          "internalType": "address",
          "name": "previousAdmin",
          "type": "address"
        },
        {
          "indexed": false,
          "internalType": "address",
          "name": "newAdmin",
          "type": "address"
        }
      ],
      "name": "AdminChanged",
      "type": "event"
    },
    {
      "anonymous": false,
      "inputs": [
        {
          "indexed": true,
          "internalType": "address",
          "name": "owner",
          "type": "address"
        },
        {
          "indexed": true,
          "internalType": "address",
          "name": "spender",
          "type": "address"
        },
        {
          "indexed": false,
          "internalType": "uint256",
          "name": "value",
          "type": "uint256"
        }
      ],
      "name": "Approval",
      "type": "event"
    },
    {
      "anonymous": false,
      "inputs": [
        {
          "indexed": true,
          "internalType": "address",
          "name": "beacon",
          "type": "address"
        }
      ],
      "name": "BeaconUpgraded",
      "type": "event"
    },
    {
      "anonymous": false,
      "inputs": [
        {
          "indexed": false,
          "internalType": "address",
          "name": "account",
          "type": "address"
        }
      ],
      "name": "Paused",
      "type": "event"
    },
    {
      "anonymous": false,
      "inputs": [
        {
          "indexed": true,
          "internalType": "bytes32",
          "name": "role",
          "type": "bytes32"
        },
        {
          "indexed": true,
          "internalType": "bytes32",
          "name": "previousAdminRole",
          "type": "bytes32"
        },
        {
          "indexed": true,
          "internalType": "bytes32",
          "name": "newAdminRole",
          "type": "bytes32"
        }
      ],
      "name": "RoleAdminChanged",
      "type": "event"
    },
    {
      "anonymous": false,
      "inputs": [
        {
          "indexed": true,
          "internalType": "bytes32",
          "name": "role",
          "type": "bytes32"
        },
        {
          "indexed": true,
          "internalType": "address",
          "name": "account",
          "type": "address"
        },
        {
          "indexed": true,
          "internalType": "address",
          "name": "sender",
          "type": "address"
        }
      ],
      "name": "RoleGranted",
      "type": "event"
    },
    {
      "anonymous": false,
      "inputs": [
        {
          "indexed": true,
          "internalType": "bytes32",
          "name": "role",
          "type": "bytes32"
        },
        {
          "indexed": true,
          "internalType": "address",
          "name": "account",
          "type": "address"
        },
        {
          "indexed": true,
          "internalType": "address",
          "name": "sender",
          "type": "address"
        }
      ],
      "name": "RoleRevoked",
      "type": "event"
    },
    {
      "anonymous": false,
      "inputs": [
        {
          "indexed": true,
          "internalType": "address",
          "name": "_from",
          "type": "address"
        },
        {
          "indexed": false,
          "internalType": "uint256",
          "name": "_id",
          "type": "uint256"
        },
        {
          "indexed": false,
          "internalType": "string",
          "name": "_value",
          "type": "string"
        }
      ],
      "name": "SwapAddressProposalCreated",
      "type": "event"
    },
    {
      "anonymous": false,
      "inputs": [
        {
          "indexed": true,
          "internalType": "address",
          "name": "from",
          "type": "address"
        },
        {
          "indexed": true,
          "internalType": "address",
          "name": "to",
          "type": "address"
        },
        {
          "indexed": false,
          "internalType": "uint256",
          "name": "value",
          "type": "uint256"
        }
      ],
      "name": "Transfer",
      "type": "event"
    },
    {
      "anonymous": false,
      "inputs": [
        {
          "indexed": false,
          "internalType": "address",
          "name": "account",
          "type": "address"
        }
      ],
      "name": "Unpaused",
      "type": "event"
    },
    {
      "anonymous": false,
      "inputs": [
        {
          "indexed": true,
          "internalType": "address",
          "name": "implementation",
          "type": "address"
        }
      ],
      "name": "Upgraded",
      "type": "event"
    },
    {
      "inputs": [],
      "name": "DEFAULT_ADMIN_ROLE",
      "outputs": [
        {
          "internalType": "bytes32",
          "name": "",
          "type": "bytes32"
        }
      ],
      "stateMutability": "view",
      "type": "function"
    },
    {
      "inputs": [
        {
          "internalType": "address",
          "name": "owner",
          "type": "address"
        },
        {
          "internalType": "address",
          "name": "spender",
          "type": "address"
        }
      ],
      "name": "allowance",
      "outputs": [
        {
          "internalType": "uint256",
          "name": "",
          "type": "uint256"
        }
      ],
      "stateMutability": "view",
      "type": "function"
    },
    {
      "inputs": [
        {
          "internalType": "address",
          "name": "spender",
          "type": "address"
        },
        {
          "internalType": "uint256",
          "name": "amount",
          "type": "uint256"
        }
      ],
      "name": "approve",
      "outputs": [
        {
          "internalType": "bool",
          "name": "",
          "type": "bool"
        }
      ],
      "stateMutability": "nonpayable",
      "type": "function"
    },
    {
      "inputs": [
        {
          "internalType": "address",
          "name": "account",
          "type": "address"
        }
      ],
      "name": "balanceOf",
      "outputs": [
        {
          "internalType": "uint256",
          "name": "",
          "type": "uint256"
        }
      ],
      "stateMutability": "view",
      "type": "function"
    },
    {
      "inputs": [
        {
          "internalType": "uint256",
          "name": "proposalID",
          "type": "uint256"
        }
      ],
      "name": "completeAddrTransferProposal",
      "outputs": [],
      "stateMutability": "nonpayable",
      "type": "function"
    },
    {
      "inputs": [
        {
          "internalType": "uint256",
          "name": "proposalID",
          "type": "uint256"
        },
        {
          "internalType": "address payable",
          "name": "oldAddr",
          "type": "address"
        },
        {
          "internalType": "address payable",
          "name": "newAddr",
          "type": "address"
        },
        {
          "internalType": "bytes32",
          "name": "desc",
          "type": "bytes32"
        }
      ],
      "name": "createAddrTransferProposal",
      "outputs": [],
      "stateMutability": "nonpayable",
      "type": "function"
    },
    {
      "inputs": [],
      "name": "decimals",
      "outputs": [
        {
          "internalType": "uint8",
          "name": "",
          "type": "uint8"
        }
      ],
      "stateMutability": "view",
      "type": "function"
    },
    {
      "inputs": [
        {
          "internalType": "address",
          "name": "spender",
          "type": "address"
        },
        {
          "internalType": "uint256",
          "name": "subtractedValue",
          "type": "uint256"
        }
      ],
      "name": "decreaseAllowance",
      "outputs": [
        {
          "internalType": "bool",
          "name": "",
          "type": "bool"
        }
      ],
      "stateMutability": "nonpayable",
      "type": "function"
    },
    {
      "inputs": [
        {
          "internalType": "uint256",
          "name": "proposalID",
          "type": "uint256"
        },
        {
          "internalType": "uint256",
          "name": "vote",
          "type": "uint256"
        },
        {
          "internalType": "address",
          "name": "to",
          "type": "address"
        },
        {
          "internalType": "uint256",
          "name": "amount",
          "type": "uint256"
        },
        {
          "internalType": "string",
          "name": "message",
          "type": "string"
        },
        {
          "internalType": "uint256",
          "name": "nonce",
          "type": "uint256"
        },
        {
          "internalType": "bytes",
          "name": "signature",
          "type": "bytes"
        }
      ],
      "name": "founderAddrVote",
      "outputs": [],
      "stateMutability": "nonpayable",
      "type": "function"
    },
    {
      "inputs": [
        {
          "internalType": "uint256",
          "name": "proposalID",
          "type": "uint256"
        }
      ],
      "name": "gPSwapState",
      "outputs": [
        {
          "internalType": "uint256",
          "name": "",
          "type": "uint256"
        }
      ],
      "stateMutability": "view",
      "type": "function"
    },
    {
      "inputs": [
        {
          "internalType": "uint256",
          "name": "proposalID",
          "type": "uint256"
        }
      ],
      "name": "getAddrPState",
      "outputs": [
        {
          "internalType": "uint256",
          "name": "",
          "type": "uint256"
        }
      ],
      "stateMutability": "view",
      "type": "function"
    },
    {
      "inputs": [
        {
          "internalType": "address",
          "name": "_to",
          "type": "address"
        },
        {
          "internalType": "uint256",
          "name": "_amount",
          "type": "uint256"
        },
        {
          "internalType": "string",
          "name": "_message",
          "type": "string"
        },
        {
          "internalType": "uint256",
          "name": "_nonce",
          "type": "uint256"
        }
      ],
      "name": "getMessageHash",
      "outputs": [
        {
          "internalType": "bytes32",
          "name": "",
          "type": "bytes32"
        }
      ],
      "stateMutability": "pure",
      "type": "function"
    },
    {
      "inputs": [
        {
          "internalType": "bytes32",
          "name": "role",
          "type": "bytes32"
        }
      ],
      "name": "getRoleAdmin",
      "outputs": [
        {
          "internalType": "bytes32",
          "name": "",
          "type": "bytes32"
        }
      ],
      "stateMutability": "view",
      "type": "function"
    },
    {
      "inputs": [
        {
          "internalType": "bytes32",
          "name": "role",
          "type": "bytes32"
        },
        {
          "internalType": "address",
          "name": "account",
          "type": "address"
        }
      ],
      "name": "grantRole",
      "outputs": [],
      "stateMutability": "nonpayable",
      "type": "function"
    },
    {
      "inputs": [
        {
          "internalType": "bytes32",
          "name": "role",
          "type": "bytes32"
        },
        {
          "internalType": "address",
          "name": "account",
          "type": "address"
        }
      ],
      "name": "hasRole",
      "outputs": [
        {
          "internalType": "bool",
          "name": "",
          "type": "bool"
        }
      ],
      "stateMutability": "view",
      "type": "function"
    },
    {
      "inputs": [
        {
          "internalType": "address",
          "name": "spender",
          "type": "address"
        },
        {
          "internalType": "uint256",
          "name": "addedValue",
          "type": "uint256"
        }
      ],
      "name": "increaseAllowance",
      "outputs": [
        {
          "internalType": "bool",
          "name": "",
          "type": "bool"
        }
      ],
      "stateMutability": "nonpayable",
      "type": "function"
    },
    {
      "inputs": [],
      "name": "initialize",
      "outputs": [],
      "stateMutability": "nonpayable",
      "type": "function"
    },
    {
      "inputs": [
        {
          "internalType": "address",
          "name": "to",
          "type": "address"
        },
        {
          "internalType": "uint256",
          "name": "amount",
          "type": "uint256"
        }
      ],
      "name": "mint",
      "outputs": [],
      "stateMutability": "nonpayable",
      "type": "function"
    },
    {
      "inputs": [],
      "name": "name",
      "outputs": [
        {
          "internalType": "string",
          "name": "",
          "type": "string"
        }
      ],
      "stateMutability": "view",
      "type": "function"
    },
    {
      "inputs": [],
      "name": "pause",
      "outputs": [],
      "stateMutability": "nonpayable",
      "type": "function"
    },
    {
      "inputs": [],
      "name": "paused",
      "outputs": [
        {
          "internalType": "bool",
          "name": "",
          "type": "bool"
        }
      ],
      "stateMutability": "view",
      "type": "function"
    },
    {
      "inputs": [
        {
          "internalType": "bytes32",
          "name": "msgHash",
          "type": "bytes32"
        },
        {
          "internalType": "bytes",
          "name": "_signature",
          "type": "bytes"
        }
      ],
      "name": "recoverSigner",
      "outputs": [
        {
          "internalType": "address",
          "name": "",
          "type": "address"
        }
      ],
      "stateMutability": "pure",
      "type": "function"
    },
    {
      "inputs": [
        {
          "internalType": "bytes32",
          "name": "role",
          "type": "bytes32"
        },
        {
          "internalType": "address",
          "name": "account",
          "type": "address"
        }
      ],
      "name": "renounceRole",
      "outputs": [],
      "stateMutability": "nonpayable",
      "type": "function"
    },
    {
      "inputs": [
        {
          "internalType": "bytes32",
          "name": "role",
          "type": "bytes32"
        },
        {
          "internalType": "address",
          "name": "account",
          "type": "address"
        }
      ],
      "name": "revokeRole",
      "outputs": [],
      "stateMutability": "nonpayable",
      "type": "function"
    },
    {
      "inputs": [
        {
          "internalType": "address",
          "name": "newAddr",
          "type": "address"
        }
      ],
      "name": "setCRAddress",
      "outputs": [],
      "stateMutability": "nonpayable",
      "type": "function"
    },
    {
      "inputs": [
        {
          "internalType": "bytes4",
          "name": "interfaceId",
          "type": "bytes4"
        }
      ],
      "name": "supportsInterface",
      "outputs": [
        {
          "internalType": "bool",
          "name": "",
          "type": "bool"
        }
      ],
      "stateMutability": "view",
      "type": "function"
    },
    {
      "inputs": [],
      "name": "symbol",
      "outputs": [
        {
          "internalType": "string",
          "name": "",
          "type": "string"
        }
      ],
      "stateMutability": "view",
      "type": "function"
    },
    {
      "inputs": [],
      "name": "totalSupply",
      "outputs": [
        {
          "internalType": "uint256",
          "name": "",
          "type": "uint256"
        }
      ],
      "stateMutability": "view",
      "type": "function"
    },
    {
      "inputs": [
        {
          "internalType": "address",
          "name": "to",
          "type": "address"
        },
        {
          "internalType": "uint256",
          "name": "amount",
          "type": "uint256"
        }
      ],
      "name": "transfer",
      "outputs": [
        {
          "internalType": "bool",
          "name": "",
          "type": "bool"
        }
      ],
      "stateMutability": "nonpayable",
      "type": "function"
    },
    {
      "inputs": [
        {
          "internalType": "address",
          "name": "from",
          "type": "address"
        },
        {
          "internalType": "address",
          "name": "to",
          "type": "address"
        },
        {
          "internalType": "uint256",
          "name": "amount",
          "type": "uint256"
        }
      ],
      "name": "transferForCrowdSale",
      "outputs": [
        {
          "internalType": "bool",
          "name": "",
          "type": "bool"
        }
      ],
      "stateMutability": "nonpayable",
      "type": "function"
    },
    {
      "inputs": [
        {
          "internalType": "address",
          "name": "from",
          "type": "address"
        },
        {
          "internalType": "address",
          "name": "to",
          "type": "address"
        },
        {
          "internalType": "uint256",
          "name": "amount",
          "type": "uint256"
        }
      ],
      "name": "transferForMSigWallet",
      "outputs": [
        {
          "internalType": "bool",
          "name": "",
          "type": "bool"
        }
      ],
      "stateMutability": "nonpayable",
      "type": "function"
    },
    {
      "inputs": [
        {
          "internalType": "address",
          "name": "from",
          "type": "address"
        },
        {
          "internalType": "address",
          "name": "to",
          "type": "address"
        },
        {
          "internalType": "uint256",
          "name": "amount",
          "type": "uint256"
        }
      ],
      "name": "transferFrom",
      "outputs": [
        {
          "internalType": "bool",
          "name": "",
          "type": "bool"
        }
      ],
      "stateMutability": "nonpayable",
      "type": "function"
    },
    {
      "inputs": [],
      "name": "unpause",
      "outputs": [],
      "stateMutability": "nonpayable",
      "type": "function"
    },
    {
      "inputs": [
        {
          "internalType": "address",
          "name": "newImplementation",
          "type": "address"
        }
      ],
      "name": "upgradeTo",
      "outputs": [],
      "stateMutability": "nonpayable",
      "type": "function"
    },
    {
      "inputs": [
        {
          "internalType": "address",
          "name": "newImplementation",
          "type": "address"
        },
        {
          "internalType": "bytes",
          "name": "data",
          "type": "bytes"
        }
      ],
      "name": "upgradeToAndCall",
      "outputs": [],
      "stateMutability": "payable",
      "type": "function"
    },
    {
      "inputs": [
        {
          "internalType": "address",
          "name": "_signer",
          "type": "address"
        },
        {
          "internalType": "address",
          "name": "_to",
          "type": "address"
        },
        {
          "internalType": "uint256",
          "name": "_amount",
          "type": "uint256"
        },
        {
          "internalType": "string",
          "name": "_message",
          "type": "string"
        },
        {
          "internalType": "uint256",
          "name": "_nonce",
          "type": "uint256"
        },
        {
          "internalType": "bytes",
          "name": "signature",
          "type": "bytes"
        }
      ],
      "name": "verify",
      "outputs": [
        {
          "internalType": "bool",
          "name": "",
          "type": "bool"
        }
      ],
      "stateMutability": "nonpayable",
      "type": "function"
    }
  ],
  "bytecode": "0x60a06040523060805234801561001457600080fd5b506080516143d261004560003960008181610bdc01528181610c1c01528181610d610152610da101526143d26000f3fe60806040526004361061019f5760003560e01c80630164beb2146101a457806301ffc9a7146101d75780630555390c1461020757806306fdde0314610229578063095ea7b31461024b57806318160ddd1461026b57806323b872dd14610280578063248a9ca3146102a05780632f2ff15d146102c0578063313ce567146102e057806336568abe146102fc5780633659cfe61461031c578063395093511461033c5780633f4ba83a1461035c57806340c10f19146103715780634f1ef286146103915780635c975abb146103a457806370a08231146103bc5780638129fc1c146103dc5780638456cb59146103f15780638b6aeeac1461040657806391d148541461042657806395d89b411461044657806397aba7f91461045b578063a217fddf14610488578063a35f8a401461049d578063a457c2d7146104bd578063a497db51146104dd578063a9059cbb146104fd578063abe5026a1461051d578063ad002b181461053d578063c023dd911461055d578063c24e69c21461057d578063d547741f1461059d578063dd62ed3e146105bd578063f87672dc14610603575b600080fd5b3480156101b057600080fd5b506101c46101bf36600461395b565b610623565b6040519081526020015b60405180910390f35b3480156101e357600080fd5b506101f76101f2366004613974565b610780565b60405190151581526020016101ce565b34801561021357600080fd5b506102276102223660046139b3565b6107b7565b005b34801561023557600080fd5b5061023e610811565b6040516101ce9190613a53565b34801561025757600080fd5b506101f7610266366004613a66565b6108a3565b34801561027757600080fd5b506035546101c4565b34801561028c57600080fd5b506101f761029b366004613a92565b6108b9565b3480156102ac57600080fd5b506101c46102bb36600461395b565b610b1b565b3480156102cc57600080fd5b506102276102db366004613ad3565b610b31565b3480156102ec57600080fd5b50604051601281526020016101ce565b34801561030857600080fd5b50610227610317366004613ad3565b610b53565b34801561032857600080fd5b50610227610337366004613b03565b610bd1565b34801561034857600080fd5b506101f7610357366004613a66565b610c9a565b34801561036857600080fd5b50610227610cd6565b34801561037d57600080fd5b5061022761038c366004613a66565b610d09565b61022761039f366004613bc2565b610d56565b3480156103b057600080fd5b5060655460ff166101f7565b3480156103c857600080fd5b506101c46103d7366004613b03565b610e0c565b3480156103e857600080fd5b50610227610e27565b3480156103fd57600080fd5b50610227611031565b34801561041257600080fd5b50610227610421366004613b03565b611062565b34801561043257600080fd5b506101f7610441366004613ad3565b6110b6565b34801561045257600080fd5b5061023e6110e2565b34801561046757600080fd5b5061047b610476366004613c11565b6110f1565b6040516101ce9190613c41565b34801561049457600080fd5b506101c4600081565b3480156104a957600080fd5b506101c46104b8366004613c55565b611161565b3480156104c957600080fd5b506101f76104d8366004613a66565b61119a565b3480156104e957600080fd5b506102276104f8366004613cb5565b611233565b34801561050957600080fd5b506101f7610518366004613a66565b611324565b34801561052957600080fd5b506101f7610538366004613d51565b6114df565b34801561054957600080fd5b506101f7610558366004613a92565b6115b1565b34801561056957600080fd5b5061022761057836600461395b565b611627565b34801561058957600080fd5b506101f7610598366004613a92565b61163e565b3480156105a957600080fd5b506102276105b8366004613ad3565b611734565b3480156105c957600080fd5b506101c46105d8366004613deb565b6001600160a01b03918216600090815260346020908152604080832093909416825291909152205490565b34801561060f57600080fd5b506101c461061e36600461395b565b611751565b60008181526101666020908152604080832081516101008101835281548152600182015493810193909352600281015491830191909152600381015483929190606083019060ff16600481111561067c5761067c613e19565b600481111561068d5761068d613e19565b8152600382015461010090046001600160a01b03908116602083015260048301549081166040830152600160a01b900460ff161515606082015260059091015460809091015290506000816060015160048111156106ed576106ed613e19565b14156106fc5750600192915050565b60018160600151600481111561071457610714613e19565b14156107235750600492915050565b60028160600151600481111561073b5761073b613e19565b141561074a5750600292915050565b60038160600151600481111561076257610762613e19565b14156107715750600392915050565b50600092915050565b50919050565b60006001600160e01b03198216637965db0b60e01b14806107b157506301ffc9a760e01b6001600160e01b03198316145b92915050565b60026101735414156107e45760405162461bcd60e51b81526004016107db90613e2f565b60405180910390fd5b600261017355610161546107f8813361175c565b610804858585856117c0565b5050600161017355505050565b60606036805461082090613e66565b80601f016020809104026020016040519081016040528092919081815260200182805461084c90613e66565b80156108995780601f1061086e57610100808354040283529160200191610899565b820191906000526020600020905b81548152906001019060200180831161087c57829003601f168201915b5050505050905090565b60006108b03384846119d0565b50600192915050565b600060026101735414156108df5760405162461bcd60e51b81526004016107db90613e2f565b600261017355620186a082101561091d5760405162461bcd60e51b8152602060048201526002602482015261271760f11b60448201526064016107db565b61015f546001600160a01b038581169116141561094c5760405162461bcd60e51b81526004016107db90613e9b565b61016c546001600160a01b038581169116141561097b5760405162461bcd60e51b81526004016107db90613eca565b61016e546001600160a01b03858116911614156109aa5760405162461bcd60e51b81526004016107db90613edc565b610172546001600160a01b03858116911614156109ed5760405162461bcd60e51b81526020600482015260016024820152605360f81b60448201526064016107db565b610170546001600160a01b0385811691161415610a305760405162461bcd60e51b81526020600482015260016024820152604d60f81b60448201526064016107db565b81610a3a85610e0c565b1015610a585760405162461bcd60e51b81526004016107db90613ef7565b61016854620186a08304908190600782028503908590610a81906001600160a01b031684611af4565b5061016a54610a99906001600160a01b031685611af4565b5061016c54610ab1906001600160a01b031685611af4565b5061016e54610ac9906001600160a01b031685611af4565b5061017054610ae1906001600160a01b031685611af4565b5061017254610afc906001600160a01b031660028602611af4565b50610b078783611af4565b9450505050505b6001610173559392505050565b600090815261012d602052604090206001015490565b610b3a82610b1b565b610b44813361175c565b610b4e8383611b01565b505050565b6001600160a01b0381163314610bc35760405162461bcd60e51b815260206004820152602f60248201527f416363657373436f6e74726f6c3a2063616e206f6e6c792072656e6f756e636560448201526e103937b632b9903337b91039b2b63360891b60648201526084016107db565b610bcd8282611b88565b5050565b306001600160a01b037f0000000000000000000000000000000000000000000000000000000000000000161415610c1a5760405162461bcd60e51b81526004016107db90613f12565b7f00000000000000000000000000000000000000000000000000000000000000006001600160a01b0316610c4c611bf0565b6001600160a01b031614610c725760405162461bcd60e51b81526004016107db90613f4c565b610c7b81611c0c565b60408051600080825260208201909252610c9791839190611c8d565b50565b3360008181526034602090815260408083206001600160a01b038716845290915281205490916108b0918590610cd1908690613f9c565b6119d0565b610ce361016154326110b6565b610cff5760405162461bcd60e51b81526004016107db90613eca565b610d07611dd4565b565b6002610173541415610d2d5760405162461bcd60e51b81526004016107db90613e2f565b60026101735561016254610d41813361175c565b610d4b8383611e61565b505060016101735550565b306001600160a01b037f0000000000000000000000000000000000000000000000000000000000000000161415610d9f5760405162461bcd60e51b81526004016107db90613f12565b7f00000000000000000000000000000000000000000000000000000000000000006001600160a01b0316610dd1611bf0565b6001600160a01b031614610df75760405162461bcd60e51b81526004016107db90613f4c565b610e0082611c0c565b610bcd82826001611c8d565b6001600160a01b031660009081526033602052604090205490565b600054610100900460ff16610e425760005460ff1615610e46565b303b155b610ea95760405162461bcd60e51b815260206004820152602e60248201527f496e697469616c697a61626c653a20636f6e747261637420697320616c72656160448201526d191e481a5b9a5d1a585b1a5e995960921b60648201526084016107db565b600054610100900460ff16158015610ecb576000805461ffff19166101011790555b6101a55460ff1615610f035760405162461bcd60e51b81526020600482015260016024820152604960f81b60448201526064016107db565b6101a5805460ff19166001179055604080518082018252600c81526b6f627363757269747944414f60a01b602080830191909152825180840190935260048352634f42534360e01b90830152610f5891611f3a565b610f60611f73565b610f68611faa565b610f70611fe1565b610f78612160565b610f8360003261218f565b610f90610164543261218f565b610f9d610162543261218f565b610faa6101635432611b01565b610fce32610fba6012600a614098565b610fc990643a352944006140a7565b611e61565b610fdb6101625432611b88565b610ffc61016154736a8a3f822c105b8abe211e337f6c3c3a16e5064461218f565b61101d6101615473a50c1d2eb4ce19571dd1d4ec03e7b6023789065c61218f565b8015610c97576000805461ff001916905550565b61103e61016154326110b6565b61105a5760405162461bcd60e51b81526004016107db90613eca565b610d07612199565b61106f61016154326110b6565b61108b5760405162461bcd60e51b81526004016107db90613eca565b6101a580546001600160a01b03909216620100000262010000600160b01b0319909216919091179055565b600091825261012d602090815260408084206001600160a01b0393909316845291905290205460ff1690565b60606037805461082090613e66565b60008061114a846040517b0ca2ba3432b932bab69029b4b3b732b21026b2b9b9b0b3b29d05199960211b6020820152603c8101829052600090605c01604051602081830303815290604052805190602001209050919050565b9050600061115882856121f1565b95945050505050565b60008484848460405160200161117a94939291906140c6565b604051602081830303815290604052805190602001209050949350505050565b3360009081526034602090815260408083206001600160a01b03861684529091528120548281101561121c5760405162461bcd60e51b815260206004820152602560248201527f45524332303a2064656372656173656420616c6c6f77616e63652062656c6f77604482015264207a65726f60d81b60648201526084016107db565b61122933858584036119d0565b5060019392505050565b60026101735414156112575760405162461bcd60e51b81526004016107db90613e2f565b6002610173556101615461126b90326110b6565b6112875760405162461bcd60e51b81526004016107db90613eca565b610168546001600160a01b03163214156112ce57610168546112b6906001600160a01b031686868686866114df565b15156001146112c457600080fd5b6112ce8688612215565b61016a546001600160a01b03163214156113155761016a546112fd906001600160a01b031686868686866114df565b151560011461130b57600080fd5b6113158688612366565b50506001610173555050505050565b6000600261017354141561134a5760405162461bcd60e51b81526004016107db90613e2f565b600261017355620186a08210156113735760405162461bcd60e51b81526004016107db906140fe565b61015f546001600160a01b031633141561139f5760405162461bcd60e51b81526004016107db90613e9b565b61016c546001600160a01b03163214156113cb5760405162461bcd60e51b81526004016107db90613eca565b61016e546001600160a01b03163214156113f75760405162461bcd60e51b81526004016107db90613edc565b8161140132610e0c565b101561141f5760405162461bcd60e51b81526004016107db90613ef7565b61016854620186a08304908190600782028503908590611448906001600160a01b031684611af4565b5061016a54611460906001600160a01b031685611af4565b5061016c54611478906001600160a01b031685611af4565b5061016e54611490906001600160a01b031685611af4565b50610170546114a8906001600160a01b031685611af4565b50610172546114c3906001600160a01b031660028602611af4565b506114ce8783611af4565b600161017355979650505050505050565b6000806114ee87878787611161565b905060005b3260009081526101a66020526040902054811015611558573260009081526101a66020526040902080548391908390811061153057611530614119565b9060005260206000200154141561154657600080fd5b806115508161412f565b9150506114f3565b506000886001600160a01b031661156f83866110f1565b6001600160a01b031614905080156115a5573260009081526101a660209081526040822080546001810182559083529120018290555b98975050505050505050565b600060026101735414156115d75760405162461bcd60e51b81526004016107db90613e2f565b6002610173556101a5546201000090046001600160a01b0316331461160e5760405162461bcd60e51b81526004016107db90613e9b565b6116198484846124c1565b600161017355949350505050565b61016154611635813361175c565b610bcd8261256d565b600060026101735414156116645760405162461bcd60e51b81526004016107db90613e2f565b600261017355610168546001600160a01b031632148061168f575061016a546001600160a01b031632145b156117085761016c546001600160a01b03163314806116b9575061016e546001600160a01b031633145b156116da576116c832836108a3565b506116d38383611af4565b9050610b0e565b60405162461bcd60e51b8152602060048201526003602482015262432f5960e81b60448201526064016107db565b60405162461bcd60e51b81526020600482015260016024820152602360f91b60448201526064016107db565b61173d82610b1b565b611747813361175c565b610b4e8383611b88565b60006107b182610623565b61176682826110b6565b610bcd5761177e816001600160a01b031660146128ee565b6117898360206128ee565b60405160200161179a92919061414a565b60408051601f198184030181529082905262461bcd60e51b82526107db91600401613a53565b610168546001600160a01b03848116911614806117eb575061016a546001600160a01b038481169116145b80611804575061016e546001600160a01b038481169116145b8061181d575061016c546001600160a01b038481169116145b806118365750610170546001600160a01b038481169116145b8061184f5750610172546001600160a01b038481169116145b80611868575061015f546001600160a01b038481169116145b61187157600080fd5b60008481526101666020526040902060040154600160a01b900460ff1661019f576040805161010081018252600080825260208083018281528385018681526004606086018181526001600160a01b03808c1660808901528a1660a0880152600160c088018190524260e08901528c8752610166909552969094208551815591518284015551600282015593516003850180549495949193909260ff199092169190849081111561192457611924613e19565b02179055506080820151600382018054610100600160a81b0319166101006001600160a01b039384160217905560a083015160048301805460c0860151929093166001600160a81b031990931692909217600160a01b9115159190910217905560e09091015160059091015560405133907f6ceccc91da1789e8e61ce3484744a0de0898e22dc9e6f8864985d5a48b64dd2d906119c29087906141b9565b60405180910390a250505050565b6001600160a01b038316611a325760405162461bcd60e51b8152602060048201526024808201527f45524332303a20617070726f76652066726f6d20746865207a65726f206164646044820152637265737360e01b60648201526084016107db565b6001600160a01b038216611a935760405162461bcd60e51b815260206004820152602260248201527f45524332303a20617070726f766520746f20746865207a65726f206164647265604482015261737360f01b60648201526084016107db565b6001600160a01b0383811660008181526034602090815260408083209487168084529482529182902085905590518481527f8c5be1e5ebec7d5bd14f71427d1e84f3dd0314c0f7b2291e5b200ac8c7c3b925910160405180910390a3505050565b60006108b0338484612a89565b611b0b82826110b6565b610bcd57600082815261012d602090815260408083206001600160a01b03851684529091529020805460ff19166001179055611b443390565b6001600160a01b0316816001600160a01b0316837f2f8788117e7eff1d82e926ec794901d17c78024a50270940304540a733656f0d60405160405180910390a45050565b611b9282826110b6565b15610bcd57600082815261012d602090815260408083206001600160a01b0385168085529252808320805460ff1916905551339285917ff6391f5c32d9c69d2a47ea670b442974b53935d1edc7fd64eb21e047a839171b9190a45050565b600080516020614336833981519152546001600160a01b031690565b6002610173541415611c305760405162461bcd60e51b81526004016107db90613e2f565b60026101735561016454611c44813361175c565b61015f546001600160a01b03163214611c835760405162461bcd60e51b81526020600482015260016024820152604f60f81b60448201526064016107db565b5050600161017355565b6000611c97611bf0565b9050611ca284612c52565b600083511180611caf5750815b15611cc057611cbe8484612ce5565b505b7f4910fdfa16fed3260ed0e7147f7cc6da11a60208b5b9406d12a635614ffd9143805460ff16611dcd57805460ff19166001178155604051611d3b908690611d0c908590602401613c41565b60408051601f198184030181529190526020810180516001600160e01b0316631b2ce7f360e11b179052612ce5565b50805460ff19168155611d4c611bf0565b6001600160a01b0316826001600160a01b031614611dc45760405162461bcd60e51b815260206004820152602f60248201527f45524331393637557067726164653a207570677261646520627265616b73206660448201526e75727468657220757067726164657360881b60648201526084016107db565b611dcd85612dc7565b5050505050565b60655460ff16611e1d5760405162461bcd60e51b815260206004820152601460248201527314185d5cd8589b194e881b9bdd081c185d5cd95960621b60448201526064016107db565b6065805460ff191690557f5db9ee0a495bf2e6ff9c91a7834c1ba4fdd244a5e8aa4e537bd38aeae4b073aa335b604051611e579190613c41565b60405180910390a1565b6001600160a01b038216611eb75760405162461bcd60e51b815260206004820152601f60248201527f45524332303a206d696e7420746f20746865207a65726f20616464726573730060448201526064016107db565b611ec360008383612e07565b8060356000828254611ed59190613f9c565b90915550506001600160a01b03821660009081526033602052604081208054839290611f02908490613f9c565b90915550506040518181526001600160a01b0383169060009060008051602061437d8339815191529060200160405180910390a35050565b600054610100900460ff16611f615760405162461bcd60e51b81526004016107db906141d1565b611f69612e2a565b610bcd8282612e51565b600054610100900460ff16611f9a5760405162461bcd60e51b81526004016107db906141d1565b611fa2612e2a565b610d07612e9f565b600054610100900460ff16611fd15760405162461bcd60e51b81526004016107db906141d1565b611fd9612e2a565b610d07612e2a565b600054610100900460ff166120085760405162461bcd60e51b81526004016107db906141d1565b612010612ed2565b61204860405180604001604052806002815260200161464f60f01b815250736a8a3f822c105b8abe211e337f6c3c3a16e50644613008565b61208060405180604001604052806002815260200161119560f21b81525073a50c1d2eb4ce19571dd1d4ec03e7b6023789065c6130bf565b6120b860405180604001604052806002815260200161435760f01b81525073fc89331182fb57c5a5d64d404b6e74c07005f202613148565b6120f060405180604001604052806002815260200161086960f31b81525073c83b7093ae450ff80de03f7b615bc43779c660f96131d1565b6121286040518060400160405280600281526020016126a760f11b81525073c83b7093ae450ff80de03f7b615bc43779c660f961325a565b610d076040518060400160405280600281526020016129a760f11b81525073c83b7093ae450ff80de03f7b615bc43779c660f96132e4565b600054610100900460ff166121875760405162461bcd60e51b81526004016107db906141d1565b610d0761336e565b610bcd8282611b01565b60655460ff16156121bc5760405162461bcd60e51b81526004016107db9061421c565b6065805460ff191660011790557f62e78cea01bee320cd4e420270b5ea74000d11b0c9f74754ebdbfc544b05a258611e4a3390565b6000806000612200858561339d565b9150915061220d8161340d565b509392505050565b600081815261016660209081526040808320815161010081018352815481526001820154938101939093526002810154918301919091526003810154606083019060ff16600481111561226a5761226a613e19565b600481111561227b5761227b613e19565b8152600382015461010090046001600160a01b03908116602083015260048301549081166040830152600160a01b900460ff161515606082015260059091015460809091015290506001816060015160048111156122db576122db613e19565b14156122e657600080fd5b6004816060015160048111156122fe576122fe613e19565b141561231f57600082815261016660205260409020600301805460ff191690555b8260011461234a57600082815261016660205260408120848155600301805460ff1916600117905580fd5b8260011415610b4e575060009081526101666020526040902055565b600081815261016660209081526040808320815161010081018352815481526001820154938101939093526002810154918301919091526003810154606083019060ff1660048111156123bb576123bb613e19565b60048111156123cc576123cc613e19565b8152600382015461010090046001600160a01b03908116602083015260048301549081166040830152600160a01b900460ff1615156060820152600590910154608090910152905060018160600151600481111561242c5761242c613e19565b141561243757600080fd5b60048160600151600481111561244f5761244f613e19565b141561247057600082815261016660205260409020600301805460ff191690555b826001146124a25760008281526101666020526040812060018082018690556003909101805460ff1916909117905580fd5b8260011415610b4e575060009081526101666020526040902060010155565b60006124ce848484612a89565b6001600160a01b0384166000908152603460209081526040808320338452909152902054828110156125535760405162461bcd60e51b815260206004820152602860248201527f45524332303a207472616e7366657220616d6f756e74206578636565647320616044820152676c6c6f77616e636560c01b60648201526084016107db565b61256085338584036119d0565b60019150505b9392505050565b612576816135c3565b600081815261016660209081526040808320815161010081018352815481526001820154938101939093526002810154918301919091526003810154606083019060ff1660048111156125cb576125cb613e19565b60048111156125dc576125dc613e19565b8152600382015461010090046001600160a01b03908116602083015260048301549081166040830152600160a01b900460ff1615156060820152600590910154608090910152905060028160600151600481111561263c5761263c613e19565b1461266d5760405162461bcd60e51b81526020600482015260016024820152600360fc1b60448201526064016107db565b6080810151610168546001600160a01b03908116911614156126d75760a081015161016880546001600160a01b0319166001600160a01b039092169190911790556101615460808201516126c19190611b88565b6126d2610161548260a00151611b01565b6128c7565b608081015161016a546001600160a01b039081169116141561272b5760a081015161016a80546001600160a01b0319166001600160a01b039092169190911790556101615460808201516126c19190611b88565b608081015161016c546001600160a01b03908116911614156127715760a081015161016c80546001600160a01b0319166001600160a01b039092169190911790556128c7565b608081015161016e546001600160a01b03908116911614156127b75760a081015161016e80546001600160a01b0319166001600160a01b039092169190911790556128c7565b6080810151610172546001600160a01b03908116911614156127fd5760a081015161017280546001600160a01b0319166001600160a01b039092169190911790556128c7565b6080810151610170546001600160a01b03908116911614156128435760a081015161017080546001600160a01b0319166001600160a01b039092169190911790556128c7565b608081015161015f546001600160a01b03908116911614156128c757612870610163548260a00151611b01565b612881610164548260a0015161218f565b6128926000801b8260a0015161218f565b6101635460808201516128a59190611b88565b6128b6610164548260800151611b88565b6128c76000801b8260800151611b88565b6000828152610166602052604090206003908101805460ff19166001835b02179055505050565b606060006128fd8360026140a7565b612908906002613f9c565b6001600160401b0381111561291f5761291f613b20565b6040519080825280601f01601f191660200182016040528015612949576020820181803683370190505b509050600360fc1b8160008151811061296457612964614119565b60200101906001600160f81b031916908160001a905350600f60fb1b8160018151811061299357612993614119565b60200101906001600160f81b031916908160001a90535060006129b78460026140a7565b6129c2906001613f9c565b90505b6001811115612a3a576f181899199a1a9b1b9c1cb0b131b232b360811b85600f16601081106129f6576129f6614119565b1a60f81b828281518110612a0c57612a0c614119565b60200101906001600160f81b031916908160001a90535060049490941c93612a3381614246565b90506129c5565b5083156125665760405162461bcd60e51b815260206004820181905260248201527f537472696e67733a20686578206c656e67746820696e73756666696369656e7460448201526064016107db565b6001600160a01b038316612aed5760405162461bcd60e51b815260206004820152602560248201527f45524332303a207472616e736665722066726f6d20746865207a65726f206164604482015264647265737360d81b60648201526084016107db565b6001600160a01b038216612b4f5760405162461bcd60e51b815260206004820152602360248201527f45524332303a207472616e7366657220746f20746865207a65726f206164647260448201526265737360e81b60648201526084016107db565b612b5a838383612e07565b6001600160a01b03831660009081526033602052604090205481811015612bd25760405162461bcd60e51b815260206004820152602660248201527f45524332303a207472616e7366657220616d6f756e7420657863656564732062604482015265616c616e636560d01b60648201526084016107db565b6001600160a01b03808516600090815260336020526040808220858503905591851681529081208054849290612c09908490613f9c565b92505081905550826001600160a01b0316846001600160a01b031660008051602061437d83398151915284604051612c4391815260200190565b60405180910390a35b50505050565b803b612cb65760405162461bcd60e51b815260206004820152602d60248201527f455243313936373a206e657720696d706c656d656e746174696f6e206973206e60448201526c1bdd08184818dbdb9d1c9858dd609a1b60648201526084016107db565b60008051602061433683398151915280546001600160a01b0319166001600160a01b0392909216919091179055565b6060823b612d445760405162461bcd60e51b815260206004820152602660248201527f416464726573733a2064656c65676174652063616c6c20746f206e6f6e2d636f6044820152651b9d1c9858dd60d21b60648201526084016107db565b600080846001600160a01b031684604051612d5f919061425d565b600060405180830381855af49150503d8060008114612d9a576040519150601f19603f3d011682016040523d82523d6000602084013e612d9f565b606091505b5091509150611158828260405180606001604052806027815260200161435660279139613748565b612dd081612c52565b6040516001600160a01b038216907fbc7cd75a20ee27fd9adebab32041f755214dbc6bffa90cc0225b39da2e5c2d3b90600090a250565b60655460ff1615610b4e5760405162461bcd60e51b81526004016107db9061421c565b600054610100900460ff16610d075760405162461bcd60e51b81526004016107db906141d1565b600054610100900460ff16612e785760405162461bcd60e51b81526004016107db906141d1565b8151612e8b9060369060208501906138c2565b508051610b4e9060379060208401906138c2565b600054610100900460ff16612ec65760405162461bcd60e51b81526004016107db906141d1565b6065805460ff19169055565b600054610100900460ff16612ef95760405162461bcd60e51b81526004016107db906141d1565b612f01613781565b61015f80546001600160a01b03191673c00911b36603c141f523bbee654cbf11102932b11790557f99c61ce2ed9d18bd2f1848aa5af318ec192d4314bf69a0b55a7583b219f89e41610160557f65d7a28e3265b37a6474929f336521b332c1681b933f6cb9f3376673440d862a610161557f9f2df0fed2c77648de5860a4cc508cd0818c85b8b8a1ab4ceeef8d981c8956a6610162557f189ab7a9244df0848122154315af71fe140f3db0fe014031783b0946b8c9d2e3610163557fa49807205ce4d355092ef5a8a18f56e8913cf4a201fbe287825b095693c21775610164557f7ed687a8f2955bd2ba7ca08227e1e364d132be747f42fb733165f923021b022561016555565b60408051808201825260018152604f60f81b602090910152517fc669aa98d5975cc43653c879a18d9bc4aa8bf51e69f61aeb1d7769216f98009a906130509061016790614279565b604051809103902014610bcd57604080518082019091528281526001600160a01b0382166020808301919091528351610167916130919183918701906138c2565b5060209190910151600190910180546001600160a01b0319166001600160a01b039092169190911790555050565b60408051808201825260018152601560fa1b602090910152517f846b7b6deb1cfa110d0ea7ec6162a7123b761785528db70cceed5143183b11fc906131079061016990614279565b604051809103902014610bcd57604080518082019091528281526001600160a01b0382166020808301919091528351610169916130919183918701906138c2565b60408051808201825260018152604360f81b602090910152517f017e667f4b8c174291d1543c466717566e206df1bfd6f30271055ddafdb18f72906131909061016b90614279565b604051809103902014610bcd57604080518082019091528281526001600160a01b038216602080830191909152835161016b916130919183918701906138c2565b60408051808201825260018152602d60f91b602090910152517f7d54a4ab605dc825939ee59b4af5be4680f51892ef5944365e996fd93f70a2e5906132199061016d90614279565b604051809103902014610bcd57604080518082019091528281526001600160a01b038216602080830191909152835161016d916130919183918701906138c2565b604080518082018252600281526126a760f11b602090910152517fa58cf80943770dd084f078bec17346ccb44c1ca309c9db7e14b1781d30f61dc0906132a39061016f90614279565b604051809103902014610bcd57604080518082019091528281526001600160a01b038216602080830191909152835161016f916130919183918701906138c2565b604080518082018252600281526129a760f11b602090910152517f692afa398c2cae5fc689ceb6f24b26644526f34725daec5c368d84e793eb5c9d9061332d9061017190614279565b604051809103902014610bcd57604080518082019091528281526001600160a01b0382166020808301919091528351610171916130919183918701906138c2565b600054610100900460ff166133955760405162461bcd60e51b81526004016107db906141d1565b600161017355565b6000808251604114156133d45760208301516040840151606085015160001a6133c8878285856137b0565b94509450505050613406565b8251604014156133fe57602083015160408401516133f3868383613893565b935093505050613406565b506000905060025b9250929050565b600081600481111561342157613421613e19565b141561342a5750565b600181600481111561343e5761343e613e19565b14156134875760405162461bcd60e51b815260206004820152601860248201527745434453413a20696e76616c6964207369676e617475726560401b60448201526064016107db565b600281600481111561349b5761349b613e19565b14156134e95760405162461bcd60e51b815260206004820152601f60248201527f45434453413a20696e76616c6964207369676e6174757265206c656e6774680060448201526064016107db565b60038160048111156134fd576134fd613e19565b14156135565760405162461bcd60e51b815260206004820152602260248201527f45434453413a20696e76616c6964207369676e6174757265202773272076616c604482015261756560f01b60648201526084016107db565b600481600481111561356a5761356a613e19565b1415610c975760405162461bcd60e51b815260206004820152602260248201527f45434453413a20696e76616c6964207369676e6174757265202776272076616c604482015261756560f01b60648201526084016107db565b600081815261016660209081526040808320815161010081018352815481526001820154938101939093526002810154918301919091526003810154606083019060ff16600481111561361857613618613e19565b600481111561362957613629613e19565b8152600382015461010090046001600160a01b03908116602083015260048301549081166040830152600160a01b900460ff1615156060820152600590910154608090910152905060018160600151600481111561368957613689613e19565b14156136bb5760405162461bcd60e51b81526020600482015260016024820152603160f81b60448201526064016107db565b60e08101516136cd9062278d00613f9c565b42101561372457602081015181516136e59190613f9c565b6002146137045760405162461bcd60e51b81526004016107db906140fe565b50600090815261016660205260409020600301805460ff19166002179055565b60008281526101666020526040902060030180546002919060ff19166001836128e5565b60608315613757575081612566565b8251156137675782518084602001fd5b8160405162461bcd60e51b81526004016107db9190613a53565b600054610100900460ff166137a85760405162461bcd60e51b81526004016107db906141d1565b611fd1612e2a565b6000806fa2a8918ca85bafe22016d0b997e4df60600160ff1b038311156137dd575060009050600361388a565b8460ff16601b141580156137f557508460ff16601c14155b15613806575060009050600461388a565b6040805160008082526020820180845289905260ff881692820192909252606081018690526080810185905260019060a0016020604051602081039080840390855afa15801561385a573d6000803e3d6000fd5b5050604051601f1901519150506001600160a01b0381166138835760006001925092505061388a565b9150600090505b94509492505050565b6000806001600160ff1b03831660ff84901c601b016138b4878288856137b0565b935093505050935093915050565b8280546138ce90613e66565b90600052602060002090601f0160209004810192826138f05760008555613936565b82601f1061390957805160ff1916838001178555613936565b82800160010185558215613936579182015b8281111561393657825182559160200191906001019061391b565b50613942929150613946565b5090565b5b808211156139425760008155600101613947565b60006020828403121561396d57600080fd5b5035919050565b60006020828403121561398657600080fd5b81356001600160e01b03198116811461256657600080fd5b6001600160a01b0381168114610c9757600080fd5b600080600080608085870312156139c957600080fd5b8435935060208501356139db8161399e565b925060408501356139eb8161399e565b9396929550929360600135925050565b60005b83811015613a165781810151838201526020016139fe565b83811115612c4c5750506000910152565b60008151808452613a3f8160208601602086016139fb565b601f01601f19169290920160200192915050565b6020815260006125666020830184613a27565b60008060408385031215613a7957600080fd5b8235613a848161399e565b946020939093013593505050565b600080600060608486031215613aa757600080fd5b8335613ab28161399e565b92506020840135613ac28161399e565b929592945050506040919091013590565b60008060408385031215613ae657600080fd5b823591506020830135613af88161399e565b809150509250929050565b600060208284031215613b1557600080fd5b81356125668161399e565b634e487b7160e01b600052604160045260246000fd5b600082601f830112613b4757600080fd5b81356001600160401b0380821115613b6157613b61613b20565b604051601f8301601f19908116603f01168101908282118183101715613b8957613b89613b20565b81604052838152866020858801011115613ba257600080fd5b836020870160208301376000602085830101528094505050505092915050565b60008060408385031215613bd557600080fd5b8235613be08161399e565b915060208301356001600160401b03811115613bfb57600080fd5b613c0785828601613b36565b9150509250929050565b60008060408385031215613c2457600080fd5b8235915060208301356001600160401b03811115613bfb57600080fd5b6001600160a01b0391909116815260200190565b60008060008060808587031215613c6b57600080fd5b8435613c768161399e565b93506020850135925060408501356001600160401b03811115613c9857600080fd5b613ca487828801613b36565b949793965093946060013593505050565b600080600080600080600060e0888a031215613cd057600080fd5b87359650602088013595506040880135613ce98161399e565b94506060880135935060808801356001600160401b0380821115613d0c57600080fd5b613d188b838c01613b36565b945060a08a0135935060c08a0135915080821115613d3557600080fd5b50613d428a828b01613b36565b91505092959891949750929550565b60008060008060008060c08789031215613d6a57600080fd5b8635613d758161399e565b95506020870135613d858161399e565b94506040870135935060608701356001600160401b0380821115613da857600080fd5b613db48a838b01613b36565b94506080890135935060a0890135915080821115613dd157600080fd5b50613dde89828a01613b36565b9150509295509295509295565b60008060408385031215613dfe57600080fd5b8235613e098161399e565b91506020830135613af88161399e565b634e487b7160e01b600052602160045260246000fd5b6020808252601f908201527f5265656e7472616e637947756172643a207265656e7472616e742063616c6c00604082015260600190565b600181811c90821680613e7a57607f821691505b6020821081141561077a57634e487b7160e01b600052602260045260246000fd5b6020808252600190820152604160f81b604082015260600190565b60018152604360f81b602082015260400190565b6020815260006107b160208301613eb6565b6020808252600190820152605960f81b604082015260600190565b6020808252600190820152602d60f91b604082015260600190565b6020808252602c9082015260008051602061431683398151915260408201526b19195b1959d85d1958d85b1b60a21b606082015260800190565b6020808252602c9082015260008051602061431683398151915260408201526b6163746976652070726f787960a01b606082015260800190565b634e487b7160e01b600052601160045260246000fd5b60008219821115613faf57613faf613f86565b500190565b600181815b80851115613fef578160001904821115613fd557613fd5613f86565b80851615613fe257918102915b93841c9390800290613fb9565b509250929050565b600082614006575060016107b1565b81614013575060006107b1565b816001811461402957600281146140335761404f565b60019150506107b1565b60ff84111561404457614044613f86565b50506001821b6107b1565b5060208310610133831016604e8410600b8410161715614072575081810a6107b1565b61407c8383613fb4565b806000190482111561409057614090613f86565b029392505050565b600061256660ff841683613ff7565b60008160001904831182151516156140c1576140c1613f86565b500290565b60018060a01b03851681528360208201526080604082015260006140ed6080830185613a27565b905082606083015295945050505050565b6020808252600190820152602760f91b604082015260600190565b634e487b7160e01b600052603260045260246000fd5b600060001982141561414357614143613f86565b5060010190565b76020b1b1b2b9b9a1b7b73a3937b61d1030b1b1b7bab73a1604d1b81526000835161417c8160178501602088016139fb565b7001034b99036b4b9b9b4b733903937b6329607d1b60179184019182015283516141ad8160288401602088016139fb565b01602801949350505050565b81815260406020820152600061256660408301613eb6565b6020808252602b908201527f496e697469616c697a61626c653a20636f6e7472616374206973206e6f74206960408201526a6e697469616c697a696e6760a81b606082015260800190565b60208082526010908201526f14185d5cd8589b194e881c185d5cd95960821b604082015260600190565b60008161425557614255613f86565b506000190190565b6000825161426f8184602087016139fb565b9190910192915050565b600080835481600182811c91508083168061429557607f831692505b60208084108214156142b557634e487b7160e01b86526022600452602486fd5b8180156142c957600181146142da57614307565b60ff19861689528489019650614307565b60008a81526020902060005b868110156142ff5781548b8201529085019083016142e6565b505084890196505b50949897505050505050505056fe46756e6374696f6e206d7573742062652063616c6c6564207468726f75676820360894a13ba1a3210667c828492db98dca3e2076cc3735a920a3ca505d382bbc416464726573733a206c6f772d6c6576656c2064656c65676174652063616c6c206661696c6564ddf252ad1be2c89b69c2b068fc378daa952ba7f163c4a11628f55a4df523b3efa2646970667358221220ba3386d3b809aaf0ad3a094b21eec972f47a89b981d2777490cb0f93339c3d1564736f6c634300080b0033",
  "linkReferences": {},
  "deployedLinkReferences": {}
}