{
  "_format": "hh-sol-artifact-1",
  "contractName": "obscurityDAO",
  "sourceName": "contracts/obscurityDAO.sol",
  "abi": [
    {
      "anonymous": false,
      "inputs": [
        {
          "indexed": false,
          "internalType": "address",
          "name": "previousAdmin",
          "type": "address"
        },
        {
          "indexed": false,
          "internalType": "address",
          "name": "newAdmin",
          "type": "address"
        }
      ],
      "name": "AdminChanged",
      "type": "event"
    },
    {
      "anonymous": false,
      "inputs": [
        {
          "indexed": true,
          "internalType": "address",
          "name": "owner",
          "type": "address"
        },
        {
          "indexed": true,
          "internalType": "address",
          "name": "spender",
          "type": "address"
        },
        {
          "indexed": false,
          "internalType": "uint256",
          "name": "value",
          "type": "uint256"
        }
      ],
      "name": "Approval",
      "type": "event"
    },
    {
      "anonymous": false,
      "inputs": [
        {
          "indexed": true,
          "internalType": "address",
          "name": "beacon",
          "type": "address"
        }
      ],
      "name": "BeaconUpgraded",
      "type": "event"
    },
    {
      "anonymous": false,
      "inputs": [
        {
          "indexed": false,
          "internalType": "address",
          "name": "account",
          "type": "address"
        }
      ],
      "name": "Paused",
      "type": "event"
    },
    {
      "anonymous": false,
      "inputs": [
        {
          "indexed": true,
          "internalType": "bytes32",
          "name": "role",
          "type": "bytes32"
        },
        {
          "indexed": true,
          "internalType": "bytes32",
          "name": "previousAdminRole",
          "type": "bytes32"
        },
        {
          "indexed": true,
          "internalType": "bytes32",
          "name": "newAdminRole",
          "type": "bytes32"
        }
      ],
      "name": "RoleAdminChanged",
      "type": "event"
    },
    {
      "anonymous": false,
      "inputs": [
        {
          "indexed": true,
          "internalType": "bytes32",
          "name": "role",
          "type": "bytes32"
        },
        {
          "indexed": true,
          "internalType": "address",
          "name": "account",
          "type": "address"
        },
        {
          "indexed": true,
          "internalType": "address",
          "name": "sender",
          "type": "address"
        }
      ],
      "name": "RoleGranted",
      "type": "event"
    },
    {
      "anonymous": false,
      "inputs": [
        {
          "indexed": true,
          "internalType": "bytes32",
          "name": "role",
          "type": "bytes32"
        },
        {
          "indexed": true,
          "internalType": "address",
          "name": "account",
          "type": "address"
        },
        {
          "indexed": true,
          "internalType": "address",
          "name": "sender",
          "type": "address"
        }
      ],
      "name": "RoleRevoked",
      "type": "event"
    },
    {
      "anonymous": false,
      "inputs": [
        {
          "indexed": true,
          "internalType": "address",
          "name": "_from",
          "type": "address"
        },
        {
          "indexed": false,
          "internalType": "uint256",
          "name": "_id",
          "type": "uint256"
        },
        {
          "indexed": false,
          "internalType": "string",
          "name": "_value",
          "type": "string"
        }
      ],
      "name": "SwapAddressProposalCreated",
      "type": "event"
    },
    {
      "anonymous": false,
      "inputs": [
        {
          "indexed": true,
          "internalType": "address",
          "name": "from",
          "type": "address"
        },
        {
          "indexed": true,
          "internalType": "address",
          "name": "to",
          "type": "address"
        },
        {
          "indexed": false,
          "internalType": "uint256",
          "name": "value",
          "type": "uint256"
        }
      ],
      "name": "Transfer",
      "type": "event"
    },
    {
      "anonymous": false,
      "inputs": [
        {
          "indexed": false,
          "internalType": "address",
          "name": "account",
          "type": "address"
        }
      ],
      "name": "Unpaused",
      "type": "event"
    },
    {
      "anonymous": false,
      "inputs": [
        {
          "indexed": true,
          "internalType": "address",
          "name": "implementation",
          "type": "address"
        }
      ],
      "name": "Upgraded",
      "type": "event"
    },
    {
      "inputs": [],
      "name": "DEFAULT_ADMIN_ROLE",
      "outputs": [
        {
          "internalType": "bytes32",
          "name": "",
          "type": "bytes32"
        }
      ],
      "stateMutability": "view",
      "type": "function"
    },
    {
      "inputs": [
        {
          "internalType": "address",
          "name": "owner",
          "type": "address"
        },
        {
          "internalType": "address",
          "name": "spender",
          "type": "address"
        }
      ],
      "name": "allowance",
      "outputs": [
        {
          "internalType": "uint256",
          "name": "",
          "type": "uint256"
        }
      ],
      "stateMutability": "view",
      "type": "function"
    },
    {
      "inputs": [
        {
          "internalType": "address",
          "name": "spender",
          "type": "address"
        },
        {
          "internalType": "uint256",
          "name": "amount",
          "type": "uint256"
        }
      ],
      "name": "approve",
      "outputs": [
        {
          "internalType": "bool",
          "name": "",
          "type": "bool"
        }
      ],
      "stateMutability": "nonpayable",
      "type": "function"
    },
    {
      "inputs": [
        {
          "internalType": "address",
          "name": "account",
          "type": "address"
        }
      ],
      "name": "balanceOf",
      "outputs": [
        {
          "internalType": "uint256",
          "name": "",
          "type": "uint256"
        }
      ],
      "stateMutability": "view",
      "type": "function"
    },
    {
      "inputs": [
        {
          "internalType": "uint256",
          "name": "proposalID",
          "type": "uint256"
        }
      ],
      "name": "completeAddrTransferProposal",
      "outputs": [],
      "stateMutability": "nonpayable",
      "type": "function"
    },
    {
      "inputs": [
        {
          "internalType": "uint256",
          "name": "proposalID",
          "type": "uint256"
        },
        {
          "internalType": "address payable",
          "name": "oldAddr",
          "type": "address"
        },
        {
          "internalType": "address payable",
          "name": "newAddr",
          "type": "address"
        },
        {
          "internalType": "bytes32",
          "name": "desc",
          "type": "bytes32"
        }
      ],
      "name": "createAddrTransferProposal",
      "outputs": [],
      "stateMutability": "nonpayable",
      "type": "function"
    },
    {
      "inputs": [],
      "name": "decimals",
      "outputs": [
        {
          "internalType": "uint8",
          "name": "",
          "type": "uint8"
        }
      ],
      "stateMutability": "view",
      "type": "function"
    },
    {
      "inputs": [
        {
          "internalType": "address",
          "name": "spender",
          "type": "address"
        },
        {
          "internalType": "uint256",
          "name": "subtractedValue",
          "type": "uint256"
        }
      ],
      "name": "decreaseAllowance",
      "outputs": [
        {
          "internalType": "bool",
          "name": "",
          "type": "bool"
        }
      ],
      "stateMutability": "nonpayable",
      "type": "function"
    },
    {
      "inputs": [
        {
          "internalType": "uint256",
          "name": "proposalID",
          "type": "uint256"
        },
        {
          "internalType": "uint256",
          "name": "vote",
          "type": "uint256"
        },
        {
          "internalType": "address",
          "name": "to",
          "type": "address"
        },
        {
          "internalType": "uint256",
          "name": "amount",
          "type": "uint256"
        },
        {
          "internalType": "string",
          "name": "message",
          "type": "string"
        },
        {
          "internalType": "uint256",
          "name": "nonce",
          "type": "uint256"
        },
        {
          "internalType": "bytes",
          "name": "signature",
          "type": "bytes"
        }
      ],
      "name": "founderAddrVote",
      "outputs": [],
      "stateMutability": "nonpayable",
      "type": "function"
    },
    {
      "inputs": [
        {
          "internalType": "uint256",
          "name": "proposalID",
          "type": "uint256"
        }
      ],
      "name": "gPSwapState",
      "outputs": [
        {
          "internalType": "uint256",
          "name": "",
          "type": "uint256"
        }
      ],
      "stateMutability": "view",
      "type": "function"
    },
    {
      "inputs": [
        {
          "internalType": "uint256",
          "name": "proposalID",
          "type": "uint256"
        }
      ],
      "name": "getAddrPState",
      "outputs": [
        {
          "internalType": "uint256",
          "name": "",
          "type": "uint256"
        }
      ],
      "stateMutability": "view",
      "type": "function"
    },
    {
      "inputs": [
        {
          "internalType": "address",
          "name": "_to",
          "type": "address"
        },
        {
          "internalType": "uint256",
          "name": "_amount",
          "type": "uint256"
        },
        {
          "internalType": "string",
          "name": "_message",
          "type": "string"
        },
        {
          "internalType": "uint256",
          "name": "_nonce",
          "type": "uint256"
        }
      ],
      "name": "getMessageHash",
      "outputs": [
        {
          "internalType": "bytes32",
          "name": "",
          "type": "bytes32"
        }
      ],
      "stateMutability": "pure",
      "type": "function"
    },
    {
      "inputs": [
        {
          "internalType": "bytes32",
          "name": "role",
          "type": "bytes32"
        }
      ],
      "name": "getRoleAdmin",
      "outputs": [
        {
          "internalType": "bytes32",
          "name": "",
          "type": "bytes32"
        }
      ],
      "stateMutability": "view",
      "type": "function"
    },
    {
      "inputs": [
        {
          "internalType": "bytes32",
          "name": "role",
          "type": "bytes32"
        },
        {
          "internalType": "address",
          "name": "account",
          "type": "address"
        }
      ],
      "name": "grantRole",
      "outputs": [],
      "stateMutability": "nonpayable",
      "type": "function"
    },
    {
      "inputs": [
        {
          "internalType": "bytes32",
          "name": "role",
          "type": "bytes32"
        },
        {
          "internalType": "address",
          "name": "account",
          "type": "address"
        }
      ],
      "name": "hasRole",
      "outputs": [
        {
          "internalType": "bool",
          "name": "",
          "type": "bool"
        }
      ],
      "stateMutability": "view",
      "type": "function"
    },
    {
      "inputs": [
        {
          "internalType": "address",
          "name": "spender",
          "type": "address"
        },
        {
          "internalType": "uint256",
          "name": "addedValue",
          "type": "uint256"
        }
      ],
      "name": "increaseAllowance",
      "outputs": [
        {
          "internalType": "bool",
          "name": "",
          "type": "bool"
        }
      ],
      "stateMutability": "nonpayable",
      "type": "function"
    },
    {
      "inputs": [],
      "name": "initialize",
      "outputs": [],
      "stateMutability": "nonpayable",
      "type": "function"
    },
    {
      "inputs": [
        {
          "internalType": "address",
          "name": "to",
          "type": "address"
        },
        {
          "internalType": "uint256",
          "name": "amount",
          "type": "uint256"
        }
      ],
      "name": "mint",
      "outputs": [],
      "stateMutability": "nonpayable",
      "type": "function"
    },
    {
      "inputs": [],
      "name": "name",
      "outputs": [
        {
          "internalType": "string",
          "name": "",
          "type": "string"
        }
      ],
      "stateMutability": "view",
      "type": "function"
    },
    {
      "inputs": [],
      "name": "pause",
      "outputs": [],
      "stateMutability": "nonpayable",
      "type": "function"
    },
    {
      "inputs": [],
      "name": "paused",
      "outputs": [
        {
          "internalType": "bool",
          "name": "",
          "type": "bool"
        }
      ],
      "stateMutability": "view",
      "type": "function"
    },
    {
      "inputs": [
        {
          "internalType": "bytes32",
          "name": "msgHash",
          "type": "bytes32"
        },
        {
          "internalType": "bytes",
          "name": "_signature",
          "type": "bytes"
        }
      ],
      "name": "recoverSigner",
      "outputs": [
        {
          "internalType": "address",
          "name": "",
          "type": "address"
        }
      ],
      "stateMutability": "pure",
      "type": "function"
    },
    {
      "inputs": [
        {
          "internalType": "bytes32",
          "name": "role",
          "type": "bytes32"
        },
        {
          "internalType": "address",
          "name": "account",
          "type": "address"
        }
      ],
      "name": "renounceRole",
      "outputs": [],
      "stateMutability": "nonpayable",
      "type": "function"
    },
    {
      "inputs": [
        {
          "internalType": "bytes32",
          "name": "role",
          "type": "bytes32"
        },
        {
          "internalType": "address",
          "name": "account",
          "type": "address"
        }
      ],
      "name": "revokeRole",
      "outputs": [],
      "stateMutability": "nonpayable",
      "type": "function"
    },
    {
      "inputs": [
        {
          "internalType": "address",
          "name": "newAddr",
          "type": "address"
        }
      ],
      "name": "setCRAddress",
      "outputs": [],
      "stateMutability": "nonpayable",
      "type": "function"
    },
    {
      "inputs": [
        {
          "internalType": "bytes4",
          "name": "interfaceId",
          "type": "bytes4"
        }
      ],
      "name": "supportsInterface",
      "outputs": [
        {
          "internalType": "bool",
          "name": "",
          "type": "bool"
        }
      ],
      "stateMutability": "view",
      "type": "function"
    },
    {
      "inputs": [],
      "name": "symbol",
      "outputs": [
        {
          "internalType": "string",
          "name": "",
          "type": "string"
        }
      ],
      "stateMutability": "view",
      "type": "function"
    },
    {
      "inputs": [],
      "name": "totalSupply",
      "outputs": [
        {
          "internalType": "uint256",
          "name": "",
          "type": "uint256"
        }
      ],
      "stateMutability": "view",
      "type": "function"
    },
    {
      "inputs": [
        {
          "internalType": "address",
          "name": "to",
          "type": "address"
        },
        {
          "internalType": "uint256",
          "name": "amount",
          "type": "uint256"
        }
      ],
      "name": "transfer",
      "outputs": [
        {
          "internalType": "bool",
          "name": "",
          "type": "bool"
        }
      ],
      "stateMutability": "nonpayable",
      "type": "function"
    },
    {
      "inputs": [
        {
          "internalType": "address",
          "name": "from",
          "type": "address"
        },
        {
          "internalType": "address",
          "name": "to",
          "type": "address"
        },
        {
          "internalType": "uint256",
          "name": "amount",
          "type": "uint256"
        }
      ],
      "name": "transferForCrowdSale",
      "outputs": [
        {
          "internalType": "bool",
          "name": "",
          "type": "bool"
        }
      ],
      "stateMutability": "nonpayable",
      "type": "function"
    },
    {
      "inputs": [
        {
          "internalType": "address",
          "name": "from",
          "type": "address"
        },
        {
          "internalType": "address",
          "name": "to",
          "type": "address"
        },
        {
          "internalType": "uint256",
          "name": "amount",
          "type": "uint256"
        }
      ],
      "name": "transferForMSigWallet",
      "outputs": [
        {
          "internalType": "bool",
          "name": "",
          "type": "bool"
        }
      ],
      "stateMutability": "nonpayable",
      "type": "function"
    },
    {
      "inputs": [
        {
          "internalType": "address",
          "name": "from",
          "type": "address"
        },
        {
          "internalType": "address",
          "name": "to",
          "type": "address"
        },
        {
          "internalType": "uint256",
          "name": "amount",
          "type": "uint256"
        }
      ],
      "name": "transferFrom",
      "outputs": [
        {
          "internalType": "bool",
          "name": "",
          "type": "bool"
        }
      ],
      "stateMutability": "nonpayable",
      "type": "function"
    },
    {
      "inputs": [],
      "name": "unpause",
      "outputs": [],
      "stateMutability": "nonpayable",
      "type": "function"
    },
    {
      "inputs": [
        {
          "internalType": "address",
          "name": "newImplementation",
          "type": "address"
        }
      ],
      "name": "upgradeTo",
      "outputs": [],
      "stateMutability": "nonpayable",
      "type": "function"
    },
    {
      "inputs": [
        {
          "internalType": "address",
          "name": "newImplementation",
          "type": "address"
        },
        {
          "internalType": "bytes",
          "name": "data",
          "type": "bytes"
        }
      ],
      "name": "upgradeToAndCall",
      "outputs": [],
      "stateMutability": "payable",
      "type": "function"
    },
    {
      "inputs": [
        {
          "internalType": "address",
          "name": "_signer",
          "type": "address"
        },
        {
          "internalType": "address",
          "name": "_to",
          "type": "address"
        },
        {
          "internalType": "uint256",
          "name": "_amount",
          "type": "uint256"
        },
        {
          "internalType": "string",
          "name": "_message",
          "type": "string"
        },
        {
          "internalType": "uint256",
          "name": "_nonce",
          "type": "uint256"
        },
        {
          "internalType": "bytes",
          "name": "signature",
          "type": "bytes"
        }
      ],
      "name": "verify",
      "outputs": [
        {
          "internalType": "bool",
          "name": "",
          "type": "bool"
        }
      ],
      "stateMutability": "nonpayable",
      "type": "function"
    }
  ],
  "bytecode": "0x60a06040523060805234801561001457600080fd5b506080516143ab61004560003960008181610bd501528181610c1501528181610d580152610d9801526143ab6000f3fe60806040526004361061019f5760003560e01c80630164beb2146101a457806301ffc9a7146101d75780630555390c1461020757806306fdde0314610229578063095ea7b31461024b57806318160ddd1461026b57806323b872dd14610280578063248a9ca3146102a05780632f2ff15d146102c0578063313ce567146102e057806336568abe146102fc5780633659cfe61461031c578063395093511461033c5780633f4ba83a1461035c57806340c10f19146103715780634f1ef286146103915780635c975abb146103a457806370a08231146103bc5780638129fc1c146103dc5780638456cb59146103f15780638b6aeeac1461040657806391d148541461042657806395d89b411461044657806397aba7f91461045b578063a217fddf14610488578063a35f8a401461049d578063a457c2d7146104bd578063a497db51146104dd578063a9059cbb146104fd578063abe5026a1461051d578063ad002b181461053d578063c023dd911461055d578063c24e69c21461057d578063d547741f1461059d578063dd62ed3e146105bd578063f87672dc14610603575b600080fd5b3480156101b057600080fd5b506101c46101bf366004613938565b610623565b6040519081526020015b60405180910390f35b3480156101e357600080fd5b506101f76101f2366004613951565b61077c565b60405190151581526020016101ce565b34801561021357600080fd5b50610227610222366004613990565b6107b3565b005b34801561023557600080fd5b5061023e61080c565b6040516101ce9190613a30565b34801561025757600080fd5b506101f7610266366004613a43565b61089e565b34801561027757600080fd5b506035546101c4565b34801561028c57600080fd5b506101f761029b366004613a6f565b6108b4565b3480156102ac57600080fd5b506101c46102bb366004613938565b610b15565b3480156102cc57600080fd5b506102276102db366004613ab0565b610b2b565b3480156102ec57600080fd5b50604051601281526020016101ce565b34801561030857600080fd5b50610227610317366004613ab0565b610b4d565b34801561032857600080fd5b50610227610337366004613ae0565b610bcb565b34801561034857600080fd5b506101f7610357366004613a43565b610c93565b34801561036857600080fd5b50610227610ccf565b34801561037d57600080fd5b5061022761038c366004613a43565b610d02565b61022761039f366004613b9f565b610d4e565b3480156103b057600080fd5b5060655460ff166101f7565b3480156103c857600080fd5b506101c46103d7366004613ae0565b610e03565b3480156103e857600080fd5b50610227610e1e565b3480156103fd57600080fd5b50610227611028565b34801561041257600080fd5b50610227610421366004613ae0565b611059565b34801561043257600080fd5b506101f7610441366004613ab0565b6110ad565b34801561045257600080fd5b5061023e6110d9565b34801561046757600080fd5b5061047b610476366004613bee565b6110e8565b6040516101ce9190613c1e565b34801561049457600080fd5b506101c4600081565b3480156104a957600080fd5b506101c46104b8366004613c32565b611158565b3480156104c957600080fd5b506101f76104d8366004613a43565b611191565b3480156104e957600080fd5b506102276104f8366004613c92565b61122a565b34801561050957600080fd5b506101f7610518366004613a43565b611318565b34801561052957600080fd5b506101f7610538366004613d2e565b6114cf565b34801561054957600080fd5b506101f7610558366004613a6f565b6115a0565b34801561056957600080fd5b50610227610578366004613938565b611615565b34801561058957600080fd5b506101f7610598366004613a6f565b61162c565b3480156105a957600080fd5b506102276105b8366004613ab0565b611721565b3480156105c957600080fd5b506101c46105d8366004613dc8565b6001600160a01b03918216600090815260346020908152604080832093909416825291909152205490565b34801561060f57600080fd5b506101c461061e366004613938565b61173e565b60008181526101666020908152604080832081516101008101835281548152600182015493810193909352600281015491830191909152600381015483929190606083019060ff16600481111561067c5761067c613df6565b600481111561068d5761068d613df6565b8152600382015461010090046001600160a01b03908116602083015260048301549081166040830152600160a01b900460ff161515606082015260059091015460809091015290506000816060015160048111156106ed576106ed613df6565b036106fb5750600192915050565b60018160600151600481111561071357610713613df6565b036107215750600492915050565b60028160600151600481111561073957610739613df6565b036107475750600292915050565b60038160600151600481111561075f5761075f613df6565b0361076d5750600392915050565b50600092915050565b50919050565b60006001600160e01b03198216637965db0b60e01b14806107ad57506301ffc9a760e01b6001600160e01b03198316145b92915050565b600261017354036107df5760405162461bcd60e51b81526004016107d690613e0c565b60405180910390fd5b600261017355610161546107f38133611749565b6107ff858585856117ad565b5050600161017355505050565b60606036805461081b90613e43565b80601f016020809104026020016040519081016040528092919081815260200182805461084790613e43565b80156108945780601f1061086957610100808354040283529160200191610894565b820191906000526020600020905b81548152906001019060200180831161087757829003601f168201915b5050505050905090565b60006108ab3384846119c3565b50600192915050565b6000600261017354036108d95760405162461bcd60e51b81526004016107d690613e0c565b600261017355620186a08210156109175760405162461bcd60e51b8152602060048201526002602482015261271760f11b60448201526064016107d6565b61015f546001600160a01b03908116908516036109465760405162461bcd60e51b81526004016107d690613e77565b61016c546001600160a01b03908116908516036109755760405162461bcd60e51b81526004016107d690613ea6565b61016e546001600160a01b03908116908516036109a45760405162461bcd60e51b81526004016107d690613eb8565b610172546001600160a01b03908116908516036109e75760405162461bcd60e51b81526020600482015260016024820152605360f81b60448201526064016107d6565b610170546001600160a01b0390811690851603610a2a5760405162461bcd60e51b81526020600482015260016024820152604d60f81b60448201526064016107d6565b81610a3485610e03565b1015610a525760405162461bcd60e51b81526004016107d690613ed3565b61016854620186a08304908190600782028503908590610a7b906001600160a01b031684611ae7565b5061016a54610a93906001600160a01b031685611ae7565b5061016c54610aab906001600160a01b031685611ae7565b5061016e54610ac3906001600160a01b031685611ae7565b5061017054610adb906001600160a01b031685611ae7565b5061017254610af6906001600160a01b031660028602611ae7565b50610b018783611ae7565b9450505050505b6001610173559392505050565b600090815261012d602052604090206001015490565b610b3482610b15565b610b3e8133611749565b610b488383611af4565b505050565b6001600160a01b0381163314610bbd5760405162461bcd60e51b815260206004820152602f60248201527f416363657373436f6e74726f6c3a2063616e206f6e6c792072656e6f756e636560448201526e103937b632b9903337b91039b2b63360891b60648201526084016107d6565b610bc78282611b7b565b5050565b6001600160a01b037f0000000000000000000000000000000000000000000000000000000000000000163003610c135760405162461bcd60e51b81526004016107d690613eee565b7f00000000000000000000000000000000000000000000000000000000000000006001600160a01b0316610c45611be3565b6001600160a01b031614610c6b5760405162461bcd60e51b81526004016107d690613f28565b610c7481611bff565b60408051600080825260208201909252610c9091839190611c7f565b50565b3360008181526034602090815260408083206001600160a01b038716845290915281205490916108ab918590610cca908690613f78565b6119c3565b610cdc61016154326110ad565b610cf85760405162461bcd60e51b81526004016107d690613ea6565b610d00611dc6565b565b60026101735403610d255760405162461bcd60e51b81526004016107d690613e0c565b60026101735561016254610d398133611749565b610d438383611e53565b505060016101735550565b6001600160a01b037f0000000000000000000000000000000000000000000000000000000000000000163003610d965760405162461bcd60e51b81526004016107d690613eee565b7f00000000000000000000000000000000000000000000000000000000000000006001600160a01b0316610dc8611be3565b6001600160a01b031614610dee5760405162461bcd60e51b81526004016107d690613f28565b610df782611bff565b610bc782826001611c7f565b6001600160a01b031660009081526033602052604090205490565b600054610100900460ff16610e395760005460ff1615610e3d565b303b155b610ea05760405162461bcd60e51b815260206004820152602e60248201527f496e697469616c697a61626c653a20636f6e747261637420697320616c72656160448201526d191e481a5b9a5d1a585b1a5e995960921b60648201526084016107d6565b600054610100900460ff16158015610ec2576000805461ffff19166101011790555b6101a55460ff1615610efa5760405162461bcd60e51b81526020600482015260016024820152604960f81b60448201526064016107d6565b6101a5805460ff19166001179055604080518082018252600c81526b6f627363757269747944414f60a01b602080830191909152825180840190935260048352634f42534360e01b90830152610f4f91611f2c565b610f57611f65565b610f5f611f9c565b610f67611fd3565b610f6f612152565b610f7a600032612181565b610f876101645432612181565b610f946101625432612181565b610fa16101635432611af4565b610fc532610fb16012600a614074565b610fc090643a35294400614083565b611e53565b610fd26101625432611b7b565b610ff361016154736a8a3f822c105b8abe211e337f6c3c3a16e50644612181565b6110146101615473a50c1d2eb4ce19571dd1d4ec03e7b6023789065c612181565b8015610c90576000805461ff001916905550565b61103561016154326110ad565b6110515760405162461bcd60e51b81526004016107d690613ea6565b610d0061218b565b61106661016154326110ad565b6110825760405162461bcd60e51b81526004016107d690613ea6565b6101a580546001600160a01b03909216620100000262010000600160b01b0319909216919091179055565b600091825261012d602090815260408084206001600160a01b0393909316845291905290205460ff1690565b60606037805461081b90613e43565b600080611141846040517b0ca2ba3432b932bab69029b4b3b732b21026b2b9b9b0b3b29d05199960211b6020820152603c8101829052600090605c01604051602081830303815290604052805190602001209050919050565b9050600061114f82856121e3565b95945050505050565b60008484848460405160200161117194939291906140a2565b604051602081830303815290604052805190602001209050949350505050565b3360009081526034602090815260408083206001600160a01b0386168452909152812054828110156112135760405162461bcd60e51b815260206004820152602560248201527f45524332303a2064656372656173656420616c6c6f77616e63652062656c6f77604482015264207a65726f60d81b60648201526084016107d6565b61122033858584036119c3565b5060019392505050565b6002610173540361124d5760405162461bcd60e51b81526004016107d690613e0c565b6002610173556101615461126190326110ad565b61127d5760405162461bcd60e51b81526004016107d690613ea6565b610168546001600160a01b031632036112c357610168546112ab906001600160a01b031686868686866114cf565b15156001146112b957600080fd5b6112c38688612207565b61016a546001600160a01b031632036113095761016a546112f1906001600160a01b031686868686866114cf565b15156001146112ff57600080fd5b6113098688612355565b50506001610173555050505050565b60006002610173540361133d5760405162461bcd60e51b81526004016107d690613e0c565b600261017355620186a08210156113665760405162461bcd60e51b81526004016107d6906140da565b61015f546001600160a01b031633036113915760405162461bcd60e51b81526004016107d690613e77565b61016c546001600160a01b031632036113bc5760405162461bcd60e51b81526004016107d690613ea6565b61016e546001600160a01b031632036113e75760405162461bcd60e51b81526004016107d690613eb8565b816113f132610e03565b101561140f5760405162461bcd60e51b81526004016107d690613ed3565b61016854620186a08304908190600782028503908590611438906001600160a01b031684611ae7565b5061016a54611450906001600160a01b031685611ae7565b5061016c54611468906001600160a01b031685611ae7565b5061016e54611480906001600160a01b031685611ae7565b5061017054611498906001600160a01b031685611ae7565b50610172546114b3906001600160a01b031660028602611ae7565b506114be8783611ae7565b600161017355979650505050505050565b6000806114de87878787611158565b905060005b3260009081526101a66020526040902054811015611547573260009081526101a660205260409020805483919083908110611520576115206140f5565b90600052602060002001540361153557600080fd5b8061153f8161410b565b9150506114e3565b506000886001600160a01b031661155e83866110e8565b6001600160a01b03161490508015611594573260009081526101a660209081526040822080546001810182559083529120018290555b98975050505050505050565b6000600261017354036115c55760405162461bcd60e51b81526004016107d690613e0c565b6002610173556101a5546201000090046001600160a01b031633146115fc5760405162461bcd60e51b81526004016107d690613e77565b6116078484846124ad565b600161017355949350505050565b610161546116238133611749565b610bc782612559565b6000600261017354036116515760405162461bcd60e51b81526004016107d690613e0c565b600261017355610168546001600160a01b031632148061167c575061016a546001600160a01b031632145b156116f55761016c546001600160a01b03163314806116a6575061016e546001600160a01b031633145b156116c7576116b5328361089e565b506116c08383611ae7565b9050610b08565b60405162461bcd60e51b8152602060048201526003602482015262432f5960e81b60448201526064016107d6565b60405162461bcd60e51b81526020600482015260016024820152602360f91b60448201526064016107d6565b61172a82610b15565b6117348133611749565b610b488383611b7b565b60006107ad82610623565b61175382826110ad565b610bc75761176b816001600160a01b031660146128d3565b6117768360206128d3565b604051602001611787929190614124565b60408051601f198184030181529082905262461bcd60e51b82526107d691600401613a30565b610168546001600160a01b03848116911614806117d8575061016a546001600160a01b038481169116145b806117f1575061016e546001600160a01b038481169116145b8061180a575061016c546001600160a01b038481169116145b806118235750610170546001600160a01b038481169116145b8061183c5750610172546001600160a01b038481169116145b80611855575061015f546001600160a01b038481169116145b61185e57600080fd5b60008481526101666020526040902060040154600160a01b900460ff161561188557600080fd5b6040805161010081018252600080825260208083018281528385018681526004606086018181526001600160a01b03808c1660808901528a1660a0880152600160c088018190524260e08901528c8752610166909552969094208551815591518284015551600282015593516003850180549495949193909260ff199092169190849081111561191757611917613df6565b02179055506080820151600382018054610100600160a81b0319166101006001600160a01b039384160217905560a083015160048301805460c0860151929093166001600160a81b031990931692909217600160a01b9115159190910217905560e09091015160059091015560405133907f6ceccc91da1789e8e61ce3484744a0de0898e22dc9e6f8864985d5a48b64dd2d906119b5908790614193565b60405180910390a250505050565b6001600160a01b038316611a255760405162461bcd60e51b8152602060048201526024808201527f45524332303a20617070726f76652066726f6d20746865207a65726f206164646044820152637265737360e01b60648201526084016107d6565b6001600160a01b038216611a865760405162461bcd60e51b815260206004820152602260248201527f45524332303a20617070726f766520746f20746865207a65726f206164647265604482015261737360f01b60648201526084016107d6565b6001600160a01b0383811660008181526034602090815260408083209487168084529482529182902085905590518481527f8c5be1e5ebec7d5bd14f71427d1e84f3dd0314c0f7b2291e5b200ac8c7c3b925910160405180910390a3505050565b60006108ab338484612a6e565b611afe82826110ad565b610bc757600082815261012d602090815260408083206001600160a01b03851684529091529020805460ff19166001179055611b373390565b6001600160a01b0316816001600160a01b0316837f2f8788117e7eff1d82e926ec794901d17c78024a50270940304540a733656f0d60405160405180910390a45050565b611b8582826110ad565b15610bc757600082815261012d602090815260408083206001600160a01b0385168085529252808320805460ff1916905551339285917ff6391f5c32d9c69d2a47ea670b442974b53935d1edc7fd64eb21e047a839171b9190a45050565b60008051602061430f833981519152546001600160a01b031690565b60026101735403611c225760405162461bcd60e51b81526004016107d690613e0c565b60026101735561016454611c368133611749565b61015f546001600160a01b03163214611c755760405162461bcd60e51b81526020600482015260016024820152604f60f81b60448201526064016107d6565b5050600161017355565b6000611c89611be3565b9050611c9484612c37565b600083511180611ca15750815b15611cb257611cb08484612cca565b505b7f4910fdfa16fed3260ed0e7147f7cc6da11a60208b5b9406d12a635614ffd9143805460ff16611dbf57805460ff19166001178155604051611d2d908690611cfe908590602401613c1e565b60408051601f198184030181529190526020810180516001600160e01b0316631b2ce7f360e11b179052612cca565b50805460ff19168155611d3e611be3565b6001600160a01b0316826001600160a01b031614611db65760405162461bcd60e51b815260206004820152602f60248201527f45524331393637557067726164653a207570677261646520627265616b73206660448201526e75727468657220757067726164657360881b60648201526084016107d6565b611dbf85612dac565b5050505050565b60655460ff16611e0f5760405162461bcd60e51b815260206004820152601460248201527314185d5cd8589b194e881b9bdd081c185d5cd95960621b60448201526064016107d6565b6065805460ff191690557f5db9ee0a495bf2e6ff9c91a7834c1ba4fdd244a5e8aa4e537bd38aeae4b073aa335b604051611e499190613c1e565b60405180910390a1565b6001600160a01b038216611ea95760405162461bcd60e51b815260206004820152601f60248201527f45524332303a206d696e7420746f20746865207a65726f20616464726573730060448201526064016107d6565b611eb560008383612dec565b8060356000828254611ec79190613f78565b90915550506001600160a01b03821660009081526033602052604081208054839290611ef4908490613f78565b90915550506040518181526001600160a01b038316906000906000805160206143568339815191529060200160405180910390a35050565b600054610100900460ff16611f535760405162461bcd60e51b81526004016107d6906141ab565b611f5b612e0f565b610bc78282612e36565b600054610100900460ff16611f8c5760405162461bcd60e51b81526004016107d6906141ab565b611f94612e0f565b610d00612e84565b600054610100900460ff16611fc35760405162461bcd60e51b81526004016107d6906141ab565b611fcb612e0f565b610d00612e0f565b600054610100900460ff16611ffa5760405162461bcd60e51b81526004016107d6906141ab565b612002612eb7565b61203a60405180604001604052806002815260200161464f60f01b815250736a8a3f822c105b8abe211e337f6c3c3a16e50644612fed565b61207260405180604001604052806002815260200161119560f21b81525073a50c1d2eb4ce19571dd1d4ec03e7b6023789065c6130a4565b6120aa60405180604001604052806002815260200161435760f01b81525073fc89331182fb57c5a5d64d404b6e74c07005f20261312d565b6120e260405180604001604052806002815260200161086960f31b81525073c83b7093ae450ff80de03f7b615bc43779c660f96131b6565b61211a6040518060400160405280600281526020016126a760f11b81525073c83b7093ae450ff80de03f7b615bc43779c660f961323f565b610d006040518060400160405280600281526020016129a760f11b81525073c83b7093ae450ff80de03f7b615bc43779c660f96132c9565b600054610100900460ff166121795760405162461bcd60e51b81526004016107d6906141ab565b610d00613353565b610bc78282611af4565b60655460ff16156121ae5760405162461bcd60e51b81526004016107d6906141f6565b6065805460ff191660011790557f62e78cea01bee320cd4e420270b5ea74000d11b0c9f74754ebdbfc544b05a258611e3c3390565b60008060006121f28585613382565b915091506121ff816133f0565b509392505050565b600081815261016660209081526040808320815161010081018352815481526001820154938101939093526002810154918301919091526003810154606083019060ff16600481111561225c5761225c613df6565b600481111561226d5761226d613df6565b8152600382015461010090046001600160a01b03908116602083015260048301549081166040830152600160a01b900460ff161515606082015260059091015460809091015290506001816060015160048111156122cd576122cd613df6565b036122d757600080fd5b6004816060015160048111156122ef576122ef613df6565b0361230f57600082815261016660205260409020600301805460ff191690555b8260011461233a57600082815261016660205260408120848155600301805460ff1916600117905580fd5b82600103610b48575060009081526101666020526040902055565b600081815261016660209081526040808320815161010081018352815481526001820154938101939093526002810154918301919091526003810154606083019060ff1660048111156123aa576123aa613df6565b60048111156123bb576123bb613df6565b8152600382015461010090046001600160a01b03908116602083015260048301549081166040830152600160a01b900460ff1615156060820152600590910154608090910152905060018160600151600481111561241b5761241b613df6565b0361242557600080fd5b60048160600151600481111561243d5761243d613df6565b0361245d57600082815261016660205260409020600301805460ff191690555b8260011461248f5760008281526101666020526040812060018082018690556003909101805460ff1916909117905580fd5b82600103610b48575060009081526101666020526040902060010155565b60006124ba848484612a6e565b6001600160a01b03841660009081526034602090815260408083203384529091529020548281101561253f5760405162461bcd60e51b815260206004820152602860248201527f45524332303a207472616e7366657220616d6f756e74206578636565647320616044820152676c6c6f77616e636560c01b60648201526084016107d6565b61254c85338584036119c3565b60019150505b9392505050565b612562816135a1565b600081815261016660209081526040808320815161010081018352815481526001820154938101939093526002810154918301919091526003810154606083019060ff1660048111156125b7576125b7613df6565b60048111156125c8576125c8613df6565b8152600382015461010090046001600160a01b03908116602083015260048301549081166040830152600160a01b900460ff1615156060820152600590910154608090910152905060028160600151600481111561262857612628613df6565b146126595760405162461bcd60e51b81526020600482015260016024820152600360fc1b60448201526064016107d6565b6080810151610168546001600160a01b039182169116036126c25760a081015161016880546001600160a01b0319166001600160a01b039092169190911790556101615460808201516126ac9190611b7b565b6126bd610161548260a00151611af4565b6128ac565b608081015161016a546001600160a01b039182169116036127155760a081015161016a80546001600160a01b0319166001600160a01b039092169190911790556101615460808201516126ac9190611b7b565b608081015161016c546001600160a01b0391821691160361275a5760a081015161016c80546001600160a01b0319166001600160a01b039092169190911790556128ac565b608081015161016e546001600160a01b0391821691160361279f5760a081015161016e80546001600160a01b0319166001600160a01b039092169190911790556128ac565b6080810151610172546001600160a01b039182169116036127e45760a081015161017280546001600160a01b0319166001600160a01b039092169190911790556128ac565b6080810151610170546001600160a01b039182169116036128295760a081015161017080546001600160a01b0319166001600160a01b039092169190911790556128ac565b608081015161015f546001600160a01b039182169116036128ac57612855610163548260a00151611af4565b612866610164548260a00151612181565b6128776000801b8260a00151612181565b61016354608082015161288a9190611b7b565b61289b610164548260800151611b7b565b6128ac6000801b8260800151611b7b565b6000828152610166602052604090206003908101805460ff19166001835b02179055505050565b606060006128e2836002614083565b6128ed906002613f78565b6001600160401b0381111561290457612904613afd565b6040519080825280601f01601f19166020018201604052801561292e576020820181803683370190505b509050600360fc1b81600081518110612949576129496140f5565b60200101906001600160f81b031916908160001a905350600f60fb1b81600181518110612978576129786140f5565b60200101906001600160f81b031916908160001a905350600061299c846002614083565b6129a7906001613f78565b90505b6001811115612a1f576f181899199a1a9b1b9c1cb0b131b232b360811b85600f16601081106129db576129db6140f5565b1a60f81b8282815181106129f1576129f16140f5565b60200101906001600160f81b031916908160001a90535060049490941c93612a1881614220565b90506129aa565b5083156125525760405162461bcd60e51b815260206004820181905260248201527f537472696e67733a20686578206c656e67746820696e73756666696369656e7460448201526064016107d6565b6001600160a01b038316612ad25760405162461bcd60e51b815260206004820152602560248201527f45524332303a207472616e736665722066726f6d20746865207a65726f206164604482015264647265737360d81b60648201526084016107d6565b6001600160a01b038216612b345760405162461bcd60e51b815260206004820152602360248201527f45524332303a207472616e7366657220746f20746865207a65726f206164647260448201526265737360e81b60648201526084016107d6565b612b3f838383612dec565b6001600160a01b03831660009081526033602052604090205481811015612bb75760405162461bcd60e51b815260206004820152602660248201527f45524332303a207472616e7366657220616d6f756e7420657863656564732062604482015265616c616e636560d01b60648201526084016107d6565b6001600160a01b03808516600090815260336020526040808220858503905591851681529081208054849290612bee908490613f78565b92505081905550826001600160a01b0316846001600160a01b031660008051602061435683398151915284604051612c2891815260200190565b60405180910390a35b50505050565b803b612c9b5760405162461bcd60e51b815260206004820152602d60248201527f455243313936373a206e657720696d706c656d656e746174696f6e206973206e60448201526c1bdd08184818dbdb9d1c9858dd609a1b60648201526084016107d6565b60008051602061430f83398151915280546001600160a01b0319166001600160a01b0392909216919091179055565b6060823b612d295760405162461bcd60e51b815260206004820152602660248201527f416464726573733a2064656c65676174652063616c6c20746f206e6f6e2d636f6044820152651b9d1c9858dd60d21b60648201526084016107d6565b600080846001600160a01b031684604051612d449190614237565b600060405180830381855af49150503d8060008114612d7f576040519150601f19603f3d011682016040523d82523d6000602084013e612d84565b606091505b509150915061114f828260405180606001604052806027815260200161432f60279139613725565b612db581612c37565b6040516001600160a01b038216907fbc7cd75a20ee27fd9adebab32041f755214dbc6bffa90cc0225b39da2e5c2d3b90600090a250565b60655460ff1615610b485760405162461bcd60e51b81526004016107d6906141f6565b600054610100900460ff16610d005760405162461bcd60e51b81526004016107d6906141ab565b600054610100900460ff16612e5d5760405162461bcd60e51b81526004016107d6906141ab565b8151612e7090603690602085019061389f565b508051610b4890603790602084019061389f565b600054610100900460ff16612eab5760405162461bcd60e51b81526004016107d6906141ab565b6065805460ff19169055565b600054610100900460ff16612ede5760405162461bcd60e51b81526004016107d6906141ab565b612ee661375e565b61015f80546001600160a01b03191673c00911b36603c141f523bbee654cbf11102932b11790557f99c61ce2ed9d18bd2f1848aa5af318ec192d4314bf69a0b55a7583b219f89e41610160557f65d7a28e3265b37a6474929f336521b332c1681b933f6cb9f3376673440d862a610161557f9f2df0fed2c77648de5860a4cc508cd0818c85b8b8a1ab4ceeef8d981c8956a6610162557f189ab7a9244df0848122154315af71fe140f3db0fe014031783b0946b8c9d2e3610163557fa49807205ce4d355092ef5a8a18f56e8913cf4a201fbe287825b095693c21775610164557f7ed687a8f2955bd2ba7ca08227e1e364d132be747f42fb733165f923021b022561016555565b60408051808201825260018152604f60f81b602090910152517fc669aa98d5975cc43653c879a18d9bc4aa8bf51e69f61aeb1d7769216f98009a906130359061016790614253565b604051809103902014610bc757604080518082019091528281526001600160a01b03821660208083019190915283516101679161307691839187019061389f565b5060209190910151600190910180546001600160a01b0319166001600160a01b039092169190911790555050565b60408051808201825260018152601560fa1b602090910152517f846b7b6deb1cfa110d0ea7ec6162a7123b761785528db70cceed5143183b11fc906130ec9061016990614253565b604051809103902014610bc757604080518082019091528281526001600160a01b03821660208083019190915283516101699161307691839187019061389f565b60408051808201825260018152604360f81b602090910152517f017e667f4b8c174291d1543c466717566e206df1bfd6f30271055ddafdb18f72906131759061016b90614253565b604051809103902014610bc757604080518082019091528281526001600160a01b038216602080830191909152835161016b9161307691839187019061389f565b60408051808201825260018152602d60f91b602090910152517f7d54a4ab605dc825939ee59b4af5be4680f51892ef5944365e996fd93f70a2e5906131fe9061016d90614253565b604051809103902014610bc757604080518082019091528281526001600160a01b038216602080830191909152835161016d9161307691839187019061389f565b604080518082018252600281526126a760f11b602090910152517fa58cf80943770dd084f078bec17346ccb44c1ca309c9db7e14b1781d30f61dc0906132889061016f90614253565b604051809103902014610bc757604080518082019091528281526001600160a01b038216602080830191909152835161016f9161307691839187019061389f565b604080518082018252600281526129a760f11b602090910152517f692afa398c2cae5fc689ceb6f24b26644526f34725daec5c368d84e793eb5c9d906133129061017190614253565b604051809103902014610bc757604080518082019091528281526001600160a01b03821660208083019190915283516101719161307691839187019061389f565b600054610100900460ff1661337a5760405162461bcd60e51b81526004016107d6906141ab565b600161017355565b60008082516041036133b85760208301516040840151606085015160001a6133ac8782858561378d565b945094505050506133e9565b82516040036133e157602083015160408401516133d6868383613870565b9350935050506133e9565b506000905060025b9250929050565b600081600481111561340457613404613df6565b0361340c5750565b600181600481111561342057613420613df6565b036134685760405162461bcd60e51b815260206004820152601860248201527745434453413a20696e76616c6964207369676e617475726560401b60448201526064016107d6565b600281600481111561347c5761347c613df6565b036134c95760405162461bcd60e51b815260206004820152601f60248201527f45434453413a20696e76616c6964207369676e6174757265206c656e6774680060448201526064016107d6565b60038160048111156134dd576134dd613df6565b036135355760405162461bcd60e51b815260206004820152602260248201527f45434453413a20696e76616c6964207369676e6174757265202773272076616c604482015261756560f01b60648201526084016107d6565b600481600481111561354957613549613df6565b03610c905760405162461bcd60e51b815260206004820152602260248201527f45434453413a20696e76616c6964207369676e6174757265202776272076616c604482015261756560f01b60648201526084016107d6565b600081815261016660209081526040808320815161010081018352815481526001820154938101939093526002810154918301919091526003810154606083019060ff1660048111156135f6576135f6613df6565b600481111561360757613607613df6565b8152600382015461010090046001600160a01b03908116602083015260048301549081166040830152600160a01b900460ff1615156060820152600590910154608090910152905060018160600151600481111561366757613667613df6565b036136985760405162461bcd60e51b81526020600482015260016024820152603160f81b60448201526064016107d6565b60e08101516136aa9062278d00613f78565b42101561370157602081015181516136c29190613f78565b6002146136e15760405162461bcd60e51b81526004016107d6906140da565b50600090815261016660205260409020600301805460ff19166002179055565b60008281526101666020526040902060030180546002919060ff19166001836128ca565b60608315613734575081612552565b8251156137445782518084602001fd5b8160405162461bcd60e51b81526004016107d69190613a30565b600054610100900460ff166137855760405162461bcd60e51b81526004016107d6906141ab565b611fc3612e0f565b6000806fa2a8918ca85bafe22016d0b997e4df60600160ff1b038311156137ba5750600090506003613867565b8460ff16601b141580156137d257508460ff16601c14155b156137e35750600090506004613867565b6040805160008082526020820180845289905260ff881692820192909252606081018690526080810185905260019060a0016020604051602081039080840390855afa158015613837573d6000803e3d6000fd5b5050604051601f1901519150506001600160a01b03811661386057600060019250925050613867565b9150600090505b94509492505050565b6000806001600160ff1b03831660ff84901c601b016138918782888561378d565b935093505050935093915050565b8280546138ab90613e43565b90600052602060002090601f0160209004810192826138cd5760008555613913565b82601f106138e657805160ff1916838001178555613913565b82800160010185558215613913579182015b828111156139135782518255916020019190600101906138f8565b5061391f929150613923565b5090565b5b8082111561391f5760008155600101613924565b60006020828403121561394a57600080fd5b5035919050565b60006020828403121561396357600080fd5b81356001600160e01b03198116811461255257600080fd5b6001600160a01b0381168114610c9057600080fd5b600080600080608085870312156139a657600080fd5b8435935060208501356139b88161397b565b925060408501356139c88161397b565b9396929550929360600135925050565b60005b838110156139f35781810151838201526020016139db565b83811115612c315750506000910152565b60008151808452613a1c8160208601602086016139d8565b601f01601f19169290920160200192915050565b6020815260006125526020830184613a04565b60008060408385031215613a5657600080fd5b8235613a618161397b565b946020939093013593505050565b600080600060608486031215613a8457600080fd5b8335613a8f8161397b565b92506020840135613a9f8161397b565b929592945050506040919091013590565b60008060408385031215613ac357600080fd5b823591506020830135613ad58161397b565b809150509250929050565b600060208284031215613af257600080fd5b81356125528161397b565b634e487b7160e01b600052604160045260246000fd5b600082601f830112613b2457600080fd5b81356001600160401b0380821115613b3e57613b3e613afd565b604051601f8301601f19908116603f01168101908282118183101715613b6657613b66613afd565b81604052838152866020858801011115613b7f57600080fd5b836020870160208301376000602085830101528094505050505092915050565b60008060408385031215613bb257600080fd5b8235613bbd8161397b565b915060208301356001600160401b03811115613bd857600080fd5b613be485828601613b13565b9150509250929050565b60008060408385031215613c0157600080fd5b8235915060208301356001600160401b03811115613bd857600080fd5b6001600160a01b0391909116815260200190565b60008060008060808587031215613c4857600080fd5b8435613c538161397b565b93506020850135925060408501356001600160401b03811115613c7557600080fd5b613c8187828801613b13565b949793965093946060013593505050565b600080600080600080600060e0888a031215613cad57600080fd5b87359650602088013595506040880135613cc68161397b565b94506060880135935060808801356001600160401b0380821115613ce957600080fd5b613cf58b838c01613b13565b945060a08a0135935060c08a0135915080821115613d1257600080fd5b50613d1f8a828b01613b13565b91505092959891949750929550565b60008060008060008060c08789031215613d4757600080fd5b8635613d528161397b565b95506020870135613d628161397b565b94506040870135935060608701356001600160401b0380821115613d8557600080fd5b613d918a838b01613b13565b94506080890135935060a0890135915080821115613dae57600080fd5b50613dbb89828a01613b13565b9150509295509295509295565b60008060408385031215613ddb57600080fd5b8235613de68161397b565b91506020830135613ad58161397b565b634e487b7160e01b600052602160045260246000fd5b6020808252601f908201527f5265656e7472616e637947756172643a207265656e7472616e742063616c6c00604082015260600190565b600181811c90821680613e5757607f821691505b60208210810361077657634e487b7160e01b600052602260045260246000fd5b6020808252600190820152604160f81b604082015260600190565b60018152604360f81b602082015260400190565b6020815260006107ad60208301613e92565b6020808252600190820152605960f81b604082015260600190565b6020808252600190820152602d60f91b604082015260600190565b6020808252602c908201526000805160206142ef83398151915260408201526b19195b1959d85d1958d85b1b60a21b606082015260800190565b6020808252602c908201526000805160206142ef83398151915260408201526b6163746976652070726f787960a01b606082015260800190565b634e487b7160e01b600052601160045260246000fd5b60008219821115613f8b57613f8b613f62565b500190565b600181815b80851115613fcb578160001904821115613fb157613fb1613f62565b80851615613fbe57918102915b93841c9390800290613f95565b509250929050565b600082613fe2575060016107ad565b81613fef575060006107ad565b8160018114614005576002811461400f5761402b565b60019150506107ad565b60ff84111561402057614020613f62565b50506001821b6107ad565b5060208310610133831016604e8410600b841016171561404e575081810a6107ad565b6140588383613f90565b806000190482111561406c5761406c613f62565b029392505050565b600061255260ff841683613fd3565b600081600019048311821515161561409d5761409d613f62565b500290565b60018060a01b03851681528360208201526080604082015260006140c96080830185613a04565b905082606083015295945050505050565b6020808252600190820152602760f91b604082015260600190565b634e487b7160e01b600052603260045260246000fd5b60006001820161411d5761411d613f62565b5060010190565b76020b1b1b2b9b9a1b7b73a3937b61d1030b1b1b7bab73a1604d1b8152600083516141568160178501602088016139d8565b7001034b99036b4b9b9b4b733903937b6329607d1b60179184019182015283516141878160288401602088016139d8565b01602801949350505050565b81815260406020820152600061255260408301613e92565b6020808252602b908201527f496e697469616c697a61626c653a20636f6e7472616374206973206e6f74206960408201526a6e697469616c697a696e6760a81b606082015260800190565b60208082526010908201526f14185d5cd8589b194e881c185d5cd95960821b604082015260600190565b60008161422f5761422f613f62565b506000190190565b600082516142498184602087016139d8565b9190910192915050565b600080835481600182811c91508083168061426f57607f831692505b6020808410820361428e57634e487b7160e01b86526022600452602486fd5b8180156142a257600181146142b3576142e0565b60ff198616895284890196506142e0565b60008a81526020902060005b868110156142d85781548b8201529085019083016142bf565b505084890196505b50949897505050505050505056fe46756e6374696f6e206d7573742062652063616c6c6564207468726f75676820360894a13ba1a3210667c828492db98dca3e2076cc3735a920a3ca505d382bbc416464726573733a206c6f772d6c6576656c2064656c65676174652063616c6c206661696c6564ddf252ad1be2c89b69c2b068fc378daa952ba7f163c4a11628f55a4df523b3efa2646970667358221220d66a86402ae848bfc185a4b4670991a6294735342cec2f8ebf710efadb0273c064736f6c634300080d0033",
  "linkReferences": {},
  "deployedLinkReferences": {}
}